:020000040800F2
:100000005809002049020008414E0008A74900088D
:100010003D4E000891150008DF5A0008000000005E
:10002000000000000000000000000000E95000088F
:100030001916000800000000454E0008EB500008AB
:1000400063020008630200086302000863020008FC
:1000500063020008630200086302000863020008EC
:100060006302000863020008630200089515000897
:1000700063020008630200086302000863020008CC
:1000800063020008630200089D1400086302000870
:100090006302000863020008630200081B160008E0
:1000A000630200086302000863020008630200089C
:1000B000630200086302000863020008630200088C
:1000C000630200086302000863020008630200087C
:1000D000630200086302000863020008630200086C
:1000E000630200086302000863020008630200085C
:1000F000630200086302000863020008630200084C
:100100000000000000000000000000006302000882
:10011000630200086302000863020008630200082B
:10012000630200086302000863020008630200081B
:1001300063020008630200080000000000000000E5
:100140006302000863020008630200080000000068
:10015000000000000000000000000000000000009F
:1001600000000000000000006302000863020008B5
:100170006302000800000000000000000000000012
:10018000000000006302000800F002F800F04CF8E4
:100190000AA090E8000C82448344AAF10107DA45E2
:1001A00001D100F041F8AFF2090EBAE80F0013F0E8
:1001B000010F18BFFB1A43F00103184790600000BD
:1001C000B0600000103A24BF78C878C1FAD852074E
:1001D00024BF30C830C144BF04680C6070470000C1
:1001E0000023002400250026103A28BF78C1FBD840
:1001F000520728BF30C148BF0B607047662905F021
:10020000BC87642900F00081002070471FB505F00D
:10021000AAFF00F005FC04000020002105F0ECFD21
:10022000E0601FBD10B510BD00F0FAFC1146FFF7ED
:10023000EDFF05F0C3FC00F018FD03B4FFF7F2FF7B
:1002400003BC00F05BFD00000948804709480047F7
:10025000FEE7FEE7FEE7FEE7FEE7FEE7FEE7FEE776
:10026000FEE7FEE704480549054A064B70470000D3
:100270008551000889010008580300205809002012
:10028000580500205805002053EA020C00F0698050
:100290002DE9F04B4FF00006002B1FBFB3FA83F59A
:1002A00003FA05F424FA05F65E4012BF1643B2FACB
:1002B00082F502FA05F4C5F120051EBF22FA05FCFD
:1002C00044EA0C04203556EA044C4FEA144418BFA3
:1002D000641C4FF000084FF00009904271EB030CD2
:1002E00039D3002919BFB1FA81F701FA07F6B0FA3C
:1002F00080F700FA07F6C7F120071EBF20FA07FCB7
:1003000046EA0C062037B6FBF4FCA7EB0507103FC6
:1003100007F01F0BCBF120060CFA0BFB2CFA06F6AC
:1003200044BFB3460026202FA4BF5E464FF0000B0B
:100330005BEA060C08BF4FF0010B19EB0B09ABFB96
:10034000027C48EB0608C01B06FB02CC0BFB03CC6F
:1003500071EB0C01C1E70B46024641464846BDE839
:10036000F08B13B54FF000004FF00001AFF30080A9
:10037000BDE81C40704700000FB41CB5074B06AA2F
:100380007B4469460090059800F031FB00206946E7
:1003900000F040FB1CBC5DF814FB0000910600005F
:1003A0002DE9F0410E460446002020622046E16817
:1003B000884730B3252805D0D4E901219047206A29
:1003C000401CF2E7E168204600278847050018D066
:1003D000A5F14100192802D820354FF400673246B4
:1003E000294620462760FFF709FF40B1012804D0C5
:1003F000F61D26F007060836D8E7361DD6E728464C
:10040000DAE7206ABDE8F0812DE9F04106460024D4
:1004100010687529314616A510D0AFF3008000286A
:1004200002DA404213A507E031688A0701D512A518
:1004300002E0490704D511A5012401E0AFF30080D3
:1004400000210A2206F1240709E0B0FBF2FCB0FB10
:10045000F2F302FB1C00303078541846491C002887
:10046000F3D123462A463046BDE8F04100F051B8AA
:10047000000000002D0000002B0000002000000004
:1004800010B5431C02E010F8011B71B18107FAD1CD
:100490004FF0013202C88C1A8C4314EAC211F9D011
:1004A000C01A0A0603D0C01E10BDC01A10BD0A042F
:1004B00001D0801E10BD0902FCD0401E10BD4FF0BF
:1004C000000200B5134694469646203922BFA0E8A4
:1004D0000C50A0E80C50B1F12001BFF4F7AF0907B0
:1004E00028BFA0E80C5048BF0CC05DF804EB8900A1
:1004F00028BF40F8042B08BF704748BF20F8022BE4
:1005000011F0804F18BF00F8012B704770477047FB
:1005100070472DE9F0470D4699469246044600F192
:1005200024080168880604D5E06921F010012160E3
:1005300000E00120A84201DD471B00E00027A1697F
:100540007A1902EB0900081AA0612078C00602D4CB
:100550002046AFF30080002608E0D4E901211AF814
:1005600006009047206A401C761C20624E45F4DB52
:100570002078C0060AD52046AFF3008006E0D4E913
:10058000012130209047206A401C2062381EA7F1CC
:100590000107F4DC07E0D4E9012118F805009047D1
:1005A000206A401C2062281EA5F10105F3DC2046CC
:1005B000AFF300802078000602D50220BDE8F08766
:1005C0000120FBE770472DE9FF4F0C461E464FF018
:1005D000FF378BB0D2E90001DDF860800A908A46CF
:1005E000C1F30A5505B93D46002108464FF0000009
:1005F000BAF1000F00F4400005DA00EB80004FF480
:10060000400101EA50004FEA9059B9F1010F00DDB5
:10061000B9460A9850EA4A000ED044F61050A5F2A6
:10062000FF3545432F14B8F1000F1ED07542291E27
:100630001EDDC9F100021CE0B8F1010F4FF000000F
:1006400001D0302103E0F24305E02154401CB042C8
:10065000FBDB30460022002121540B99C1F80880B1
:10066000C1E900200FB0BDE8F08FBD1B6D1CDEE7B7
:100670004A4600DA694206A800F05CFA06AB93E845
:10068000070003AB83E8070050460A9900F03DFBE2
:100690008DE80700A0F500501F3800900398002D4A
:1006A0000ADD42F21F014A460844002303A90390D1
:1006B000684600F0A6FD09E0A0F500504A461F3844
:1006C000002303A90390684600F0B0FD8DE8070001
:1006D0000004000C03D04FF0FF30410800E010464A
:1006E000B8F1000F03D00022009215461EE0751EDF
:1006F00005D400F099F9303262556D1EF9D5B34634
:100700000122084302D000227F1C04E02078302818
:1007100001D100227F1E002A099784D01DE0112DEF
:1007200007DA00F081F9303262556D1C50EA01029F
:10073000F5D1084302D00098C8B10EE00021681E30
:1007400005E0235C625C63542254401E491C8142D4
:10075000F7DBAB46A81B401E0990002004F80B00F5
:100760000B98099AC0F80880C0E9002B7AE7112697
:100770004FF0000857E72DE9F04F88460446D21D98
:1007800022F0070191B0D1E90001CDE90A0105F09D
:10079000A8F902460B98C00F01D02D2007E0206871
:1007A000810701D52B2002E0202101EAC000032AA5
:1007B000099001D0072A05DB03464146204600F098
:1007C00079F90BE12078800601D5E06900E0062088
:1007D000B8F1650F814606D0B8F1660F18D0B8F1B0
:1007E000670F70D131E00020B9F1110F009001DBEB
:1007F000112301E009F101030AAA01A90CA8FFF7DE
:10080000E2FEDDE90C70002609F10105834647E0B0
:1008100001204B4600904FF000470AAA01A90CA8FE
:10082000FFF7D1FEDDE90DB00C995D46002610B949
:1008300009F101000D18B9EB050003D4C0F1FF3632
:1008400009F10105A5EB09002BE0B9F1010F01DA6F
:100850004FF001090020B9F1110F0090484601DD69
:10086000112300E003460AAA01A90CA8FFF7ABFE7A
:10087000DDE90C704D4600268346207800070AD437
:10088000AB4500DA5D4601A8012D04DD411911F8E0
:10089000011C302907D04F4502DA17F1040F04DAA2
:1008A000012082460FE06D1EEEE7002F02DCED1BFB
:1008B0003E4403E0781CA84200DD7D1CB81B00F11B
:1008C000010A4FF000472078000703D4AA4501DB56
:1008D0004FF0FF3A0021B7F1004F0DF143088DF8BA
:1008E000431024D002202B23002F01DA7F422D2336
:1008F0000A21021EA0F1010000DC5FB197FBF1FCB0
:1009000097FBF1F201FB1C7C17460CF1300C08F848
:1009100001CDEEE7A8F1010003702188090501D59A
:10092000452100E06521A0F1010800F8011C0998AB
:100930000FA9A1EB0807FF1D00B10120411901EB30
:10094000EA70A1693844081A401EA0612078C006E8
:1009500002D42046AFF30080099828B1D4E90121E0
:100960009047206A401C20622078C00622D520468D
:10097000AFF300801EE0002E04DBB34502DD01A8CA
:10098000805D00E03020D4E901219047206A401CBE
:100990002062761CAAF101005FEA000A0AD100F089
:1009A0003FF8C0680168405CD4E901219047206AA3
:1009B000401C2062281EA5F10105DCDC07E0D4E91B
:1009C000012118F8010B9047206A401C2062381E54
:1009D000A7F10107F3DC2046AFF30080032011B03C
:1009E00041E6000001694A1C02610878704700B5C1
:1009F0008FB0CDE901310021059105497944CDE958
:100A0000031011466846FFF7CBFC0FB000BD000095
:100A1000E5FFFFFF0A6802F8010B0A60704700005B
:100A2000004870471803002030B5B0F10A024FEAC1
:100A3000900E71F100034EEA817EB0EB0E0061EB87
:100A400091014FEA101E4EEA017E10EB0E0041EBC1
:100A500011114FEA102E4EEA016E10EB0E0041EB21
:100A600011214FEA104E4EEA014E10EB0E0041EB01
:100A70001141401841F100014FEAD00040EA4170B5
:100A80004FEAD10110EB80054FEA810444EA9074EB
:100A900044EB01046D1944EB0404521BA3414FF0D5
:100AA000000348BF0A3200D530BD401C41F10001AF
:100AB00030BD00002DE9F0411F46044603260168C1
:100AC000072A01F4006004DB08B116A505E016A5AD
:100AD00003E008B115A500E015A521F01000206085
:100AE000A069C01EA0610FB1401EA0612046AFF3F7
:100AF00000804FB1D4E9012138469047206A401C5C
:100B00002062C01C206206E0206AFAE7D4E90121D5
:100B100015F8010B9047761EF8D22046AFF30080FF
:100B2000BDE8F0814E414E006E616E00494E4600B8
:100B3000696E66002DE9F047814616468AB0354851
:100B400078440DC88DE80D0032487844801C03AC11
:100B50000DC884E80D0041F69B300844372190FB16
:100B6000F1F290FBF1F5A5F1800501FB12041B3CAD
:100B700002D56442012000E00020DFF898A0804602
:100B80000027FA44AAF1BE0A0EE0E0070AD0324676
:100B9000684607EB470101230AEB810100F046FBA1
:100BA0008DE8070064107F1C002CEED1194F7F44A4
:100BB000AE3F19E0E80715D007EB04100DF1180A55
:100BC00090E80E008AE80E00C068F04201D1981942
:100BD00008903246012306A903A800F027FB03ABC7
:100BE00083E807006D10641C002DE3D14FF0010372
:100BF00032466946B8F1000F03A802D000F001FBAD
:100C000001E000F013FBC9E90001C9F808200AB0AF
:100C1000BDE8F087F056000000487047F802002059
:100C20007546FFF7F9FFAE4605006946534620F0CA
:100C30000700854618B020B5FFF714FBBDE820403B
:100C40004FF000064FF000074FF000084FF0000B88
:100C500021F00701AC46ACE8C009ACE8C009ACE83B
:100C6000C009ACE8C0098D46704710B50446AFF323
:100C700000802046BDE81040FFF7DFBA4FF0013C8E
:100C800050F8042B51F8043B9A4221D1A2EB0C03FB
:100C9000934313EACC1317D150F8042B51F8043BBB
:100CA0009A4215D1A2EB0C03934313EACC130BD158
:100CB00050F8042B51F8043B9A4209D1A2EB0C03E3
:100CC000934313EACC13DBD04FF00000704700BF12
:100CD000D01A01BAB1FA81F101F0180122FA01F03B
:100CE000CB40C1F12001DBB2C0B2C01A2CFA01F333
:100CF000D11A914311EAC311E6D170470149182076
:100D0000ABBEFEE72600020070475FEA400C08BF5A
:100D100091F0000F4FEA8C234FEAC12243EA515170
:100D20004FEA1C5018BF00F5F0404FEA300018BFE2
:100D300041F000415FEA6C5C00F02980BCF1FF3FAC
:100D400008BF40F080407047130C06BF12044FF0FC
:100D5000100C4FF0000C130E04BF12020CF1080C23
:100D6000130F04BF12010CF1040C930F04BF920087
:100D70000CF1020CD30F04BF52000CF1010C114610
:100D80004FF00002A0F11F00A0EB0C00704711F023
:100D9000004F08BF704731F000413FF4D5AF0B0C56
:100DA00006BF09044FF0100C4FF0000C0B0E04BFEF
:100DB00009020CF1080C0B0F04BF09010CF1040C23
:100DC0008B0F04BF89000CF1020CCB0F04BF49004C
:100DD0000CF1010CCCF12003A0EB0C0022FA03F380
:100DE00002FA0CF241EA030100F10100704720F021
:100DF0007F4C80EA030023F07F47ACEB070303F549
:100E00007C5300F0004003F1FF032DE980494FEAD5
:100E1000154B09B44FEA144325EA0B4E24EA034864
:100E20000FF2042606EB132749083E785FEA3202E8
:100E300003FB0667C7F5000707FB06F64FEA5437C2
:100E40004FEAD64606F1020607FB066CCCF1005CC1
:100E50004FEA1C472CEA074C07FB06F40CFB06F58F
:100E600004EB15464FEA961634BF00204FF00040C1
:100E70004FEAD13706FB07FC4FEA1C4C0CFB0BF783
:100E8000D21B03FB0CF761EB07010CFB0EF7B0EB79
:100E9000074072EB17420CFB08F734BFA2EB074286
:100EA000B2EB074261EB17414FEA0C444FEA91075E
:100EB00006FB07FC4FEA1C4C0CFB0BF7B0EBC740E2
:100EC00072EB573203FB0CF734BFA2EBC742B2EB15
:100ED000C74261EB57310CFB0EF7B0EBC70072EB6A
:100EE00057720CFB08F734BFA2EBC702B2EBC70284
:100EF00061EB5771039F4FEA816141EA921104EB64
:100F0000CC044FEAD1374FEA826206FB07FC42EA83
:100F100090124FEA80604FEA1C4C0CFB0BF7D21B7F
:100F200003FB0CF761EB07010CFB0EF7B0EB07407E
:100F300072EB17420CFB08F734BFA2EB0742B2EB8F
:100F4000074261EB17414FEA8C554FEA910704EBDA
:100F50009C2406FB07FC4FEA1C4C0CFB0BF7B0EB88
:100F6000C74072EB573203FB0CF734BFA2EBC7420A
:100F7000B2EBC74261EB57310CFB0EF7B0EBC70089
:100F800072EB57720CFB08F734BFA2EBC702B2EB4F
:100F9000C70261EB577115EB4C254FEA816141EABD
:100FA00092114FEA82624FEAD13742EA901206FB71
:100FB00007FC44F100044FEA80604FEA1C4C0CFB34
:100FC0000BF7D21B03FB0CF761EB07010CFB0EF7D1
:100FD000B0EB074072EB17420CFB08F734BFA2EBF3
:100FE0000742B2EB074261EB174115EB1C154FEAC4
:100FF000813141EA92414FEA823242EA90424FEA1D
:1010000080304FEA0C7644F1000448EA03434EEA8C
:101010000B484FF0000EB2EB080C71EB030724BF36
:10102000624639464EEB0E0E4FF0000B001852414F
:1010300049414BEB0B0BB2EB080C71EB03077BF157
:10104000000B24BF624639464EEB0E0E4FF0000BEC
:101050000018524149414BEB0B0BB2EB080C71EB02
:1010600003077BF1000B24BF624639464EEB0E0EA0
:1010700051EA020718BF46F0010616EB0E7655F14D
:10108000000254F1000103D5BDE88901BDE80088E4
:10109000BDE88901BDE80048B619524141EB0101A4
:1010A000A3F10103704780807F7E7D7C7B7A797815
:1010B000777676757473727171706F6E6E6D6C6C1D
:1010C0006B6A6A69686867666665646463636261BF
:1010D0006160605F5F5E5E5D5D5C5C5B5B5A5A5940
:1010E00059585857575656555555545453535252AC
:1010F0005251515050504F4F4F4E4E4D4D4D4C4C04
:101100004C4B4B4B4A4A4A4949494848484747474C
:101110004746464645454544444444434343434289
:10112000424242414141002B9C4630D477002BD0B3
:101130001CB54FEA370703B44FF010004FF0100111
:10114000BAF1000F06D0BCF1000FDCBF40F0080080
:1011500040F008014FF000000FBCBDE810400BF15B
:10116000010BBBF1010F08BF5FEA170722BF12F1A5
:10117000010211F101014FF0004143F1000300F0C1
:10118000004043EA00007047F9D35708D0E746EA29
:10119000064613F1400F4FEA16461FDD13F1200FEC
:1011A000DFBF16430A46002120335B42BED0C3F1A5
:1011B000200746EA064602FA07F74FEA164646EACD
:1011C0000706C3F1200722FA03F201FA07F721FA12
:1011D00003F14FF0000342EA0702A7E746EA0206DE
:1011E00046EA06464FEA164646EA0106BCBF46EA0C
:1011F0000646360C4FF000034FF000024FF000019E
:1012000094E72DE9804C9A46934670B491E83800F3
:1012100007C831EA400C48BF34EA430C03D5FFF756
:10122000E6FDFFF780FFF0BCBDE8008C2DE9804CA7
:101230009A46934670B491E8380007C810F0804F82
:1012400008BF13F0804F03D100F005F8FFF76BFFE4
:10125000F0BCBDE8008C20F07F4780EA030023F05B
:101260007F4C07EB0C03A3F57C5300F00040A3F187
:10127000FE0392F0000F00F0B38095F0000F00F035
:1012800077802DE901494FEA11404FEA144621EADF
:10129000004800FB06FC24EA064708FB06F607FBAD
:1012A00008F800FB07F718EB06484CEB164C4FEA22
:1012B000124B18EB07484FEA15464CEB174022EA51
:1012C0000B4E0BFB06FC25EA06470EFB06F607FB5A
:1012D0000EFE0BFB07F71EEB064E4CEB164C4FF0C9
:1012E00000061EEB074E4CEB174B18EB0B0840F1BA
:1012F000000018EB0E0B58EB000840F100008F1AAD
:101300004FF000013CBFC943661B14BFB5EB040C92
:1013100000213CBFC943F61B4FEA17444EEA8E0E2C
:1013200027EA04454FEA1C4704FB07622CEA074CF6
:1013300005FB07F70CFB05F604FB0CFC16EB074658
:1013400042EB174216EB0C4642EB1C421BEB060627
:1013500058EB0202414146EA9E0601D5BDE80189EB
:10136000B619524141EB0101A3F10103BDE8018926
:101370004FEA14454FEA114724EA054621EA074C93
:1013800005FB07F406FB07F70CFB06F105FB0CFC5D
:1013900011EB074144EB17444FEA124711EB0C41A4
:1013A00044EB1C4422EA074C05FB07F206FB07F757
:1013B0000CFB06F605FB0CFC16EB074642EB17424E
:1013C00016EB0C4642EB1C456A1854F1000148BF6D
:1013D0007047B619524141EB0101A3F10103704777
:1013E00095F0000F37D04FEA11424FEA144721EA37
:1013F000024624EA074C02FB07F106FB07F70CFB49
:1014000006F402FB0CFC14EB074441EB17414FEAD6
:10141000154714EB0C4441EB1C4125EA074C02FB39
:1014200007F506FB07F70CFB06F602FB0CFC16EBB8
:10143000074645EB174516EB0C4645EB1C421219C7
:1014400051F1000148BF7047B619524141EB01010B
:10145000A3F1010370474FEA14454FEA114724EA0C
:10146000054621EA074C05FB07F106FB07F70CFBD5
:1014700006F24FF0000605FB0CFC12EB074241EBB5
:10148000174112EB0C4251EB1C4148BF70479218B8
:1014900041EB0101A3F101037047000010B51048B2
:1014A00000F0C2FB0F49086008460FA102680F4810
:1014B000FEF762FF0D48FEF7E3FF84B24FF0FF3303
:1014C00022460A490A4803F005FA4FF0FF33022288
:1014D0000849074803F0FEF9014800F0A9FB10BDD8
:1014E000C00000200800002025640000EC0200205D
:1014F000680200200500002070B504460025206821
:10150000806800F00300012806D12068006800F020
:10151000010008B1012000E0002080B3206880684D
:1015200000F00D00012800D100E0002050B100BF04
:101530002068806840F002002168886003202168EC
:10154000086009E0206C40F010002064606C40F0FE
:1015500001006064012070BD01F04AF905460FE00A
:1015600001F046F9401B02280AD9206C40F0100017
:101570002064606C40F0010060640120EBE705E04E
:101580002068806800F001000028E9D10020E2E72F
:1015900000BFFEE710B54FF0FF33092208A10B484A
:1015A00003F098F94FF0FF3302220949074803F08E
:1015B00091F904F0F7FB074800F06EFF10BD000042
:1015C0004920414D20484552450000006802002056
:1015D00005000020100100200D4A016891420BD245
:1015E0000C4A0168891A1422B1FBF2F189000164E6
:1015F00008490839C1630AE0054A0168891A1422BA
:10160000B1FBF2F18900016401490839C1637047F7
:101610000804024008000240704710B5802000F026
:10162000EFFF10BD72B600BFFEE77047704770470E
:101630007047000070B594B002460B46002418684D
:1016400000B100BF1068B0F1A04F02D15648009021
:1016500017E0554D1068A84203D14FF0A04000900C
:101660000FE0524D1068A84202D15148009008E0A6
:101670004F4D1068A84202D14C48009001E0002074
:101680000090009810B9012014B070BD00BF92F80E
:101690003C00012801D10220F6E7012082F83C003D
:1016A00000BF10688068C0F38000002870D10098E7
:1016B0008068C0F3800000286AD11068B0F1A04FA4
:1016C00003D0394D1068A84201D13A4800E03A48A9
:1016D0000146186888B392F830005D6845EA4030EA
:1016E0008D6825F46045284388601068806800F0A4
:1016F0000300012806D11068006800F0010008B15D
:10170000012000E00020C8BB0098806800F00300C2
:10171000012806D10098006800F0010008B10120FE
:1017200000E0002050BB9D68186828438D6840F693
:101730001F76B543284388602FE0FFE7886820F4D0
:10174000604088601068806800F00300012806D1BE
:101750001068006800F0010008B1012000E00020DE
:1017600060B90098806800F00300012808D1009853
:10177000006800F0010018B1012002E00DE007E070
:10178000002050B9886840F61F75A843886004E0BF
:10179000106C40F020001064012400BF002082F88B
:1017A0003C0000BF20466FE70001005000040050DD
:1017B000000500500003005000070050F0B595B040
:1017C0000246002500200090C868012800D000E0F3
:1017D00000BF00BF92F83C00012802D1022015B0E2
:1017E000F0BD012082F83C0000BF10688068C0F3A3
:1017F0008000002879D14868052812D21068006B53
:101800000E7906EB460677001F26BE40B0430F79DF
:1018100007EB47077F000E68BE4030431668306311
:1018200043E048680A2814D21068406B0E79761F8E
:1018300006EB460677001F26BE40B0430F797F1F98
:1018400007EB47077F000E68BE40304316687063A1
:101850002BE048680F2814D21068806B0E790A3E7E
:1018600006EB460677001F26BE40B0430F790A3FBD
:1018700007EB47077F000E68BE4030431668B06331
:1018800013E01068C06B0E790F3E06EB460677003A
:101890001F26BE40B0430F790F3F07EB47077F007D
:1018A0000E68BE4030431668F0631068806800F030
:1018B0000C0008B1012000E00020002870D1086869
:1018C0000A2813D3106880690E780A3E06EB460793
:1018D0000726BE40B0430F780A3F07EB47078E68E4
:1018E000BE4030431668B06110E07EE11068406988
:1018F0000E7806EB46070726BE40B0430F7807EB8D
:1019000047078E68BE4030431668706148691668A4
:10191000F668C6F3C106760000FA06F408690128E5
:1019200006D0022812D003281ED0042839D129E07D
:101930001068006EB34E30400E784FF0004747EA13
:101940008666264330431668306663E01068406E52
:10195000AC4E30400E784FF0004747EA866626438B
:1019600030431668706655E01068806EA54E3040B2
:101970000E784FF0004747EA8666264330431668E4
:10198000B06647E01068C06E9E4E30400E784FF053
:10199000004747EA8666264330431668F06639E01A
:1019A00039E01068006E00F0F8400E78B0EB866FFA
:1019B00005D11068006E20F000401668306610688F
:1019C000406E00F0F8400E78B0EB866F05D11068DD
:1019D000406E20F00040166870661068806E00F05F
:1019E000F8400E78B0EB866F05D11068806E20F05D
:1019F00000401668B0661068C06E00F0F8400E78BF
:101A0000B0EB866F05D11068C06E20F000401668FC
:101A1000F06600BF00BF1068806800F00300012876
:101A200006D11068006800F0010008B1012000E054
:101A30000020002871D1C86801280AD01068D0F8A9
:101A4000B0000F780126BE40B0431668C6F8B0005B
:101A500032E01068D0F8B0000F780126BE40304365
:101A60001668C6F8B00008680A2813D3106886699B
:101A70000878093800EB40070720B84026EA000044
:101A80000E78093E06EB46068F68B7403843166865
:101A9000B06111E0106840690E78761C06EB4607CD
:101AA0000726BE40B0430F787F1C07EB47078E68C0
:101AB000BE403043166870611068B0F1A04F03D08B
:101AC000514E1068B04201D1504800E050480346E2
:101AD0000868102803D1986800F4000070B1086805
:101AE000112803D1986800F0807038B10868122876
:101AF00013D1986800F4800000287BD11068B0F101
:101B0000A04F02D14048019018E03F4E1068B0420B
:101B100004D14FF0A040019010E05FE03D4E10680E
:101B2000B04202D13C48019008E03B4E1068B04200
:101B300002D13848019001E00020019010688068CF
:101B400000F00300012806D11068006800F00100D1
:101B500008B1012000E00020C0BB019870B10198DD
:101B6000806800F00300012806D10198006800F0A9
:101B7000010008B1012000E0002038BB08681028EF
:101B800018D11068B0F1A04F14D1986840F400004B
:101B9000986022480068224EB0FBF6F000EB80000F
:101BA0004000009002E00098401E0090009800283D
:101BB000F9D11FE00868112809D11068B0F1A04FD1
:101BC00005D1986840F08070986013E007E00868DD
:101BD00012280FD1986840F4800098600AE0106CD9
:101BE00040F020001064012504E0106C40F020005B
:101BF0001064012500BF002082F83C0000BF284689
:101C0000EDE5000000F0FF830001005000030050EC
:101C1000000700500004005000050050180000208C
:101C200040420F007047704701460868006C7047DB
:101C30002DE9F041044600270025A84620680068E9
:101C400000F00400042805D12068406800F004007A
:101C500004280BD02068006800F0080008287DD117
:101C60002068406800F008000828F8D1206C00F0D7
:101C7000100018B9206C40F4007020642068B0F1A6
:101C8000A04F03D0F7492068884204D1F648006885
:101C900000F01F0003E0F548006800F01F0070B37B
:101CA0002068B0F1A04F03D0EE492068884204D1EB
:101CB000ED48006800F01F0003E0EC48006800F009
:101CC0001F0005281BD02068B0F1A04F03D0E549C4
:101CD0002068884204D1E448006800F01F0003E057
:101CE000E248006800F01F00092808D02068B0F121
:101CF000A04F04D0DC49F8312068884202D1206826
:101D0000C5680DE02068B0F1A04F03D0D549206828
:101D1000884202D14FF0A04001E0D348F830C568B6
:101D20002068C06800F4406008BB05F40050F0B9BA
:101D30002068006800F00800082821D12068806829
:101D4000C0F38000A0B92068406820F00C00216832
:101D50004860206C20F48070206400E016E0206C65
:101D600000F4805018B9206C40F00100206407E0B6
:101D7000206C40F010002064606C40F00100606452
:101D80002046FFF74FFF0C2021680860206800689C
:101D900000F02000202805D12068406800F02000D5
:101DA00020280BD02068006800F0400040287DD13A
:101DB0002068406800F040004028F8D1206C40F4D2
:101DC000005020642068B0F1A04F03D0A5492068DE
:101DD000884204D1A448006800F01F0003E0A34833
:101DE000006800F01F0070B32068B0F1A04F03D06E
:101DF0009C492068884204D19B48006800F01F007D
:101E000003E09A48006800F01F0005281BD02068F6
:101E1000B0F1A04F03D093492068884204D1924882
:101E2000006800F01F0003E09048006800F01F0009
:101E3000092808D02068B0F1A04F04D08A49F831B1
:101E40002068884202D12068C5680DE02068B0F1A2
:101E5000A04F03D083492068884202D14FF0A040B0
:101E600001E08148F830C5682068C06C00F0C0000F
:101E700000287CD105F0007048B12068C06800F4EB
:101E80004060002873D105F4005000286FD120680D
:101E9000006800F0400040287AD12068B0F1A04FDF
:101EA00003D070492068884206D100E076E06E4891
:101EB000006800F01F0003E06C48006800F01F009D
:101EC00070B32068B0F1A04F03D066492068884203
:101ED00004D16548006800F01F0003E06348006813
:101EE00000F01F0006281BD02068B0F1A04F03D0DF
:101EF0005C492068884204D15B48006800F01F00FC
:101F000003E05A48006800F01F00072808D0206846
:101F1000B0F1A04F04D05449F8312068884203D171
:101F20002068D0F80C800EE02068B0F1A04F03D0FC
:101F30004C492068884202D14FF0A04001E04A4855
:101F4000F830D0F80C8008F4001080B92068806860
:101F5000C0F3C000A0B92068406820F0600021688C
:101F60004860206C20F480502064206C00E00FE07A
:101F700000F4807060B9206C40F00100206407E03C
:101F8000206C40F010002064606C40F00100606440
:101F90002046FFF74AFB602021680860206800683F
:101FA00000F0800080280FD12068406800F0800099
:101FB000802809D1206C40F480302064204600F055
:101FC0000BFA8020216808602068006800F48070A7
:101FD000B0F5807F11D12068406800F48070B0F5C2
:101FE000807F0AD1206C40F4003020642046FFF747
:101FF0001EFB4FF48070216808602068006800F4C0
:102000000070B0F5007F11D12068406800F40070C6
:10201000B0F5007F0AD1206C40F480202064204677
:10202000FFF706FB4FF40070216808602068006825
:1020300000F0100010283DD12068406800F010002A
:10204000102837D1606B012801D1012722E02068D8
:10205000B0F1A04F03D003492068884208D102485C
:10206000083806E00001005008030050080700503F
:1020700020480646B06800F01F0030B92068C068EC
:1020800000F0010030B1012704E0B06800F44040E6
:1020900000B10127012F0AD1206C40F48060206438
:1020A000606C40F0020060642046FFF7BCFD102029
:1020B000216808602068006800F48060B0F5806FD7
:1020C00015D12068406800F48060B0F5806F0ED1B3
:1020D000206C40F480402064606C40F00800606434
:1020E0004FF48060216808602046FFF79FFABDE842
:1020F000F081000000070050F0B595B004460026BE
:1021000000250020009014B9012015B0F0BD206911
:1021100018B12020005D00B100BF206C00F010005D
:10212000002853D1206C98BB002060640021E1643A
:10213000A06484F83C00204600F050F920688068D4
:1021400000F0805020BB2046FFF7D6F90646206CF1
:1021500000F01000E0B9DEB9206C20F4885040F0A7
:10216000020020642068806820F040502168886068
:102170002068806840F08050216888608E48006840
:102180008E49B0FBF1F000EB80004000009003E0CE
:1021900005E00098401E009000980028F9D12068C2
:1021A000806800F0805030B12068806800F00050F6
:1021B000B0F1005F0AD1206C20F0020040F0100066
:1021C0002064606C40F0010060640126206C00F027
:1021D000100000287BD1002EFCD120688068C0F35D
:1021E00080000028F6D1206C20F4807040F00200BE
:1021F00020642068B0F1A04F03D071492068884264
:1022000001D1704800E0704807462068B0F1A04F47
:1022100002D16B48019017E069492068884203D1D8
:102220004FF0A04001900FE068492068884202D139
:102230006748019008E066492068884202D16348F7
:10224000019001E0002001902068806800F0030008
:10225000012806D12068006800F0010008B10120C3
:1022600000E00020B0B9019870B10198806800F0DA
:102270000300012806D10198006800F0010008B1B0
:10228000012000E0002028B9B86820F440306168DF
:102290000843B860606B012802D04FF4805100E021
:1022A0000021607E41EA4030E1680843A1680843AC
:1022B00005432020005D012814D1607E40B9A08C28
:1022C000401E4FF4803141EA404005430AE069E096
:1022D000206C20F0020040F020002064606C40F090
:1022E00001006064A06A012822D038492068884231
:1022F00003D037492068884216D1A06AB0F5307FF4
:1023000002D14FF4E07010E0A06AB0F5807F02D1F6
:102310004FF4307009E0A06AB0F5E07F02D14FF4CD
:10232000807002E0A06A00E0A06AE16A0843054309
:102330002068806800F00C0008B1012000E0002057
:1023400068B92068C06844F2020188432168C86007
:10235000207E810394F8300041EA40000543206864
:10236000C0681C49084028432168C86020690128CA
:1023700009D12068006B20F00F00E169491E084375
:102380002168086305E02068006B20F00F002168D9
:10239000086300206064206C20F0020040F001001F
:1023A000206406E0206C20F0020040F01000206461
:1023B00001263046A9E600001800002040420F0028
:1023C00000010050000300500007005000040050BE
:1023D0000005005007C0F0FF7047000010B586B040
:1023E0000446142101A8FEF76AF82068B0F1A04F56
:1023F00049D100BF2548406940F0805023494861D9
:102400000846406900F08050009000BF00BF00BF48
:102410000846406940F4003048610846406900F4CD
:102420000030009000BF00BF022001900320029006
:102430000020039001A94FF0904000F0EFF81448FD
:102440001449086000204860002112488160802102
:10245000C160890001618900416120218161002101
:10246000C16100F08CF808B1FFF7DCF800BF094843
:10247000A063446200BF02220021122000F036FA5D
:10248000122000F023FA06B010BD00000010024038
:10249000080002401001002070B50446E06B05689A
:1024A0002068066894F84010042088402840D0B185
:1024B00006F00400B8B12068006800F0200028B9D8
:1024C0002068006820F004002168086094F840103B
:1024D00004208840E16B4860E06A00284ED0204626
:1024E000E16A88474AE094F840100220884028407A
:1024F00008B306F00200F0B12068006800F0200088
:1025000040B92068006820F00A00216808600120B6
:1025100084F8210094F8401002208840E16B486064
:1025200000BF002084F8200000BFA06A30B320461E
:10253000A16A884722E094F840100820884028408B
:10254000E0B106F00800C8B12068006820F00E0075
:102550002168086094F8401001208840E16B4860D1
:102560000120A06384F8210000BF002084F820002F
:1025700000BF206B10B12046216B884770BD70B53D
:10258000044600250CB9012070BD022084F821000A
:102590002068056843F6F0708543D4E901010843DB
:1025A000E16808432169084361690843A169084358
:1025B000E16908430543206805602046FFF70CF8F1
:1025C0000020A063012084F82100002084F820006E
:1025D00000BFD9E770B5044600F00AF90646254663
:1025E000681C10B104480078054400BF00F000F9F1
:1025F000801BA842FAD370BD140000207047000071
:1026000010B5044604480068204020B10248046028
:102610002046FFF7F3FF10BD1404014078B50346D0
:102620000022CBE0012696400D6805EA0604002C46
:1026300072D04D68012D08D04D68022D05D04D682F
:10264000112D02D04D68122D13D198685600032524
:10265000B540A8435600CD68B540284398605868F7
:1026600001259540A8430D79C5F3001595402843F1
:102670005860D86856000325B540A84356008D68B9
:10268000B5402843D8604D68022D02D04D68122D08
:1026900013D1D60803F1200555F826005507EE0E94
:1026A0000F25B540A8435607F60E0D69B5402843DF
:1026B000D60803F1200545F82600186856000325C2
:1026C000B540A8430D7905F003055600B5402843F1
:1026D00018604D6805F08055B5F1805F6DD100BF81
:1026E000394DAD6945F00105374EB5613546AD69E7
:1026F00005F00105009500BF00BF4FEAB63596080A
:1027000055F8260095072E0F0F25B540A843B3F1C5
:10271000904F02D1002515E04FE02C4DAB4201D186
:1027200001250FE02A4DAB4201D102250AE0294DD7
:10273000AB4201D1032505E0274DAB4201D1042571
:1027400000E005259607360FB5402843234D96082F
:1027500045F82600224D2868A0434D6805F48035D1
:10276000B5F5803F00D120431D4D28602D1D286800
:10277000A0434D6805F40035B5F5003F00D1204376
:10278000174D2D1D28602D1D2868A0434D6805F4A8
:102790008015B5F5801F00D12043114D0835286004
:1027A0002D1D2868A0434D6805F40015B5F5001FE0
:1027B00000D120430A4D0C352860521C0D68D540CD
:1027C000002D7FF42FAF78BD0010024000040048B8
:1027D00000080048000C00480010004808000140B4
:1027E000000401400AB1816100E08162704700008D
:1027F00001480068704700000C0000200348006892
:102800000349097808440149086070470C0000201A
:102810001400002010B50848006840F01000064978
:102820000860032000F0A0F8002000F007F800F096
:102830002BF8002010BD00000020024070B50446B7
:102840000E4800784FF47A71B1FBF0F00C4909683A
:10285000B1FBF0F5284601F009FD08B1012070BD7B
:10286000102C07D200222146501E00F03FF80548E8
:10287000046001E00120F2E70020F0E714000020EE
:10288000180000201000002008B500BF0E48806925
:1028900040F001000C4988610846806900F00100A1
:1028A000009000BF00BF00BF0846C06940F08050E4
:1028B000C8610846C06900F08050009000BF00BFAA
:1028C000072000F051F808BD0010024001460846FC
:1028D000002809DB00F01F0301229A4043099B00F6
:1028E00003F1E023C3F8002100BF70472DE9F05F3A
:1028F00080460D461646002703F00CF90746394678
:102900002A46334601F00700C0F1070ABAF1040F66
:1029100002D94FF0040A01E0C0F1070AD14600F1E4
:10292000040ABAF1070F02D24FF0000A01E0A0F149
:10293000030AD4464FF0010A0AFA09FAAAF1010A79
:102940000AEA020A0AFA0CFA4FF0010B0BFA0CFB26
:10295000ABF1010B0BEA030B4AEA0B04214640469C
:1029600003F0E0F8BDE8F09F00BF00F00702064B5F
:1029700019684FF6FF031940044B0B4343EA022149
:10298000014B196000BF70470CED00E00000FA0534
:10299000F8B50446002600250027206800F48030A2
:1029A000B0F5803F73D1B048C06900F0805070B975
:1029B00000BFAD48C06940F08050AB49C8610846CF
:1029C000C06900F08050009000BF00BF0127A748F9
:1029D000006800F48070B0B9A448006840F48070CA
:1029E000A2490860FFF704FF064606E0FFF700FF74
:1029F000801B642801D90320F8BD9C48006800F4BE
:102A000080700028F2D09848006A00F44075002DCC
:102A10006BD0A08800F44070A84266D09248006A4B
:102A200020F440750121080490FAA0F0B0FA80F07B
:102A30008F4A02EB8000C0F800140020090491FACC
:102A4000A1F1B1FA81F102EB8101C1F800048648DD
:102A5000056205F00100B8B3FFF7CAFE064608E0BC
:102A6000FFF7C6FE801B41F28831884201D903205E
:102A7000C2E74020022191FAA1F1B1FA81F10843A5
:102A80000121B1EB601F03D1774800681FE03BE0F4
:102A90004020022191FAA1F1B1FA81F1084302210B
:102AA000B1EB601F02D17048006A10E040200221A3
:102AB00091FAA1F1B1FA81F108430421B1EB601F51
:102AC00003D16948406802E00FE06748406A40214E
:102AD000022292FAA2F2B2FA82F2114301F01F022C
:102AE0000121914008400028BAD05F48006A20F4D4
:102AF0004070616808435C490862012F04D10846B0
:102B0000C06920F08050C861207800F0010038B121
:102B10005548006B20F00300A16808435249086340
:102B2000207800F00200022807D14F48006B20F403
:102B30004030E16808434C490863207800F0040005
:102B4000042807D14848006B20F44020216908433D
:102B500045490863207800F02000202807D142482A
:102B6000006B20F01000E16908433F4908632068CA
:102B700000F40030B0F5003F07D13B48406820F436
:102B80008000A16B084338494860207800F040007D
:102B9000402807D13448006B20F02000216A084308
:102BA00031490863207800F00800082807D12E4832
:102BB000006B20F44010616908432B4908632078BA
:102BC00000F01000102807D12748006B20F44000C7
:102BD000A169084324490863208800F40070B0F517
:102BE000007F07D12048406820F40000E16A0843D4
:102BF0001D494860207800F08000802807D11A48DD
:102C0000C06A20F4F870616A08431749C8622088D6
:102C100000F48070B0F5807F07D11348C06A20F4BB
:102C20007850A16A08431049C862208800F4805097
:102C3000B0F5805F07D10C48006B20F48070216BE9
:102C4000084309490863208800F40050B0F5005F8C
:102C500007D10548006B20F40070616B08430249FE
:102C600008630020C8E60000001002400070004029
:102C70000000424270B504460D4600260CB9012002
:102C800070BDA248006800F00700A8420ED29F481D
:102C9000006820F0070028439C4908600846006847
:102CA00000F00700A84201D00120E9E7207800F0F9
:102CB0000200022807D19648406820F0F000A16881
:102CC000084393494860207800F0010000287CD038
:102CD000606801283BD12020010391FAA1F1B1FAEB
:102CE00081F108430121B1EB601F02D188480068DF
:102CF0001DE02020010391FAA1F1B1FA81F108430E
:102D00000221B1EB601F02D18148006A0FE0202050
:102D1000010391FAA1F1B1FA81F108430421B1EB69
:102D2000601F02D17A48406801E07948406A20215A
:102D30000A0392FAA2F2B2FA82F2114301F01F02E0
:102D400001219140084000287CD1012098E760686B
:102D500002283BD12020010591FAA1F1B1FA81F1BD
:102D600008430121B1EB601F02D1694800681DE0F2
:102D70002020010591FAA1F1B1FA81F10843022165
:102D8000B1EB601F02D16248006A0FE0202001050C
:102D900091FAA1F1B1FA81F108430421B1EB601F6E
:102DA00002D15B48406801E05948406A20210A0589
:102DB00092FAA2F2B2FA82F2114301F01F0201214B
:102DC00091400840E8BB01205AE758E0202002214A
:102DD00091FAA1F1B1FA81F108430121B1EB601F31
:102DE00002D14B4800681DE02020022191FAA1F198
:102DF000B1FA81F108430221B1EB601F02D14448CE
:102E0000006A0FE02020022191FAA1F1B1FA81F1CC
:102E100008430421B1EB601F02D13D48406801E046
:102E20003B48406A2021022292FAA2F2B2FA82F2D0
:102E3000114301F01F0201219140084008B901200F
:102E40001EE7FFE73248406820F00300616808434E
:102E50002F494860FFF7CCFC064608E0FFF7C8FCA6
:102E6000801B41F28831884201D9032008E72848B5
:102E7000406800F00C006168B0EB810FEED1234890
:102E8000006800F00700A8420ED92048006820F032
:102E9000070028431D4908600846006800F0070045
:102EA000A84201D00120EBE6207800F004000428BD
:102EB00007D11748406820F4E060E16808431449EE
:102EC0004860207800F00800082808D110484068C1
:102ED00020F46050216940EAC1000D49486000F0CB
:102EE00051F80B49496801F0F001F02292FAA2F280
:102EF000B2FA82F2D140074A515CC84006490860E4
:102F000006480068FFF79AFC0020B9E6002002405E
:102F1000001002409E6100081800002010000020F0
:102F200001480068704700001800002000B5FFF756
:102F3000F7FF0749496801F4E0614FF4E06292FA53
:102F4000A2F2B2FA82F2D140024A515CC84000BDFE
:102F500000100240AE61000800B5FFF7E1FF07492D
:102F6000496801F460514FF4605292FAA2F2B2FA49
:102F700082F2D140024A515CC84000BD00100240BC
:102F8000AE6100082DE9F04100240025002700264D
:102F9000A0461F48446804F00C0078B3042802D00F
:102FA00008282CD102E0DFF86C802CE004F47010CB
:102FB0004FF4701191FAA1F1B1FA81F1C8401649AC
:102FC0000E5C1348C06A00F00F000F2191FAA1F1C6
:102FD000B1FA81F1C84011490D5C04F4803040B170
:102FE0002A4600230B481946FDF74EF9A0FB06714F
:102FF00002E00B48A0FB0671B84604E000E000BF09
:10300000DFF8108000BF00BF4046BDE8F08100003F
:103010000010024000127A007E6100088E610008F4
:1030200000093D00F8B504460CB90120F8BD207830
:1030300000F0010000287BD0FA48406800F00C0046
:1030400004280CD0F748406800F00C00082845D14F
:10305000F448406800F48030B0F5803F3ED1202035
:10306000010391FAA1F1B1FA81F108430121B1EB19
:10307000601F02D1EB4800681DE02020010391FA97
:10308000A1F1B1FA81F108430221B1EB601F02D135
:10309000E448006A0FE02020010391FAA1F1B1FA9F
:1030A00081F108430421B1EB601F02D1DD48406883
:1030B00001E0DC48406A20210A0392FAA2F2B2FA47
:1030C00082F2114301F01F020121914008400028C3
:1030D000B1D0606800282BD10120A7E700BF60684D
:1030E000B0F5803F06D1CF48006840F48030CD492C
:1030F000086029E0606858B9CA48006820F4803048
:10310000C84908600846006820F4802008601BE079
:103110006068B0F5A02F0CD1C248006840F4802050
:10312000C04908600846006840F4803008600BE041
:10313000A1E0BC48006820F48030BA490860084625
:10314000006820F48020086000BFB648C06A20F004
:103150000F00A1680843B349C8626068A0B3FFF7D5
:1031600047FB054606E0FFF743FB401B642801D9F7
:1031700003205BE72020010391FAA1F1B1FA81F16C
:1031800008430121B1EB601F02D1A64800681EE090
:103190002020010391FAA1F1B1FA81F10843022143
:1031A000B1EB601F02D19F48006A10E020200103AC
:1031B00091FAA1F1B1FA81F108430421B1EB601F4A
:1031C00003D19848406802E010E09648406A202108
:1031D0000A0392FAA2F2B2FA82F2114301F01F023C
:1031E0000121914008400028BDD044E0FFF700FBDA
:1031F000054606E0FFF7FCFA401B642801D90320CE
:1032000014E72020010391FAA1F1B1FA81F10843FA
:103210000121B1EB601F02D1824800681DE020202F
:10322000010391FAA1F1B1FA81F108430221B1EB56
:10323000601F02D17B48006A0FE02020010391FA51
:10324000A1F1B1FA81F108430421B1EB601F02D171
:103250007448406801E07348406A20210A0392FAEA
:10326000A2F2B2FA82F2114301F01F020121914051
:1032700008400028BED1207800F0020002285CD16E
:103280006848406800F00C0050B16648406800F0A3
:103290000C00082852D16348406800F48030E8BB35
:1032A0002020022191FAA1F1B1FA81F10843012114
:1032B000B1EB601F02D15B4800681DE020200221B5
:1032C00091FAA1F1B1FA81F108430221B1EB601F3B
:1032D00002D15448006A0FE02020022191FAA1F1A6
:1032E000B1FA81F108430421B1EB601F02D14D48CE
:1032F000406801E04B48406A2021022292FAA2F283
:10330000B2FA82F2114301F01F02012191400840FC
:1033100028B12069012802D0012087E60EE041484B
:10332000006820F0F800F82292FAA2F2B2FA82F2D3
:103330006169914008433B490860B1E0206970B37E
:10334000012191FAA1F0B0FA80F0374A42F820103A
:10335000FFF74EFA054606E0FFF74AFA401B02283F
:1033600001D9032062E62020022191FAA1F1B1FAED
:1033700081F108430121B1EB601F02D129480068A7
:103380001EE02020022191FAA1F1B1FA81F1084357
:103390000221B1EB601F03D12248006A10E02CE04B
:1033A0002020022191FAA1F1B1FA81F10843042110
:1033B000B1EB601F02D11B48406801E01948406A28
:1033C0002021022292FAA2F2B2FA82F2114301F013
:1033D0001F020121914008400028BDD0114800681B
:1033E00020F0F800F82292FAA2F2B2FA82F26169B1
:1033F000914008430B49086052E00020012191FAF6
:10340000A1F1B1FA81F1084A42F82100FFF7F0F981
:1034100005460BE0FFF7ECF9401B022806D9032014
:1034200004E6000000100240000042422020022179
:1034300091FAA1F1B1FA81F108430121B1EB601FCA
:1034400002D1FB4800681DE02020022191FAA1F181
:10345000B1FA81F108430221B1EB601F02D1F448B7
:10346000006A0FE02020022191FAA1F1B1FA81F166
:1034700008430421B1EB601F02D1ED48406801E030
:10348000EB48406A2021022292FAA2F2B2FA82F2BA
:10349000114301F01F020121914008400028B9D1D9
:1034A000207800F00800082851D1A06980B30121DC
:1034B00091FAA1F0B0FA80F0DE4A02EB8000C0F889
:1034C0008014FFF795F9054606E0FFF791F9401BD8
:1034D000022801D90320A9E56020022191FAA1F177
:1034E000B1FA81F108430121B1EB601F02D1D0484C
:1034F00000681EE06020022191FAA1F1B1FA81F189
:1035000008430221B1EB601F03D1C948006A10E0F3
:103510001EE06020022191FAA1F1B1FA81F1084385
:103520000421B1EB601F02D1C148406801E0C048EE
:10353000406A6021022292FAA2F2B2FA82F21143A8
:1035400001F01F020121914008400028BDD04FE04A
:103550000020012191FAA1F1B1FA81F1B54A02EB03
:103560008101C1F88004FFF743F9054606E0FFF743
:103570003FF9401B022801D9032057E560200221B2
:1035800091FAA1F1B1FA81F108430121B1EB601F79
:1035900002D1A74800681DE06020022191FAA1F144
:1035A000B1FA81F108430221B1EB601F02D1A048BA
:1035B000006A0FE06020022191FAA1F1B1FA81F1D5
:1035C00008430421B1EB601F02D19948406801E033
:1035D0009748406A6021022292FAA2F2B2FA82F27D
:1035E000114301F01F020121914008400028BED183
:1035F000207800F00400042873D100278C48C069AB
:1036000000F0805070B900BF8948C06940F0805018
:103610008749C8610846C06900F08050009000BF2B
:1036200000BF01278448006800F48070B0B9824868
:10363000006840F4807080490860FFF7D9F80546BB
:1036400006E0FFF7D5F8401B642801D90320EDE41C
:103650007948006800F480700028F2D000BFE0686C
:10366000012806D17248006A40F0010070490862E2
:1036700027E0E06858B96E48006A20F001006C4904
:1036800008620846006A20F00400086219E0E06859
:1036900005280BD16648006A40F0040064490862BE
:1036A0000846006A40F0010008620AE06048006ACB
:1036B00020F001005E4908620846006A20F004001C
:1036C000086200BFE068B8B3FFF792F8054609E06A
:1036D000FFF78EF8401B41F28831884202D903205F
:1036E000A4E48BE04020022191FAA1F1B1FA81F12A
:1036F00008430121B1EB601F02D14D4800681EE074
:103700004020022191FAA1F1B1FA81F1084302218E
:10371000B1EB601F02D14648006A10E04020022150
:1037200091FAA1F1B1FA81F108430421B1EB601FD4
:1037300003D13F48406802E010E03D48406A402124
:10374000022292FAA2F2B2FA82F2114301F01F02AF
:103750000121914008400028BAD046E0FFF748F820
:10376000054608E0FFF744F8401B41F288318842E3
:1037700001D903205AE44020022191FAA1F1B1FAC3
:1037800081F108430121B1EB601F02D12848006894
:103790001DE04020022191FAA1F1B1FA81F1084324
:1037A0000221B1EB601F02D12148006A0FE04020E6
:1037B000022191FAA1F1B1FA81F108430421B1EBA0
:1037C000601F02D11A48406801E01948406A402150
:1037D000022292FAA2F2B2FA82F2114301F01F021F
:1037E0000121914008400028BCD1012F05D110488B
:1037F000C06920F080500E49C86100BFE069002810
:1038000074D00B48406800F00C0008286FD0E069C5
:1038100002286DD100204FF0807191FAA1F1B1FA28
:1038200081F1044A42F82100FEF7E2FF05460CE070
:10383000001002400000424200700040FEF7D8FF36
:10384000401B022801D9032047E42020010591FAFA
:10385000A1F1B1FA81F108430121B1EB601F02D15E
:10386000774800681DE02020010591FAA1F1B1FA26
:1038700081F108430221B1EB601F02D17048006A58
:103880000FE02020010591FAA1F1B1FA81F108437E
:103890000421B1EB601F02D16948406801E068482B
:1038A000406A20210A0592FAA2F2B2FA82F211438A
:1038B00001F01F020121914008400028BED1D4E947
:1038C000081008435E49496821F4741108435C49B3
:1038D00048600120010691FAA1F1B1FA81F1594A3B
:1038E00042F82100FEF784FF054609E0A5E092E0DA
:1038F00041E0FEF77DFF401B022801D9032038E498
:103900002020010591FAA1F1B1FA81F108430121CA
:10391000B1EB601F02D14A4800681DE0202001057C
:1039200091FAA1F1B1FA81F108430221B1EB601FD4
:1039300002D14348006A0FE02020010591FAA1F16D
:10394000B1FA81F108430421B1EB601F02D13C4878
:10395000406801E03A48406A20210A0592FAA2F242
:10396000B2FA82F2114301F01F0201219140084096
:103970000028BED061E000204FF0807191FAA1F1E3
:10398000B1FA81F12F4A42F82100FEF731FF0546D6
:1039900006E0FEF72DFF401B022801D903202FE48B
:1039A0002020010591FAA1F1B1FA81F1084301212A
:1039B000B1EB601F02D1224800681DE02020010504
:1039C00091FAA1F1B1FA81F108430221B1EB601F34
:1039D00002D11B48006A0FE02020010591FAA1F1F5
:1039E000B1FA81F108430421B1EB601F02D1144800
:1039F000406801E01248406A20210A0592FAA2F2CA
:103A0000B2FA82F2114301F01F02012191400840F5
:103A10000028BED111E0E069012800D17DE408480A
:103A2000466806F48031206A814204D106F47011A0
:103A3000606A814201D001206FE400206DE4000043
:103A4000001002400000424270B504460CB901204B
:103A500070BD606A38B96068B0F5827F00D105E05A
:103A60000021E16102E00021216161610021A16288
:103A700094F85D0028B9002084F85C00204600F02E
:103A800061F8022084F85D002068006820F04000A2
:103A900021680860E068B0F5E06F01D9002501E019
:103AA0004FF48055E068B0F5706F05D0E068B0F570
:103AB000E06F01D00021A162A08800F4827021890A
:103AC00001F404410843217C01F002010843217DF7
:103AD00001F001010843218B01F400710843217FAB
:103AE00001F0380108432021095D01F080010843FD
:103AF000218D01F400510843216808600421A06968
:103B000001EA104094F8241001F01001084394F8E1
:103B1000341001F008010843A18901F470610843E1
:103B200005F480510843216848602068C06920F48A
:103B300000602168C86100202066012084F85D00D3
:103B4000002085E710B586B00446142101A8FCF7D3
:103B5000B6FC2F49206888422AD100BF2D488069D1
:103B600040F480502B4988610846806900F48050F9
:103B7000009000BF00BF00BF0846406940F400301D
:103B800048610846406900F40030009000BF00BF63
:103B9000E020019002200290002003900320049076
:103BA0000520059001A94FF09040FEF737FD2DE06C
:103BB00019492068884229D100BF1648C06940F4DD
:103BC00080401449C8610846C06900F480400090F4
:103BD00000BF00BF00BF0846406940F48020486134
:103BE0000846406900F48020009000BF00BF4FF4F9
:103BF0006040019002200290002003900320049076
:103C00000520059001A90548FEF708FD06B010BD86
:103C1000003001400010024000380040000400481D
:103C20002DE9F8430446884616461D464FF0000924
:103C30006068B0F5827F0DD1A06858B9042084F87F
:103C40005D003346424641462046009500F0B0F9FB
:103C5000BDE8F88300BF94F85C00012801D1022080
:103C6000F6E7012084F85C0000BFFEF7C1FD0746BF
:103C700094F85D00012802D04FF0020999E0B8F1F4
:103C8000000F00D016B94FF0010992E0042084F82B
:103C90005D0000202066C4F84080A4F84460A4F8C9
:103CA0004660A063A087E087E0642065E068B0F527
:103CB000E06F06D92068406820F480502168486091
:103CC00005E02068406840F4805021684860A068A2
:103CD000B0F5004F0BD12068006820F0400021684B
:103CE00008602068006820F480402168086020682F
:103CF000006800F04000402805D02068006840F0CF
:103D0000400021680860E068B0F5E06F22D81CE050
:103D10002068806800F0010060B12068007B216CA1
:103D20000870206C401C2064B4F84600401EA4F8C3
:103D300046000AE0FEF75CFDC01BA84201D3681CE8
:103D400000B915B94FF0030933E0B4F84600002874
:103D5000DED121E01CE02068806800F0010060B145
:103D60002068C068216C0880206C801C2064B4F836
:103D70004600401EA4F846000AE0FEF739FDC01BCD
:103D8000A84201D3681C00B915B94FF0030910E02F
:103D9000B4F846000028DED13A462946204601F014
:103DA00052F808B120202066206E08B14FF00109BA
:103DB00000BF012084F85D0000BF002084F85C0093
:103DC00000BF484644E72DE9F84F044688461646AA
:103DD0001D464FF0000A00BF94F85C00012802D194
:103DE0000220BDE8F88F012084F85C0000BFFEF7D8
:103DF000FFFC0746B14694F85D00012802D04FF061
:103E0000020ACBE0B8F1000F00D016B94FF0010A5A
:103E1000C4E0032084F85D0000202066C4F83880E8
:103E2000A687E6872064A4F84400A4F8460020652D
:103E3000E064A068B0F5004F0BD12068006820F066
:103E40004000216808602068006840F480402168D4
:103E500008602068006800F04000402805D0206815
:103E6000006840F0400021680860E068B0F5E06F4D
:103E70002FD9606810B1B9F1010F09D1A06B00888A
:103E80002168C860A06B801CA063E08F401EE087A3
:103E90001BE02068806800F0020002280AD1A06BB5
:103EA00000882168C860A06B801CA063E08F401E62
:103EB000E0870AE0FEF79CFCC01BA84201D3681C07
:103EC00000B915B94FF0030A68E0E08F0028E0D18F
:103ED0004AE0606810B1B9F1010F17D1E08F0128F5
:103EE0000AD9A06B00882168C860A06B801CA06301
:103EF000E08F801EE08709E0A06B007821680873DE
:103F0000A06B401CA063E08F401EE08729E0206882
:103F1000806800F00200022818D1E08F01280AD939
:103F2000A06B00882168C860A06B801CA063E08F34
:103F3000801EE08715E0A06B007821680873A06BF5
:103F4000401CA063E08F401EE0870AE0FEF750FCB3
:103F5000C01BA84201D3681C00B915B94FF0030A71
:103F60001CE0E08F0028D2D13A462946204600F0D6
:103F7000ABFF08B120202066A06850B900BF002028
:103F800000902068C068009020688068009000BFA2
:103F900000BF206E08B14FF0010A00BF012084F875
:103FA0005D0000BF002084F85C0000BF504618E7A9
:103FB0002DE9FF5F0446894692461D460E9E01206C
:103FC00001900020009000BF94F85C00012803D10C
:103FD000022004B0BDE8F09F012084F85C0000BF1F
:103FE000FEF706FC074694F85D00029060680390B7
:103FF000A846AB46029801280BD00398B0F5827F03
:1040000004D1A06810B90298042802D002200090C0
:1040100022E1B9F1000F03D0BAF1000F00D015B9B9
:104020000120009018E194F85D00042802D00520DA
:1040300084F85D0000202066C4F840A0A4F8465033
:10404000A4F84450C4F83890E587A587E06420655B
:10405000E068B0F5E06F02D8BBF1010F06D9206827
:10406000406820F480502168486005E0206840687E
:1040700040F48050216848602068006800F04000EB
:10408000402805D02068006840F0400021680860A2
:10409000E068B0F5E06F4ED9606810B1B8F1010F7B
:1040A00009D1A06B00882168C860A06B801CA06348
:1040B000E08F401EE08736E02068806800F0020054
:1040C000022810D1E08F70B1019801280BD1A06BAC
:1040D00000882168C860A06B801CA063E08F401E30
:1040E000E087002001902068806800F0010080B126
:1040F000B4F8460068B12068C068216C0880206C64
:10410000801C2064B4F84600401EA4F8460001203C
:104110000190FEF76DFBC01BB04204D3701C10B1C0
:104120000320009098E0E08F0028C5D1B4F8460045
:104130000028C1D185E0606810B1B8F1010F17D136
:10414000E08F01280AD9A06B00882168C860A06BA5
:10415000801CA063E08F801EE08709E0A06B0078E0
:1041600021680873A06B401CA063E08F401EE087AD
:1041700060E02068806800F0020002281ED1E08F15
:10418000E0B10198012819D1E08F01280AD9A06B6C
:1041900000882168C860A06B801CA063E08F801E2F
:1041A000E08709E0A06B007821680873A06B401CD1
:1041B000A063E08F401EE0870020019020688068A7
:1041C00000F0010058B3B4F8460040B3B4F846001C
:1041D000012816D92068C068216C0880206C801CDA
:1041E0002064B4F84600801EA4F84600B4F84600E7
:1041F000012812D82068406840F480502168486047
:104200000BE02068007B216C0870206C401C20644F
:10421000B4F84600401EA4F8460001200190FEF7C5
:10422000E7FAC01BB04201D3701C00B916B90320D5
:10423000009011E0E08F00289BD1B4F846000028E0
:1042400097D13A463146204600F03EFE18B1012093
:1042500000902020206600BF012084F85D0000BF90
:10426000002084F85C0000BF0098B2E670B50446F8
:104270002546681EB0F1807F01D301200FE0681E43
:104280004FF0E02148610F214FF0FF3001F04AFC70
:1042900000204FF0E021886107200861002070BDF8
:1042A00010B50346002200BF93F83C00012801D15D
:1042B000022010BD012083F83C0000BF22F0FF0067
:1042C000CC6840EA040222F440708C6840EA0402A0
:1042D00022F480604C6840EA040222F400600C681A
:1042E00040EA040222F480500C6940EA040222F4FD
:1042F00000504C6940EA040222F480408C6A40EA93
:10430000040222F470200C8B40EA04420F4C18681F
:10431000A04203D00E4C1868A0420ED122F47000C7
:104320008C8C40EA045222F08070CC6940EA04028E
:1043300022F000700C6A40EA04021868426400BF70
:10434000002083F83C0000BF00BFB2E7002C014012
:104350000034014030B502460B4600BF92F83C00E5
:10436000012801D1022030BD012082F83C0000BFAD
:10437000022082F83D0010684168106884681D4D75
:104380001068A84203D01C4D1068A84203D121F444
:1043900070015868014321F07001186801431068EA
:1043A0004160144D1068A84213D01068B0F1804FDE
:1043B0000FD0124D1068A8420BD0114D1068A842C2
:1043C00007D00D4D1068A84203D00E4D1068A842CA
:1043D00005D124F0800498680443106884600120AB
:1043E00082F83D0000BF002082F83C0000BF00BF03
:1043F000B9E70000002C01400034014000040040F7
:10440000000800400040014010B504460CB90120EE
:1044100010BD94F83D0028B9002084F83C002046E7
:1044200000F02AF8022084F83D00211D206800F0E9
:10443000B3FE012084F8480000BF84F83E0001214B
:104440003F20015540200155412001554220015592
:104450004320015500BF00BF012084F844004520DF
:104460000155462001554720015500BF012084F821
:104470003D000020CCE7000008B5094A01689142E0
:104480000DD100BF0749896941F40061054A916176
:104490001146896901F40061009100BF00BF08BDA9
:1044A000002C0140001002402DE9F04104460D4669
:1044B00000BF94F83C00012802D10220BDE8F08141
:1044C000012084F83C0000BF022084F83D002068F1
:1044D00086683748064026F47F462068866028684C
:1044E000502833D00CDC202850D004DC00284BD0DE
:1044F000102851D149E0302849D040284CD139E02A
:1045000060282DD0702807D0B0F5805F03D0B0F5BB
:10451000005F41D10DE040E0D5E902136A682068F0
:1045200000F098FE2068866846F07706206886606E
:1045300033E0D5E902136A68206800F08BFE20683A
:10454000806840F480402168886026E0EA686968F5
:10455000206801F047F85021206800F086FE1CE03A
:10456000EA686968206801F050F86021206800F06E
:104570007CFE12E0EA686968206801F033F84021A7
:10458000206800F072FE08E000BF00BF00BF29688D
:10459000206800F06AFE00E000BF00BF012084F840
:1045A0003D0000BF002084F83C0000BF00BF85E74D
:1045B00088FFFEFF10B586B00446142101A8FBF762
:1045C0007EFF1049206888421AD100BF0E4840691A
:1045D00040F400100C4948610846406900F400109E
:1045E000009000BF00BF48150190022002900020FB
:1045F000039004900220059001A90448FEF70EF8EC
:1046000006B010BD002C0140001002400010004810
:1046100070B504460D46164600BF94F83C000128CC
:1046200001D1022070BD012084F83C0000BF0C2E97
:1046300051D005DC4EB1042E1ED0082E7AD133E0C5
:10464000102E60D0142EF9D175E02946206800F0B4
:1046500015FE2068806940F00800216888612068A4
:10466000806920F0040021688861206880692969D8
:1046700008432168886177E02946206800F054FEED
:104680002068806940F40060216888612068806942
:1046900020F480602168886120688069296940EA87
:1046A0000120216888615FE02946206800F096FEBD
:1046B0002068C06940F008002168C8612068C069AE
:1046C00020F004002168C8612068C0692969084396
:1046D0002168C86148E02946206800F0D9FE2068BA
:1046E000C06940F400602168C8612068C06920F496
:1046F00080602168C8612068C069296940EA01209A
:104700002168C86130E02946206800F0FBFE20687F
:10471000406D40F00800216848652068406D20F039
:104720000400216848652068406D296908432168B4
:10473000486519E017E02946206800F01BFF206853
:10474000406D40F40060216848652068406D20F4A9
:104750008060216848652068406D296940EA012031
:104760002168486500E000BF00BF00BF002084F85A
:104770003C0000BF00BF55E710B504460CB901204E
:1047800010BD94F83D0028B9002084F83C00204674
:1047900000F029F8022084F83D00211D206800F077
:1047A000FBFC012084F8480000BF84F83E00012192
:1047B0003F2001554020015541200155422001551F
:1047C0004320015500BF00BF012084F8440045206C
:1047D0000155462001554720015500BF012084F8AE
:1047E0003D000020CCE7704710B504460CB901200D
:1047F00010BDA06900B100E000BFA06F28B9002083
:1048000084F87400204600F029F82420A06720686E
:10481000006820F0010021680860204600F0BEFF1B
:10482000012800D1E4E7606A10B1204600F001FFE2
:104830002068406820F490402168486020688068C3
:1048400020F02A00216888602068006840F001009C
:1048500021680860204600F068FFC9E710B586B0FF
:104860000446142101A8FBF72AFE18492068884253
:104870002AD100BF1648806940F4804014498861FD
:104880000846806900F48040009000BF00BF00BF70
:104890000846406940F4003048610846406900F429
:1048A0000030009000BF00BF4FF4C06001900220B4
:1048B000029000200390032004900720059001A996
:1048C0004FF09040FDF7AAFE06B010BD0038014041
:1048D000001002402DE9F84F04460E46174699464F
:1048E000A06F20285DD106B117B90120BDE8F88F6F
:1048F00000BF94F87400012801D10220F6E70120DE
:1049000084F8740000BF0020503420632120A0628E
:10491000FDF76EFF824627806780503CA068B0F5A7
:10492000805F04D1206910B90025B04602E0354609
:104930004FF0000800BF002084F8740000BF1DE0A5
:104940005346002280212046CDF8009001F06CF8FB
:1049500008B10320CAE745B9B8F80000C0F3080061
:104960002168088508F1020803E028782168088595
:104970006D1CB4F85200401EA4F85200B4F8520066
:104980000028DDD15346002240212046CDF800907A
:1049900001F04AF808B10320A8E72020A067002012
:1049A000A4E70220A2E700BFFEE7000000B589B03F
:1049B000002006900790089018216846FBF77FFDBD
:1049C0004FF0A0401D4908600020486000211B48AE
:1049D0008160016101214176002180F82010C162CF
:1049E000012181620021C1600121C16180F8301084
:1049F00004214161002101764163FDF77DFB08B18F
:104A0000FCF710FE0020069006A90C48FCF712FEE9
:104A100008B1FCF707FE0220009001200190002061
:104A2000039002900490059069460448FCF7C6FE86
:104A300008B1FCF7F7FD09B000BD0000C000002080
:104A400008B500BF0A48406940F0010008494861C4
:104A50000846406900F00100009000BF00BF00223E
:104A600011460B20FDF742FF0B20FDF72FFF08BD7D
:104A70000010024000B587B0142102A8FBF71FFD0B
:104A800000BF7248406940F4001070494861084610
:104A9000406900F40010019000BF00BF00BF08464D
:104AA000406940F4002048610846406900F4002055
:104AB000019000BF00BF00BF0846406940F480007D
:104AC00048610846406900F48000019000BF00BFC3
:104AD00000BF0846406940F400304861084640691C
:104AE00000F40030019000BF00BF00BF08464069DD
:104AF00040F4802048610846406900F4802001901D
:104B000000BF00BF00BF0846406940F48010486104
:104B10000846406900F48010019000BF00BF0022E9
:104B20004FF608514A48FDF75DFE00224FF48051D0
:104B30004848FDF757FE3720029047480390002071
:104B4000049002A94248FDF769FD4FF60850029013
:104B50000120039000200490059002A93C48FDF735
:104B60005DFD0120029000200390049002A94FF007
:104B70009040FDF753FD80200290384803900220BA
:104B8000049002A93248FDF749FD4FF4805002908D
:104B90000120039000200490059002A92D48FDF704
:104BA0003DFD4FF4805002900220039000200490BD
:104BB00005900220069002A92948FDF72FFD4FF429
:104BC0007070029002200390002004900590022053
:104BD000069002A92348FDF721FD4FF48070029052
:104BE000022003900020049005900A20069002A95C
:104BF0004FF09040FDF712FD4FF4C050029002209C
:104C0000039000200490032005900E20069002A936
:104C10004FF09040FDF702FD4FF4407002901220DB
:104C2000039001200490032005900420069002A91F
:104C30000848FDF7F3FC012200211720FDF756FE7E
:104C40001720FDF743FE07B000BD00000010024032
:104C5000001000480004004800001210000011106D
:104C6000000C00480008004810B5124812490860BE
:104C70004FF48270486000210F4881604FF4E0617A
:104C8000C1600021016141614FF4007181612821FF
:104C9000C16100210162416281620721C16200217C
:104CA000016308214163FEF7CFFE08B1FCF7BAFCAF
:104CB00010BD0000003001405401002010B5124822
:104CC000124908604FF48270486000210F488160EB
:104CD0004FF4E061C1600021016141614FF4007156
:104CE00081612021C161002101624162816207214D
:104CF000C1620021016308214163FEF7A5FE08B1EE
:104D0000FCF790FC10BD000000380040B801002006
:104D100000B599B000201590169017901890129039
:104D2000139014901C210BA8FBF7C9FB2C2168469B
:104D3000FBF7C5FB2F483049086000204860002180
:104D40002D4881604FF41071C16000210161416103
:104D500080218161FFF758FB08B1FCF763FC4FF439
:104D60008050159015A92448FFF79EFB08B1FCF769
:104D700059FC2148FFF700FD08B1FCF753FC002067
:104D800012901390149012A91B48FFF7E3FA08B190
:104D9000FCF748FC60200B9000200C900D900E90CA
:104DA0000F901090119000220BA91348FFF730FCD0
:104DB00008B1FCF737FC00200090019002900390AE
:104DC00004904FF4005005900020069007904FF09B
:104DD00000700890002009900A9069460648FFF785
:104DE0005FFA08B1FCF71EFC0348FFF7E3FB19B0BC
:104DF00000BD0000002C01401C02002010B50D4831
:104E00000D4908604FF4E130486000210A48816094
:104E1000C16001610C21416100218161C1610162B8
:104E20000020054948620846FFF7DEFC08B1FCF7A0
:104E3000F9FB10BD003801406802002000BFFEE70A
:104E400000BFFEE77047F8B504460E461546606899
:104E5000B0F5827F0DD1A068B0F5004F03D0A068F7
:104E6000B0F5806F05D12068006820F0400021680F
:104E700008603346002280212046009500F0C8F8E3
:104E800028B1206E40F0200020660320F8BD606845
:104E9000B0F5827F16D1A068B0F5004F03D0A068AE
:104EA000B0F5806F0ED1334600224FF4C06120462A
:104EB000009500F03BF828B1206E40F020002066FD
:104EC0000320E3E70020E1E7F8B504460E46154667
:104ED000334600224FF4C0512046009500F026F8DA
:104EE00028B1206E40F0200020660320F8BD334634
:104EF000002280212046009500F08AF828B1206E1B
:104F000040F0200020660320F0E7334600224FF4F3
:104F1000C0612046009500F009F828B1206E40F0ED
:104F2000200020660320E1E70020DFE72DE9F84FAD
:104F300004460D4616469846DDF82890FDF758FCC5
:104F4000A0EB0900A8EB0007FDF752FC82462F48B2
:104F50000068C0EBC00000EB8000000D78430090BB
:104F60004CE0B5F5C06F02D10EB92068007B08F1A6
:104F70000100002842D0FDF73BFCA0EB0A00B8423C
:104F800000D2A7BB2068406820F0E000216848609C
:104F90006068B0F5827F0DD1A068B0F5004F03D0F6
:104FA000A068B0F5806F05D12068006820F040004F
:104FB00021680860A06AB0F5005F0DD100BF2068CD
:104FC000006820F40050216808602068006840F400
:104FD00000502168086000BF012084F85D0000BF18
:104FE000002084F85C0000BF0320BDE8F88FFFE7D5
:104FF000009800B900270098401E00902068806843
:105000002840B042ADD10020EFE70000180000209A
:105010002DE9F84F04460D4690461E46DDF82890CF
:10502000FDF7E6FBA0EB0900371AFDF7E1FB82462E
:105030002C480068C0F3CB307843009045E0701CEA
:10504000002842D0FDF7D4FBA0EB0A00B84200D202
:10505000A7BB2068406820F0E000216848606068D5
:10506000B0F5827F0DD1A068B0F5004F03D0A068E5
:10507000B0F5806F05D12068006820F040002168FD
:105080000860A06AB0F5005F0DD100BF206800681D
:1050900020F40050216808602068006840F4005047
:1050A0002168086000BF012084F85D0000BF002077
:1050B00084F85C0000BF0320BDE8F88FFFE700988C
:1050C00000B900270098401E0090206880682840A2
:1050D000A84201D1012000E000204045AFD10020CE
:1050E000EAE7000018000020704710B5FDF786FBC6
:1050F00010BD00B59FB0282115A8FBF7E0F91421D9
:1051000010A8FBF7DCF93C2101A8FBF7D8F9012036
:1051100015904FF4A02016900020179001201990B0
:1051200002201C90C1031D914FF4E0111E9115A89F
:10513000FDF778FF08B1FCF775FA0F2010900220F8
:105140001190002012904FF4806013900020149072
:10515000022110A8FDF78EFD08B1FCF763FA41F2B9
:1051600081000190002003904FF480700A9000208D
:105170000D9001A8FDF70CFC08B1FCF753FA1FB025
:1051800000BD00000348006840F470000149086059
:105190007047000088ED00E010B50268264B984289
:1051A0000BD0B0F1804F08D0244B984205D0244B4F
:1051B000984202D0234B984203D122F070024B68F0
:1051C0001A431D4B984214D0B0F1804F11D01B4BA5
:1051D00098420ED01A4B98420BD01A4B984208D0E6
:1051E000194B984205D0194B984202D0184B98425F
:1051F00003D122F44072CB681A4322F080034C6939
:1052000043EA040202608B68C3620B6883620A4B44
:1052100098420BD00B4B984208D00B4B984205D0CC
:105220000A4B984202D00A4B984201D10B690363A2
:105230000123436110BD0000002C01400004004028
:10524000000800400034014000400140004401409B
:105250000048014030B50C46816821F47F4142EAA4
:10526000032525432943816030BD0A46816821F02A
:10527000700142F0070319438160704730B5056A39
:1052800025F001050562026A43688469204D2C40BF
:1052900024F003040D682C4322F002028D682A4397
:1052A0001C4DA84200D10FE01B4DA84200D10BE0DD
:1052B0001A4DA84200D107E0194DA84200D103E0E1
:1052C000184DA84206D100BF22F00802CD682A433B
:1052D00022F004020F4DA8420BD00F4DA84208D077
:1052E0000E4DA84205D00E4DA84202D00D4DA84249
:1052F00007D123F4807323F400734D692B438D6928
:105300002B43436084614D684563026230BD0000F9
:105310008FFFFEFF002C014000340140004001409F
:10532000004401400048014030B5056A25F01005F1
:105330000562026A43688469224D2C4024F440745B
:105340000D6844EA052422F020028D6842EA051225
:105350001D4DA84200D10FE01C4DA84200D10BE02A
:105360001B4DA84200D100BF1A4DA84200D100BF7A
:10537000194DA84207D106E022F08002CD6842EA2A
:10538000051222F04002104DA8420BD00F4DA8424A
:1053900008D00F4DA84205D00E4DA84202D00E4DA8
:1053A000A84209D123F4806323F400634D6943EAE2
:1053B00085038D6943EA8503436084614D68856395
:1053C000026230BDFF8FFFFE002C0140003401401F
:1053D00000400140004401400048014030B5056AEA
:1053E00025F480750562026A4368C469224D2C4029
:1053F00024F003040D682C4322F400728D6842EA05
:1054000005221E4DA84200D10FE01D4DA84200D13B
:105410000BE01C4DA84200D100BF1B4DA84200D19B
:1054200000BF1A4DA84207D106E022F40062CD6801
:1054300042EA052222F48062104DA8420BD0104DA2
:10544000A84208D00F4DA84205D00F4DA84202D067
:105450000E4DA84209D123F4805323F400534D6923
:1054600043EA05138D6943EA05134360C4614D683F
:10547000C563026230BD00008FFFFEFF002C0140BB
:105480000034014000400140004401400048014018
:1054900030B5056A25F480550562036A4468C2691F
:1054A000124D2A4022F440720D6842EA052223F48C
:1054B00000538D6843EA05330D4DA8420BD00D4DC6
:1054C000A84208D00C4DA84205D00C4DA84202D0ED
:1054D0000B4DA84204D124F480444D6944EA85145C
:1054E0004460C2614D680564036230BDFF8FFFFEFA
:1054F000002C0140003401400040014000440140C4
:105500000048014030B5056A25F480350562026A1D
:105510004368446D114D2C400D682C4322F4003239
:105520000D8942EA05420E4DA8420BD00D4DA8420E
:1055300008D00D4DA84205D00C4DA84202D00C4D0C
:10554000A84204D123F480334D6943EA0523436024
:1055500044654D688565026230BD00008FFFFEFF27
:10556000002C014000340140004001400044014053
:105570000048014030B5056A25F480150562026ACD
:105580004368446D114D2C400D6844EA052422F413
:1055900000120D8942EA05520D4DA8420BD00D4D67
:1055A000A84208D00C4DA84205D00C4DA84202D00C
:1055B0000B4DA84204D123F480234D6943EA85238F
:1055C000436044654D68C565026230BDFF8FFFFED4
:1055D000002C0140003401400040014000440140E3
:1055E0000048014030B50B461446026A056A25F0B2
:1055F00001050562816921F0F00141EA041122F000
:105600000A021A438161026230BD30B50B4614466E
:10561000056A25F0100505628169026A21F470416E
:1056200041EA043122F0A00242EA031281610262DF
:1056300030BD90F8241001F0010139B101684968CA
:1056400021F40031826A11430268516090F82410FD
:1056500001F00201022907D10168496821F4803173
:10566000C26A11430268516090F8241001F00401ED
:10567000042907D10168496821F48021026B114394
:105680000268516090F8241001F00801082907D140
:105690000168496821F40041426B1143026851607E
:1056A00090F8241001F01001102907D101688968D1
:1056B00021F48051826B11430268916090F82410AC
:1056C00001F02001202907D10168896821F40051E7
:1056D000C26B11430268916090F8241001F0400100
:1056E000402913D10168496821F48011026C1143EB
:1056F00002685160016CB1F5801F07D101684968EB
:1057000021F4C001426C11430268516090F82410EA
:1057100001F08001802907D10168496821F4002146
:10572000826C114302685160704738B5044600200E
:10573000C4F88000FDF75CF805462068006800F0BA
:10574000080008280CD16FF07E402B4600224FF451
:1057500000110090204600F067F908B1032038BD21
:105760002068006800F0040004280CD16FF07E402F
:105770002B4600224FF480010090204600F054F99F
:1057800008B10320EBE72020A067E0670020206637
:1057900000BF84F8740000BF00BFE0E72DE9F047C8
:1057A00005464FF0000A2969A8680843696908435B
:1057B000E96940EA01082868006849F20C618843F9
:1057C00040EA0800296808602868406820F44050D2
:1057D000E968084329684860D5F81880286A40EAD3
:1057E00008082868806820F4306040EA08002968CA
:1057F000886000BF85492868884216D18448006BBC
:1058000000F0030030B1012808D0022808D0032896
:1058100008D101E0012407E0022405E0042403E0AC
:10582000082401E0102400BF78E07A492868884203
:1058300019D17748006B00F4403048B1B0F5803F93
:105840000AD0B0F5003F09D0B0F5403F08D101E0E3
:10585000002407E0022405E0042403E0082401E01A
:10586000102400BF5AE06C492868884219D1684862
:10587000006B00F4402048B1B0F5802F0AD0B0F59D
:10588000002F09D0B0F5402F08D101E0002407E037
:10589000022405E0042403E0082401E0102400BFF2
:1058A0003CE05E492868884219D15948006B00F4F1
:1058B000401048B1B0F5801F0AD0B0F5001F09D0E4
:1058C000B0F5401F08D101E0002407E0022405E004
:1058D000042403E0082401E0102400BF1EE0504926
:1058E0002868884219D14A48006B00F4400048B14A
:1058F000B0F5800F0AD0B0F5000F09D0B0F5400F19
:1059000008D101E0002407E0022405E0042403E0BC
:10591000082401E0102400BF00E0102400BFE86963
:10592000B0F5004F3AD1092C17D2DFE804F0050991
:105930000D160F1616161300FDF7F8FA064610E0BE
:10594000FDF70AFB06460CE0364E0AE0FDF71AFBAF
:10595000064606E04FF4004603E000264FF0010A39
:1059600000BF00BF8EB37000696800EB5100B0FB50
:10597000F1F087B2102F0ED3B7F5803F0BD24FF660
:10598000F07007EA0009C7F3420049EA00092868F5
:10599000C0F80C9034E04FF0010A31E0092C18D225
:1059A000DFE804F005090D170F1717171400FDF7AE
:1059B000BDFA064611E0FDF7CFFA06460DE0194E96
:1059C0000BE0FDF7DFFA064607E019E04FF400466A
:1059D00003E000264FF0010A00BF00BF86B16868EF
:1059E00006EB50006968B0FBF1F087B2102F05D3C9
:1059F000B7F5803F02D22868C76001E04FF0010A86
:105A000000206866A8665046BDE8F087003801406F
:105A1000001002400044004000480040004C00409C
:105A20000050004000127A002DE9F04104460D4676
:105A300017469846069E46E0701C002843D0FCF7A7
:105A4000D7FEA0EB0800B04200D8B6B920680068C5
:105A500020F4D070216808602068806820F0010080
:105A6000216888602020A067E06700BF002084F8DC
:105A7000740000BF0320BDE8F0812068006800F0DA
:105A8000040000B32068C069C0F3C020D8B14FF44F
:105A90000060216808622068006820F4D0702168E6
:105AA00008602068806820F001002168886020205C
:105AB000A067E067C4F8800000BF002084F874008D
:105AC00000BF0320D7E72068C0692840A84201D161
:105AD000012000E00020B842AED00020CBE700BF9C
