:020000040800F2
:10000000C006002029020008CB1400083F13000896
:10001000C91400081F0400087F1600080000000033
:10002000000000000000000000000000CF140008E5
:100030002104000800000000CD140008D1140008BD
:10004000430200084302000843020008430200087C
:10005000430200084302000843020008430200086C
:10006000430200084302000843020008430200085C
:10007000430200084302000843020008430200084C
:10008000430200084302000843020008430200083C
:10009000430200084302000843020008430200082C
:1000A000430200084302000843020008430200081C
:1000B00043020008451500084302000843020008F7
:1000C00043020008430200084302000843020008FC
:1000D00043020008430200084302000843020008EC
:1000E00043020008430200084302000843020008DC
:1000F00043020008430200084302000843020008CC
:1001000000000000000000000000000043020008A2
:1001100043020008430200084302000843020008AB
:10012000430200084302000843020008430200089B
:100130004302000843020008000000000000000025
:1001400043020008430200084302000800000000C8
:10015000000000000000000000000000000000009F
:1001600000000000000000004302000843020008F5
:100170004302000800000000000000000000000032
:10018000000000004302000800F002F800F03CF814
:100190000AA090E8000C82448344AAF10107DA45E2
:1001A00001D100F031F8AFF2090EBAE80F0013F0F8
:1001B000010F18BFFB1A43F0010318475815000040
:1001C00078150000103A24BF78C878C1FAD85207D1
:1001D00024BF30C830C144BF04680C6070470000C1
:1001E0000023002400250026103A28BF78C1FBD840
:1001F000520728BF30C148BF0B6070471FB501F0E0
:100200006BFA1FBD10B510BD00F0CFF81146FFF717
:10021000F5FF01F045FA00F0EDF803B4FFF7F2FF47
:1002200003BC00F0F5F80000094880470948004782
:10023000FEE7FEE7FEE7FEE7FEE7FEE7FEE7FEE796
:10024000FEE7FEE704480549054A064B70470000F3
:100250003515000889010008C0000020C0060020F4
:10026000C0020020C002002053EA020C00F06980A6
:100270002DE9F04B4FF00006002B1FBFB3FA83F5BA
:1002800003FA05F424FA05F65E4012BF1643B2FAEB
:1002900082F502FA05F4C5F120051EBF22FA05FC1D
:1002A00044EA0C04203556EA044C4FEA144418BFC3
:1002B000641C4FF000084FF00009904271EB030CF2
:1002C00039D3002919BFB1FA81F701FA07F6B0FA5C
:1002D00080F700FA07F6C7F120071EBF20FA07FCD7
:1002E00046EA0C062037B6FBF4FCA7EB0507103FE7
:1002F00007F01F0BCBF120060CFA0BFB2CFA06F6CD
:1003000044BFB3460026202FA4BF5E464FF0000B2B
:100310005BEA060C08BF4FF0010B19EB0B09ABFBB6
:10032000027C48EB0608C01B06FB02CC0BFB03CC8F
:1003300071EB0C01C1E70B46024641464846BDE859
:10034000F08B13B54FF000004FF00001AFF30080C9
:10035000BDE81C4070474FF0000200B513469446BC
:100360009646203922BFA0E80C50A0E80C50B1F10D
:100370002001BFF4F7AF090728BFA0E80C5048BF21
:100380000CC05DF804EB890028BF40F8042B08BFBF
:10039000704748BF20F8022B11F0804F18BF00F8BB
:1003A000012B7047704770477047754600F02CF876
:1003B000AE4605006946534620F00700854618B052
:1003C00020B5FFF73FFFBDE820404FF000064FF09B
:1003D00000074FF000084FF0000B21F00701AC467A
:1003E000ACE8C009ACE8C009ACE8C009ACE8C00999
:1003F0008D46704710B50446AFF300802046BDE837
:100400001040FFF70ABF0000004870475C00002062
:1004100001491820ABBEFEE7260002007047FEE748
:10042000704772B6FEE7000070B5044600F0F8F8B9
:100430000546601C02D004480078044400F0F0F83F
:10044000401BA042FAD370BD000000202DE9FC4FF4
:10045000DFF894A1002301250AF1040B03244FF0D7
:100460000F0C0BF1040EB8E005FA03F632406FD022
:100470004F68012F05D0022F03D0112F01D0122F6A
:1004800017D1D0F808905F0004FA07F829EA0809A4
:100490000097D1F80C8008FA07F848EA0908C0F874
:1004A00008804768B7430E79C6F300169E403E4366
:1004B0004660C6684FEA430804FA08F7BE4301974E
:1004C0008F6807FA08F73743C7604E68022E01D0DD
:1004D000122E13D1DE0800EB86060096366A5F07FF
:1004E000FF0E0CFA07F926EA0906D1F8109009FA6E
:1004F00007F949EA0609009EC6F820900668019FA0
:10050000BE430F7907F0030707FA08F73743076080
:100510004E68F60060D5354EB76947F00107B76100
:10052000B66923F0030706F001060096304E3E44FC
:10053000B146B6689F074FEA17780CFA08F7BE4332
:10054000B0F1904F05D02B4FB84204D1012712E0F3
:1005500042E000270FE0284FB84201D102270AE00D
:10056000264FB84201D1032705E0254FB84201D1FB
:10057000042700E0052707FA08F73743C9F8087091
:10058000DAF800605746D1F8048096435FEAC8382D
:1005900000D516433E60DBF800605F46D1F804806A
:1005A00096435FEA883800D516433E60DEF8006067
:1005B0007746D1F8048096435FEAC82800D51643F1
:1005C0003E60094F0C373E68D1F8048096435FEADD
:1005D000882800D516433E605B1C0A6832FA03F691
:1005E0007FF442AFBDE8FC8F0004014000100240E0
:1005F000000001400004004800080048000C0048CA
:1006000000100048426921EA02030A4043EA02411D
:10061000816170470AB18161704781627047000053
:10062000014880687047000000000020024881688F
:10063000027811448160704700000020074810B51F
:10064000016841F010010160032000F06FF8002004
:1006500000F006F800F024F8002010BD0020024051
:1006600070B50D4D04464FF47A712878B1FBF0F067
:100670000A490968B1FBF0F000F028FC48B9102CD9
:1006800007D200222146501E00F030F800206C6096
:1006900070BD012070BD0000000000200C00002093
:1006A0000A4882B0816941F001018161816901F0EC
:1006B00001010091C16941F08051C161C06900F040
:1006C00080500090072002B000F030B800100240C7
:1006D000002809DB00F01F02012191404009800041
:1006E00000F1E020C0F8001170470000F0B40E4B9C
:1006F0001B680C46C3F30223C3F10705042D00D980
:100700000425191D072901D2002300E0DB1E012664
:1007100006FA05F1491E214099409E40761E16407A
:100720003143F0BC00F0ACBF0CED00E0064900F036
:10073000070208684FF6FF03184040EA0220034A08
:1007400010430860704700000CED00E00000FA055F
:100750002DE9F0470F46050069D04A4E306800F099
:100760000700B84209D2306820F0070038433060F3
:10077000306800F00700B84259D12878424C800711
:1007800005D56068A96820F0F0000843606028780B
:10079000C0073DD06968012001290DD0022923D06E
:1007A0005FF0020393FAA3F2B2FA82F242F020025F
:1007B000520904D0226803E04FF40033F2E7626A82
:1007C00093FAA3F3B3FA83F303F01F0398400242B2
:1007D0002DD0606820F0030008436060FFF720FF21
:1007E000804641F288390CE04FF00073DAE700BF31
:1007F000FFF716FFA0EB0801494502D90320BDE829
:10080000F0876068696800F00C00B0EB810FEFD1F1
:10081000306800F00700B8420BD9306820F00700BC
:1008200038433060306800F00700B84201D0012042
:10083000E5E72878400705D56068E96820F4E060BE
:10084000084360602878000706D56068296920F4AD
:10085000605040EAC100606000F01EF86168F0225C
:1008600092FAA2F201F0F001B2FA82F2D140074A04
:10087000515CC8400649086006480068FFF7F0FE72
:100880000020BCE7002002400010024002170008D0
:100890000C00002004000020164A10B551681648CC
:1008A00001F00C03042B20D0082B1ED14FF4701440
:1008B00094FAA4F401F47013B4FA84F4E3400F4CF6
:1008C000D26AE45C0F2393FAA3F302F00F02B3FAA7
:1008D00083F3DA40094B1033C9039A5C06D5002331
:1008E0001946FFF7C1FCA0FB040110BD0448A4FB9E
:1008F000000110BD0010024000127A00E21600084C
:1009000000093D002DE9F84F050071D02878FC4E14
:10091000C0074FF0010425D070686704C0F3810060
:10092000012807D07068C0F3810002281BD17068CD
:10093000C00318D597FAA7F0B0FA80F040F0200075
:10094000400901D0306800E0706A97FAA7F1B1FA67
:1009500081F101F01F0104FA01F1084265D06868D5
:100960000028D2D061E06868B0F5803F0BD010B1AC
:10097000B0F5A02F17D0306820F480303060306898
:1009800020F4802002E0306840F480303060F06A6B
:10099000A96820F00F000843F062686820B3FFF7F1
:1009A0003FFE80460AE0306840F480203060EAE78D
:1009B000FFF736FEA0EB0800642871D897FAA7F07D
:1009C000B0FA80F040F02000400901D0306800E02B
:1009D000706A97FAA7F1B1FA81F101F01F0104FAE8
:1009E00001F10842E4D020E0FFF71AFE804607E05C
:1009F000C2E000BFFFF714FEA0EB08006428DCD8BB
:100A000097FAA7F0B0FA80F040F02000400901D03A
:100A1000306800E0706A97FAA7F1B1FA81F101F04D
:100A20001F0104FA01F10842E4D12878DFF8D482EA
:100A300080074FF0000A4FF0020730D570684FF082
:100A4000F80B10F00C0F07D07068C0F3810002287B
:100A500027D17068C00324D497FAA7F0B0FA80F0C9
:100A600040F02000400901D0306800E0706A97FA39
:100A7000A7F1B1FA81F101F01F0104FA01F1084276
:100A800002D02869012877D130689BFAABF220F0B8
:100A9000F8016869B2FA82F29040014331605AE08D
:100AA00064E1286988B394FAA4F0B0FA80F048F8B9
:100AB0002040FFF7B5FD814606E000BFFFF7B0FD1F
:100AC000A0EB090002289AD897FAA7F0B0FA80F0B4
:100AD00040F02000400901D0306800E0706A97FAC9
:100AE000A7F1B1FA81F101F01F0104FA01F1084206
:100AF000E4D030689BFAABF26969B2FA82F220F076
:100B0000F80091400843306025E0FFE794FAA4F034
:100B1000B0FA80F048F820A0FFF782FD814605E09A
:100B2000FFF77EFDA0EB09000228CCD897FAA7F0CA
:100B3000B0FA80F040F02000400901D0306800E0B9
:100B4000706A97FAA7F1B1FA81F101F01F0104FA76
:100B500001F10842E4D1287800076CD5A869A8B350
:100B600094FAA4F0B0FA80F008EB8000C0F880445A
:100B7000FFF756FD814607E0A4E100BFFFF750FDF7
:100B8000A0EB090002289ED897FAA7F0B0FA80F0EF
:100B900040F06000B4EB501F01D130680BE097FAD1
:100BA000A7F0B0FA80F040F06000B7EB501F01D121
:100BB000306A00E0706A97FAA7F1B1FA81F101F0AA
:100BC0001F0104FA01F21042D8D034E0FFE794FA92
:100BD000A4F1B1FA81F108EB8101C1F880A4FFF71B
:100BE0001FFD814606E000BFFFF71AFDA0EB0900DC
:100BF00002289AD897FAA7F0B0FA80F040F0600087
:100C0000B4EB501F01D130680BE097FAA7F0B0FAAF
:100C100080F040F06000B7EB501F01D1306A00E077
:100C2000706A97FAA7F1B1FA81F101F01F0104FA95
:100C300001F21042D8D12878400768D5F0694FF00A
:100C40000009C00009D4F06940F08050F061F069FB
:100C50004FF0010900F0805000902B480168C90551
:100C600012D4016841F480710160FFF7D9FC83461A
:100C700006E000BFFFF7D4FCA0EB0B00642875D89A
:100C800021480068C005F5D5E86801280AD008B1F8
:100C9000052811D0306A20F001003062306A20F05F
:100CA000040002E0306A40F001003062E86868B396
:100CB000FFF7B6FC83460DE0306A40F00400306276
:100CC000F0E700BFFFF7ACFCA0EB0B0141F288306E
:100CD00081424BD897FAA7F0B0FA80F040F040007C
:100CE000B4EB501F01D1306813E097FAA7F0B0FAC7
:100CF00080F040F04000B7EB501F09D1306A08E0A7
:100D00000010024000004242007000400CE040E051
:100D1000706A97FAA7F1B1FA81F101F01F0104FAA4
:100D200001F21042CED02DE0FFF77AFC834607E0B7
:100D3000FFF776FCA0EB0B0141F28830814215D819
:100D400097FAA7F0B0FA80F040F04000B4EB501FE3
:100D500001D130680CE097FAA7F0B0FA80F040F0CB
:100D60004000B7EB501F02D1306A01E083E0706AA7
:100D700097FAA7F1B1FA81F101F01F0104FA01F22B
:100D80001042D5D1B9F1000F03D0F06920F08050A6
:100D9000F061E86980B37168C1F38101022977D0FD
:100DA0004FF080714F000228504609D091FAA1F10E
:100DB000B1FA81F148F82100FFF732FC05465DE009
:100DC000894691FAA1F1B1FA81F1C24648F82100B1
:100DD000FFF726FC804605E0FFF722FCA0EB0800A9
:100DE000022848D897FAA7F0B0FA80F040F0200027
:100DF000400902D0306801E066E0706A97FAA7F116
:100E0000B1FA81F101F01F0104FA01F10842E3D1C6
:100E1000D5E908100843716821F474110843706023
:100E200099FAA9F0B0FA80F04AF82040FFF7F8FBF1
:100E3000054604E0FFF7F4FB401B02281BD897FA95
:100E4000A7F0B0FA80F040F02000400901D03068EF
:100E500000E0706A97FAA7F1B1FA81F101F01F0181
:100E600004FA01F10842E5D02EE000BFFFF7D8FBFD
:100E7000401B022802D90320BDE8F88F97FAA7F09B
:100E8000B0FA80F040F02000400902D0306801E064
:100E90000BE0706A97FAA7F1B1FA81F101F01F0136
:100EA00004FA01F10842E1D10EE00128E4D07068B3
:100EB0002A6A00F48031914204D1696A00F470100A
:100EC000884201D00120D7E70020D5E710B5401EA9
:100ED000B0F1807F01D3012010BD4FF0E0246061AC
:100EE0000F21601700F0CCFB0020A06107202061DB
:100EF000002010BD7047704770470000F0B590F8B3
:100F00003C20012A36D0012480F83C40022280F89F
:100F10003D20026853689568174E184FB24201D0C1
:100F2000BA4204D123F4700C4B6843EA0C0323F05B
:100F3000700C0B6843EA0C0353600268B2420DD098
:100F4000B2F1804F0AD00E4B9A4207D00D4B9A4215
:100F500004D0BA4202D00C4B9A4204D1896825F0E1
:100F600080031943916080F83D40002180F83C10D7
:100F70000846F0BD0220F0BD002C014000340140C5
:100F800000040040000800400040014010B504008B
:100F900003D094F83D0010B107E0012010BD0020FF
:100FA00084F83C00204600F023F8022084F83D003D
:100FB000211D206800F0D6FA012084F8480084F84A
:100FC0003E0084F83F0084F8400084F8410084F833
:100FD000420084F8430084F8440084F8450084F813
:100FE000460084F8470084F83D00002010BD000052
:100FF00008B500680B49884212D10B48C16941F01D
:101000000201C161C069002200F002000090114697
:101010001D20FFF76BFBBDE808401D20FFF758BB04
:1010200008BD0000000400400010024090F83D1090
:10103000012901D001207047022180F83D1001688C
:10104000CA6842F00102CA600068104988420ED0A6
:10105000B0F1804F0BD00E49884208D00D4988422C
:1010600005D00D49884202D00C49884207D18168D9
:101070000B4A1140062906D0B1F5803F03D0016824
:1010800041F001010160002070470000002C014088
:1010900000040040000800400034014000400140CE
:1010A000070001000168CA6822F00102CA600168F5
:1010B0000A6A41F211131A4207D10A6A9B101A42B6
:1010C00003D10A6822F001020A60012180F83D1074
:1010D0000020704770B5044690F83C00012817D0F6
:1010E000012584F83C50022084F83D002268906875
:1010F0002E4B184020F47F4090600868502830D074
:101100000DDC20284DD005DC98B310283BD148E0F9
:10111000022070BD302844D0402834D139E0602806
:1011200028D0702806D0B0F5805F2CD0B0F5005FD5
:1011300029D10AE0CB68D1E90121206800F06AFAE0
:101140002068816841F0770109E0CB68D1E901218D
:10115000206800F05FFA2068816841F48041816076
:1011600011E0CA684968206800F066FA50212068DA
:1011700007E016E0CA684968206800F06EFA60214E
:10118000206800F051FA84F83D50002084F83C00BB
:1011900070BDCA684968206800F04EFA4021206896
:1011A000EFE7226801461046EBE7000088FFFEFFEC
:1011B000704770B50446006801694FF00005C943E7
:1011C000890715D4C168C943890711D4E91E016193
:1011D00001202077206880698007204602D0FFF731
:1011E000E7FF04E000F0A7F8204600F0A5F8257717
:1011F00020680169C943490717D4C168C943490731
:1012000013D46FF004010161022020772068806907
:1012100010F4407F204602D0FFF7CAFF04E000F040
:101220008AF8204600F088F8257720680169C943CC
:10123000090716D4C168C943090712D46FF0080121
:101240000161042020772068C0698007204602D011
:10125000FFF7AEFF04E000F06EF8204600F06CF8F7
:10126000257720680169C943C90617D4C168C943F5
:10127000C90613D46FF0100101610820207720689F
:10128000C06910F4407F204602D0FFF791FF04E0D0
:1012900000F051F8204600F04FF8257720680169EA
:1012A000C943C90708D1C168C943C90704D1891E08
:1012B0000161204600F041F820680169C943090630
:1012C00009D4C168C943090605D46FF080010161E2
:1012D0002046FFF710FE20680169C943C90509D4FB
:1012E000C168C943090605D46FF4807101612046C5
:1012F000FFF700FE20680169C943490609D4C168A7
:10130000C943490605D46FF040010161204600F051
:1013100015F820680169C94389060BD4C168C9431F
:10132000890607D46FF0200101612046BDE87040B6
:10133000FFF7E2BD70BD7047704770477047FEE72A
:101340002DE9F04186B014216846FFF704F83F48C4
:10135000416941F400114161416901F400110591B5
:10136000416941F400214161416901F40021059185
:10137000416941F480014161416901F480010591B5
:10138000416941F400314161416901F40031059145
:10139000416941F48021416140692D4F00F4802072
:1013A0004FF608750590002229463846FFF732F9B6
:1013B0003720009027480024CDE9010469463846CB
:1013C000FFF744F801260095CDE9016469463846E7
:1013D0000394FFF73BF8CDE900644FF0904869466D
:1013E00040460294FFF732F8E0200227CDE90007DB
:1013F000032502940520CDE9035069464046FFF7D6
:1014000025F86802CDE9000702940720CDE90350D2
:1014100069464046FFF71AF8E802CDE90007029452
:101420000E20CDE9035069464046FFF70FF8C02073
:1014300000901220CDE901060420CDE90350694651
:101440000548FFF703F806B0BDE8F0810010024040
:1014500000100048000012100004004810B588B0C9
:101460000024184800940194029403940494059471
:1014700013490694016042F21071C0E901144FF45F
:10148000E151C0E903148461FFF780FD08B1FEF764
:10149000C8FF4FF48050009069460A48FFF71AFED3
:1014A00008B1FEF7BEFF049404A906480694FFF7AE
:1014B00025FD002801D0FEF7B4FF08B010BD0000E4
:1014C0000004004010000020FEE7FEE77047704770
:1014D000FFF7ACB830B58FB028216846FEF73BFF68
:1014E00014210AA8FEF737FF01204FF4A0210024A1
:1014F0008DE81300049002250004CDE907504FF455
:10150000E01009906846FFF7FDF908B172B6FEE7F2
:101510000F20CDE90A054FF48060CDE90C4002218F
:101520000AA80E94FFF714F9002801D072B6FEE75E
:101530000FB030BD0248016841F47001016070478E
:1015400088ED00E010B54FF480710448FFF75AF8B9
:10155000BDE810400248FFF72CBE00000010004814
:10156000100000202DE9F0430268234B234D244E48
:10157000244C4FF08049984207D0484505D0A842F6
:1015800003D0B04201D0A04203D122F070074A68D4
:101590003A431D4FDFF874C0DFF8748098420DD0D5
:1015A00048450BD0A84209D0B04207D0A04205D090
:1015B000B84203D0604501D0404503D122F44075C4
:1015C000CA682A434D6922F080022A4302608A6871
:1015D000C2620A688262984207D0A04205D0B8422F
:1015E00003D0604501D0404501D109690163012163
:1015F0004161BDE8F0830000002C01400004004080
:101600000008004000340140004001400044014017
:101610000048014010B5846842EA032224F47F4464
:101620000A432243826010BD826822F070020A439E
:1016300042F007018160704710B5036A046A24F024
:1016400001040462846924F0F00444EA021423F0E3
:101650000A020A438461026210BD10B5036A23F0D6
:10166000100303628369046A23F4704343EA02327D
:1016700024F0A00343EA01118261016210BDFEE77C
:101680000907090E002804DB00F1E02080F80014AF
:10169000704700F00F0000F1E02080F8141D704743
:1016A000FEF7CCFFFFF716FFFFF74AFEFFF7D6FE67
:1016B0000848FFF7BBFC41F288342046FEF7B4FE31
:1016C0000448FFF7EFFC2046FEF7AEFE0148FFF7A7
:1016D000ADFCF2E7100000204FF04070E1EE100A80
:1016E000704702030405060708090A0B0C0D0E0FCC
:1016F00010100102030405060708090A0B0C0D0E61
:101700000F100000000000000000010203040607A3
:101710000809000034170008000000201000000035
:10172000C40100084417000810000020B0060000A3
:10173000E0010008010000001000000000000000AF
:0417400000127A0019
:040000050800018965
:00000001FF
