:020000040800F2
:10000000F806002029020008DB170008AD160008DA
:10001000D91700081F0400087D1C0008000000001C
:10002000000000000000000000000000DF170008D2
:100030002104000800000000DD170008E117000897
:10004000430200084302000843020008430200087C
:10005000430200084302000843020008430200086C
:10006000430200084302000843020008430200085C
:10007000430200084302000843020008430200084C
:10008000430200084302000843020008430200083C
:10009000430200084302000843020008430200082C
:1000A000430200084302000843020008430200081C
:1000B000430200084302000843020008430200080C
:1000C00043020008430200084302000843020008FC
:1000D000430200084D1C00084302000843020008C8
:1000E00043020008430200084302000843020008DC
:1000F00043020008430200084302000843020008CC
:1001000000000000000000000000000043020008A2
:1001100043020008430200084302000843020008AB
:10012000430200084302000843020008430200089B
:100130004302000843020008000000000000000025
:1001400043020008430200084302000800000000C8
:10015000000000000000000000000000000000009F
:1001600000000000000000004302000843020008F5
:100170004302000800000000000000000000000032
:10018000000000004302000800F002F800F03CF814
:100190000AA090E8000C82448344AAF10107DA45E2
:1001A00001D100F031F8AFF2090EBAE80F0013F0F8
:1001B000010F18BFFB1A43F001031847681B00002A
:1001C000881B0000103A24BF78C878C1FAD85207BB
:1001D00024BF30C830C144BF04680C6070470000C1
:1001E0000023002400250026103A28BF78C1FBD840
:1001F000520728BF30C148BF0B6070471FB501F0E0
:100200006FFD1FBD10B510BD00F0CFF81146FFF710
:10021000F5FF01F045FD00F0EDF803B4FFF7F2FF44
:1002200003BC00F0F5F80000094880470948004782
:10023000FEE7FEE7FEE7FEE7FEE7FEE7FEE7FEE796
:10024000FEE7FEE704480549054A064B70470000F3
:100250006918000889010008F8000020F80600204D
:10026000F8020020F802002053EA020C00F0698036
:100270002DE9F04B4FF00006002B1FBFB3FA83F5BA
:1002800003FA05F424FA05F65E4012BF1643B2FAEB
:1002900082F502FA05F4C5F120051EBF22FA05FC1D
:1002A00044EA0C04203556EA044C4FEA144418BFC3
:1002B000641C4FF000084FF00009904271EB030CF2
:1002C00039D3002919BFB1FA81F701FA07F6B0FA5C
:1002D00080F700FA07F6C7F120071EBF20FA07FCD7
:1002E00046EA0C062037B6FBF4FCA7EB0507103FE7
:1002F00007F01F0BCBF120060CFA0BFB2CFA06F6CD
:1003000044BFB3460026202FA4BF5E464FF0000B2B
:100310005BEA060C08BF4FF0010B19EB0B09ABFBB6
:10032000027C48EB0608C01B06FB02CC0BFB03CC8F
:1003300071EB0C01C1E70B46024641464846BDE859
:10034000F08B13B54FF000004FF00001AFF30080C9
:10035000BDE81C4070474FF0000200B513469446BC
:100360009646203922BFA0E80C50A0E80C50B1F10D
:100370002001BFF4F7AF090728BFA0E80C5048BF21
:100380000CC05DF804EB890028BF40F8042B08BFBF
:10039000704748BF20F8022B11F0804F18BF00F8BB
:1003A000012B7047704770477047754600F02CF876
:1003B000AE4605006946534620F00700854618B052
:1003C00020B5FFF73FFFBDE820404FF000064FF09B
:1003D00000074FF000084FF0000B21F00701AC467A
:1003E000ACE8C009ACE8C009ACE8C009ACE8C00999
:1003F0008D46704710B50446AFF300802046BDE837
:100400001040FFF70ABF0000004870479800002026
:1004100001491820ABBEFEE7260002007047FEE748
:10042000704772B6FEE710B590F82110002202293D
:1004300005D00421816380F82020012010BD0168CF
:100440000B6823F00E030B6001680B6823F00103B7
:100450000B6090F84030C46B012101FA03F3636034
:1004600080F8211080F82020002010BD10B590F8F1
:1004700021100024022903D004218163012418E003
:1004800001680A6822F00E020A6001680A6822F018
:1004900001020A6090F84020C36B012101FA02F2C8
:1004A0005A6080F82110002180F82010416B01B1C2
:1004B0008847204610BD000070B5044600F0F8F8EB
:1004C0000546601C02D004480078044400F0F0F8AF
:1004D000401BA042FAD370BD040000202DE9FC4F60
:1004E000DFF894A1002301250AF1040B03244FF047
:1004F0000F0C0BF1040EB8E005FA03F632406FD092
:100500004F68012F05D0022F03D0112F01D0122FD9
:1005100017D1D0F808905F0004FA07F829EA080913
:100520000097D1F80C8008FA07F848EA0908C0F8E3
:1005300008804768B7430E79C6F300169E403E43D5
:100540004660C6684FEA430804FA08F7BE430197BD
:100550008F6807FA08F73743C7604E68022E01D04C
:10056000122E13D1DE0800EB86060096366A5F076E
:10057000FF0E0CFA07F926EA0906D1F8109009FADD
:1005800007F949EA0609009EC6F820900668019F0F
:10059000BE430F7907F0030707FA08F737430760F0
:1005A0004E68F60060D5354EB76947F00107B76170
:1005B000B66923F0030706F001060096304E3E446C
:1005C000B146B6689F074FEA17780CFA08F7BE43A2
:1005D000B0F1904F05D02B4FB84204D1012712E063
:1005E00042E000270FE0284FB84201D102270AE07D
:1005F000264FB84201D1032705E0254FB84201D16B
:10060000042700E0052707FA08F73743C9F8087000
:10061000DAF800605746D1F8048096435FEAC8389C
:1006200000D516433E60DBF800605F46D1F80480D9
:1006300096435FEA883800D516433E60DEF80060D6
:100640007746D1F8048096435FEAC82800D5164360
:100650003E60094F0C373E68D1F8048096435FEA4C
:10066000882800D516433E605B1C0A6832FA03F600
:100670007FF442AFBDE8FC8F00040140001002404F
:10068000000001400004004800080048000C004839
:1006900000100048426921EA02030A4043EA02418D
:1006A000816170470AB181617047816270470000C3
:1006B00001488068704700000400002002488168FB
:1006C000027811448160704704000020074810B58B
:1006D000016841F010010160032000F06FF8002074
:1006E00000F006F800F024F8002010BD00200240C1
:1006F00070B50D4D04464FF47A712878B1FBF0F0D7
:100700000A490968B1FBF0F000F064FD48B9102C0B
:1007100007D200222146501E00F030F800206C6005
:1007200070BD012070BD00000400002010000020FA
:100730000A4882B0816941F001018161816901F05B
:1007400001010091C16941F08051C161C06900F0AF
:1007500080500090072002B000F030B80010024036
:10076000002809DB00F01F020121914040098000B0
:1007700000F1E020C0F8001170470000F0B40E4B0B
:100780001B680C46C3F30223C3F10705042D00D9EF
:100790000425191D072901D2002300E0DB1E0126D4
:1007A00006FA05F1491E214099409E40761E1640EA
:1007B0003143F0BC01F063BA0CED00E0064900F0F3
:1007C000070208684FF6FF03184040EA0220034A78
:1007D00010430860704700000CED00E00000FA05CF
:1007E0002DE9F84F044600680026804DC0036ED501
:1007F000E869C00008D4E86940F08050E861E86921
:10080000012600F08050009079480168C90512D493
:100810000168804641F480710160FFF749FF074697
:1008200005E000BFFFF744FFC01B642835D8D8F8A7
:100830000000C005F6D5286A10F4407053D0A18896
:1008400001F4407181424ED0286A4FF4803191FA10
:10085000A1F2B2FA82F29700664A4FF001081744FB
:1008600020F44070C7F8008491FAA1F1B1FA81F147
:1008700002EB81010023C1F800342862C00732D0A6
:10088000FFF716FF074641F2883A4FF0020907E0EA
:10089000FFF70EFFC11B514502D90320BDE8F88FB9
:1008A00099FAA9F0B0FA80F040F040024946B8EB5E
:1008B000521F01D12A680CE091FAA1F2B2FA82F239
:1008C00042F04002B1EB521F02D12A6A01E015E06A
:1008D0006A6A99FAA9F1B1FA81F101F01F0108FAE7
:1008E00001F00242D4D0286A616820F440700843C5
:1008F00028621EB1E86920F08050E8612078C007C6
:1009000005D0286BA16820F00300084328632078F5
:10091000800705D5286BE16820F440300843286340
:100920002078400705D5286B216920F44020084332
:1009300028632078800605D5286BE16920F0100037
:10094000084328632068800305D56868A16B20F4FC
:100950008000084368602078400605D5286B216A2E
:1009600020F02000084328632078000705D5286B75
:10097000616920F44010084328632078C00605D53B
:10098000286BA16920F44000084328632088800573
:1009900005D56868E16A20F40000084368602078A3
:1009A000000605D5E86A616A20F4F8700843E86239
:1009B0002088C00505D5E86AA16A20F4785008436C
:1009C000E8622088C00405D5286B216B20F4807074
:1009D000084328632088800405D5286B616B20F4C8
:1009E000007008432863002058E700000010024010
:1009F00000700040000042422DE9F0470F4605001C
:100A000069D04A4E306800F00700B84209D2306819
:100A100020F0070038433060306800F00700B8422B
:100A200059D12878424C800705D56068A96820F024
:100A3000F000084360602878C0073DD06968012055
:100A400001290DD0022923D05FF0020393FAA3F20B
:100A5000B2FA82F242F02002520904D0226803E086
:100A60004FF40033F2E7626A93FAA3F3B3FA83F325
:100A700003F01F03984002422DD0606820F003006D
:100A800008436060FFF714FE804641F288390CE0AD
:100A90004FF00073DAE700BFFFF70AFEA0EB080192
:100AA000494502D90320BDE8F0876068696800F015
:100AB0000C00B0EB810FEFD1306800F00700B842B6
:100AC0000BD9306820F0070038433060306800F000
:100AD0000700B84201D00120E5E72878400705D596
:100AE0006068E96820F4E0600843606028780007E7
:100AF00006D56068296920F4605040EAC100606052
:100B000000F04EF86168F02292FAA2F201F0F001D2
:100B1000B2FA82F2D140074A515CC84006490860E7
:100B200006480068FFF7E4FD0020BCE70020024013
:100B3000001002400A1D00081000002008000020DC
:100B400008480949006849684FF4E06292FAA2F245
:100B500001F4E061B2FA82F2D140044A515CC8402B
:100B60007047000010000020001002401A1D00080D
:100B700008480949006849684FF4605292FAA2F2A5
:100B800001F46051B2FA82F2D140044A515CC8408B
:100B90007047000010000020001002401A1D0008DD
:100BA000164A10B55168164801F00C03042B20D0EA
:100BB000082B1ED14FF4701494FAA4F401F47013AE
:100BC000B4FA84F4E3400F4CD26AE45C0F2393FA46
:100BD000A3F302F00F02B3FA83F3DA40094B1033A8
:100BE000C9039A5C06D500231946FFF73DFBA0FB1D
:100BF000040110BD0448A4FB000110BD0010024018
:100C000000127A00EA1C000800093D002DE9F84FA7
:100C1000050071D02878FC4EC0074FF0010425D0A4
:100C200070686704C0F38100012807D07068C0F3C2
:100C3000810002281BD17068C00318D597FAA7F06D
:100C4000B0FA80F040F02000400901D0306800E0A8
:100C5000706A97FAA7F1B1FA81F101F01F0104FA65
:100C600001F1084265D068680028D2D061E0686868
:100C7000B0F5803F0BD010B1B0F5A02F17D0306881
:100C800020F480303060306820F4802002E030684A
:100C900040F480303060F06AA96820F00F0008430B
:100CA000F062686820B3FFF703FD80460AE0306811
:100CB00040F480203060EAE7FFF7FAFCA0EB080080
:100CC000642871D897FAA7F0B0FA80F040F02000BD
:100CD000400901D0306800E0706A97FAA7F1B1FAD4
:100CE00081F101F01F0104FA01F10842E4D020E093
:100CF000FFF7DEFC804607E0C2E000BFFFF7D8FC4C
:100D0000A0EB08006428DCD897FAA7F0B0FA80F0CE
:100D100040F02000400901D0306800E0706A97FA86
:100D2000A7F1B1FA81F101F01F0104FA01F10842C3
:100D3000E4D12878DFF8D48280074FF0000A4FF022
:100D4000020730D570684FF0F80B10F00C0F07D089
:100D50007068C0F38100022827D17068C00324D4D2
:100D600097FAA7F0B0FA80F040F02000400901D0D7
:100D7000306800E0706A97FAA7F1B1FA81F101F0EA
:100D80001F0104FA01F1084202D02869012877D135
:100D900030689BFAABF220F0F8016869B2FA82F28F
:100DA0009040014331605AE064E1286988B394FAC5
:100DB000A4F0B0FA80F048F82040FFF779FC8146B3
:100DC00006E000BFFFF774FCA0EB090002289AD8E8
:100DD00097FAA7F0B0FA80F040F02000400901D067
:100DE000306800E0706A97FAA7F1B1FA81F101F07A
:100DF0001F0104FA01F10842E4D030689BFAABF21B
:100E00006969B2FA82F220F0F8009140084330603C
:100E100025E0FFE794FAA4F0B0FA80F048F820A0AB
:100E2000FFF746FC814605E0FFF742FCA0EB090016
:100E30000228CCD897FAA7F0B0FA80F040F0200052
:100E4000400901D0306800E0706A97FAA7F1B1FA62
:100E500081F101F01F0104FA01F10842E4D1287880
:100E600000076CD5A869A8B394FAA4F0B0FA80F092
:100E700008EB8000C0F88044FFF71AFC814607E0C9
:100E8000A4E100BFFFF714FCA0EB090002289ED8E4
:100E900097FAA7F0B0FA80F040F06000B4EB501F72
:100EA00001D130680BE097FAA7F0B0FA80F040F07B
:100EB0006000B7EB501F01D1306A00E0706A97FA0A
:100EC000A7F1B1FA81F101F01F0104FA01F2104219
:100ED000D8D034E0FFE794FAA4F1B1FA81F108EB3D
:100EE0008101C1F880A4FFF7E3FB814606E000BF63
:100EF000FFF7DEFBA0EB090002289AD897FAA7F0CB
:100F0000B0FA80F040F06000B4EB501F01D13068BF
:100F10000BE097FAA7F0B0FA80F040F06000B7EB72
:100F2000501F01D1306A00E0706A97FAA7F1B1FA58
:100F300081F101F01F0104FA01F21042D8D12878A2
:100F4000400768D5F0694FF00009C00009D4F06986
:100F500040F08050F061F0694FF0010900F08050DE
:100F600000902B480168C90512D4016841F48071D2
:100F70000160FFF79DFB834606E000BFFFF798FB8B
:100F8000A0EB0B00642875D821480068C005F5D592
:100F9000E86801280AD008B1052811D0306A20F08D
:100FA00001003062306A20F0040002E0306A40F054
:100FB00001003062E86868B3FFF77AFB83460DE012
:100FC000306A40F004003062F0E700BFFFF770FBCA
:100FD000A0EB0B0141F2883081424BD897FAA7F081
:100FE000B0FA80F040F04000B4EB501F01D13068FF
:100FF00013E097FAA7F0B0FA80F040F04000B7EBAA
:10100000501F09D1306A08E000100240000042423F
:10101000007000400CE040E0706A97FAA7F1B1FA66
:1010200081F101F01F0104FA01F21042CED02DE04F
:10103000FFF73EFB834607E0FFF73AFBA0EB0B010F
:1010400041F28830814215D897FAA7F0B0FA80F0C3
:1010500040F04000B4EB501F01D130680CE097FA2B
:10106000A7F0B0FA80F040F04000B7EB501F02D17B
:10107000306A01E083E0706A97FAA7F1B1FA81F172
:1010800001F01F0104FA01F21042D5D1B9F1000FAD
:1010900003D0F06920F08050F061E86980B3716896
:1010A000C1F38101022977D04FF080714F000228EF
:1010B000504609D091FAA1F1B1FA81F148F8210026
:1010C000FFF7F6FA05465DE0894691FAA1F1B1FA1B
:1010D00081F1C24648F82100FFF7EAFA804605E0B0
:1010E000FFF7E6FAA0EB0800022848D897FAA7F025
:1010F000B0FA80F040F02000400902D0306801E0F2
:1011000066E0706A97FAA7F1B1FA81F101F01F0168
:1011100004FA01F10842E3D1D5E9081008437168E7
:1011200021F474110843706099FAA9F0B0FA80F0C4
:101130004AF82040FFF7BCFA054604E0FFF7B8FA8A
:10114000401B02281BD897FAA7F0B0FA80F040F0B5
:101150002000400901D0306800E0706A97FAA7F1DA
:10116000B1FA81F101F01F0104FA01F10842E5D062
:101170002EE000BFFFF79CFA401B022802D9032093
:10118000BDE8F88F97FAA7F0B0FA80F040F02000A1
:10119000400902D0306801E00BE0706A97FAA7F1CD
:1011A000B1FA81F101F01F0104FA01F10842E1D125
:1011B0000EE00128E4D070682A6A00F48031914280
:1011C00004D1696A00F47010884201D00120D7E789
:1011D0000020D5E710B5401EB0F1807F01D301207B
:1011E00010BD4FF0E02460610F21601700F047FD53
:1011F0000020A06107202061002010BD70477047CB
:10120000704700002DE9F04102680446D06911687A
:10121000936840F60F0528424FF0000505D1860679
:1012200078D58E0676D5616EF2E0824F03F0010626
:101230000F4037437ED0C70709D0CF0507D5012718
:101240001762D4F8802042F00102C4F8802082079F
:101250000AD5DA0708D0276802223A62D4F880203B
:1012600042F00402C4F8802042070AD5DA0708D009
:10127000236804221A62D4F8802042F00202C4F8E3
:10128000802002070CD501F02002324308D02368E9
:1012900008221A62D4F8802042F00802C4F88020A4
:1012A00002050BD54A0109D523684FF400621A6282
:1012B000D4F8802042F02002C4F88020D4F88020A6
:1012C000002A2FD0800605D5880603D5616E09B1A6
:1012D00020468847D4F8800021688968490602D4EE
:1012E00010F0280F20D0204600F062FB20688168B3
:1012F000490614D5816821F040018160206F70B1EA
:101300004D494163206FFFF7B1F800280AD0206FE4
:10131000416B01E00EE02046BDE8F0410847204661
:10132000FFF76EFFBDE8F0812046FFF769FFC4F8C4
:101330008050F7E7276E2026012F58D1C70656D5D3
:10134000CF0654D5102010622268906840062DD533
:10135000216F086840680004000CE3D0B4F85830EE
:101360008342DFD9A4F85A008869202817D0106872
:1013700020F4807010602068816821F00101816094
:101380002068816821F040018160E6672566206859
:10139000016821F010010160206FFFF744F8B4F8F4
:1013A0005800B4F85A10401A81B21CE0B4F8580042
:1013B000B4F85A10401A81B2B4F85A000028B1D0DB
:1013C0000029AFD0106820F4907010602068826807
:1013D00022F001028260E667256665662068026881
:1013E00022F0100202602046FFF708FF9AE7C702CA
:1013F00009D55B0207D54FF4801010622046BDE886
:10140000F041FFF7FCBE030605D50B0603D5A16E20
:10141000002980D186E7400684D5480682D5116828
:10142000204621F040011160A667A56600F03DF955
:1014300078E70000200100049D19000810B50400A1
:1014400002D0A06F10B107E0012010BD002084F889
:101450007400204600F026F82420A0672068016868
:1014600021F001010160204600F0BAFA0128ECD019
:10147000606A10B1204600F0FFF92068416821F44D
:10148000904141602068816821F02A0181602068D4
:10149000016841F0010101602046BDE8104000F004
:1014A0004FBA000010B586B0044614216846FEF716
:1014B00052FF17492068884228D11648816941F4B3
:1014C00080418161816901F480410591416941F464
:1014D000003141614069694600F4003005904FF4E5
:1014E000C060009002200190002002900320039031
:1014F000072004904FF09040FEF7F0FF00221146C5
:101500002520FFF73BF92520FFF72AF906B010BD8B
:1015100000380140001002402DE9F84F0446C06F2A
:101520009A4616460D46202862D1FDB1F6B194F8D0
:10153000740001285CD0012084F874000027C4F8EE
:1015400080702220E06727665834FFF7B1F824F84E
:10155000026B814624F852694FF4805254F808090E
:10156000FF21904208D123691BB119E00120BDE899
:10157000F88F40F2FF1113E078B1A4F85C7000BF5F
:10158000B4F85C80904201D1206960B12E460025FC
:1015900084F8747008F0FF071DE0236903B17F2110
:1015A000A4F85C10ECE70026F2E74B46002220216D
:1015B0002046CDF800A000F0F7FA08B10320D6E7E6
:1015C0002068808C7EB1384006F8010BB4F85A00D0
:1015D000401EA4F85A00B4F85A000028E5D1202093
:1015E000E0670020C3E700EA080025F8020BEDE7FA
:1015F0000220BCE72DE9F8430446806F1F461646DB
:101600000D4620284FD1CDB1C6B194F87400012801
:1016100049D0012084F874004FF00008C4F880809D
:101620002120A067FFF744F8A4F850608146A4F891
:101630005260A068B0F5805F03D004E00120BDE8EF
:10164000F883206928B12E465FF0000584F8748085
:1016500010E00026FAE78021204600F0A5FAB8B98C
:10166000C6B116F8010B21680885B4F85200401E77
:10167000A4F85200B4F852004B464FF00002009715
:101680000028E8D14FF04001204600F08DFA30B13B
:101690000320D4E735F8020BC0F30800E3E720206D
:1016A000A0670020CBE70220C9E77047FEE70000F3
:1016B00070B586B014216846FEF74DFE3348416987
:1016C00041F400114161416901F400110591416942
:1016D00041F400214161416901F400210591416912
:1016E00041F480014161416901F480010591416942
:1016F00041F400314161416901F4003105914169D2
:1017000041F4802141614069214E00F480204FF670
:1017100008750590002229463046FEF7C3FF3720A2
:1017200000901C480024CDE9010469463046FEF7CC
:10173000D5FE00950125CDE9015469463046039454
:10174000FEF7CCFECDE900544FF090466946304696
:101750000294FEF7C3FEE02000900220CDE90104D0
:1017600003240520CDE9034069463046FEF7B6FE66
:10177000C02000901220CDE901050420CDE90340EE
:1017800069460548FEF7AAFE06B070BD001002408B
:101790000010004800001210000400480D4810B569
:1017A0000B4901604FF4E1314160002181600C225E
:1017B000C160C0E904128161C16101624162FFF749
:1017C0003DFE002803D0BDE81040FEF72ABE10BD44
:1017D0000038014014000020FEE7FEE77047704724
:1017E000FEF76CBF30B59FB028210FA8FEF7B3FD00
:1017F000142119A8FEF7AFFD3C216846FEF7ABFDAA
:101800000FAA01204FF4A021002482E813001390B6
:1018100002250004CDE916504FF4E01018900FA8EF
:10182000FFF7F4F908B172B6FEE70F20CDE919050C
:101830004FF48060CDE91B40022119A81D94FFF7E9
:10184000DBF808B172B6FEE70648009002940E94E9
:101850006846FEF7C5FF002801D072B6FEE71FB04C
:1018600030BD0000010002000248016841F470012F
:101870000160704788ED00E090F82410C90706D099
:1018800001684A68836A22F400321A434A6090F879
:101890002410890706D501684A68C36A22F4803299
:1018A0001A434A6090F82410490706D501684A682F
:1018B000036B22F480221A434A6090F8241009072F
:1018C00006D501684A68436B22F400421A434A6015
:1018D00090F82410C90606D501688A68836B22F443
:1018E00080521A438A6090F82410890606D5016850
:1018F0008A68C36B22F400521A438A6090F824105D
:10190000490611D501684A68036C22F480121A4313
:101910004A60016CB1F5801F06D101684A68436CCA
:1019200022F4C0021A434A6090F82410090606D532
:1019300001684A68806C22F4002202434A607047C2
:10194000F8B500260446C0F88060FEF7B1FE0546F3
:10195000206800686FF07E47000708D52B460022FC
:101960004FF400112046009700F01EF960B920687E
:10197000006840070AD52B4600224FF4800120461C
:10198000009700F011F908B10320F8BD2020A067EE
:10199000E067266684F874600020F8BD10B5406AE0
:1019A0000021A0F85A10A0F85210FFF729FC10BD32
:1019B00001680A6822F490720A6001688A6822F05D
:1019C00001028A60016E012904D101680A6822F0CF
:1019D00010020A602021C16700210166416670473C
:1019E00070B5044680682169E26908436169002591
:1019F000114322680843116849F20C63994301437B
:101A0000116020684168E26821F44051114341604F
:101A1000216AA06901432068826822F430620A4387
:101A200082605A4A20685A4990420CD1086B10F0E3
:101A3000030006D001285FD002285FD0032845D1DB
:101A400058E0012143E0534A90420DD1086B10F455
:101A500040304DD0B0F5803F4ED0B0F5003F4DD076
:101A6000B0F5403F32D145E04B4A90420DD1086B72
:101A700010F440203CD0B0F5802F3DD0B0F5002FC1
:101A80003CD0B0F5402F21D134E0444A90420DD1F2
:101A9000086B10F440102BD0B0F5801F2CD0B0F59F
:101AA000001F2BD0B0F5401F10D123E03C4A9042DC
:101AB0000CD1086B10F440001AD0B0F5800F1BD089
:101AC000B0F5000F1AD0B0F5400F13D01021E36924
:101AD0004FF40040334A4FF6EF7683422ED1092966
:101AE0004AD2DFE801F00D101349154949491800A1
:101AF0000021ECE70221EAE70421E8E70821E6E714
:101B0000FFF71EF806E0FFF733F803E0104602E0A7
:101B1000FFF746F888B34100606801EB5001B1FB64
:101B2000F0F081B2A1F11000B04225D84FF6F0726A
:101B300001EA0200C1F3420108431FE009291BD258
:101B4000DFE801F005080B1A0D1A1A1A1000FEF74B
:101B5000F7FF06E0FFF70CF803E0104602E0FFF79E
:101B60001FF850B1616800EB5100B0FBF1F080B29A
:101B7000A0F11001B14201D9012501E02168C8603E
:101B800000206066A066284670BD00000038014055
:101B9000001002400044004000480040004C00405B
:101BA0000050004000127A002DE9F0479A4617468F
:101BB0000E4604464FF000094FF02008089D39E01A
:101BC000681C37D0FEF774FDA0EB0A00A84222D8AB
:101BD0000DB32068016849072CD5C069C0430005D2
:101BE00028D421684FF4006008622068016821F45D
:101BF000D07101602068816821F001018160C4F822
:101C00007880C4F87C80C4F8808000BF84F8749029
:101C10000320BDE8F0872068016821F4D0710160DD
:101C20002068816821F001018160C4F87880C4F8DF
:101C30007C80EBE72068C06936EA000004D0002011
:101C4000B842BDD00020E4E70120F9E710B54FF01D
:101C5000FF342346012207490748FFF75DFC23466E
:101C6000012204490448FFF7C5FCBDE810400248C2
:101C7000FFF7C8BA0000002014000020FEE70907A3
:101C8000090E002804DB00F1E02080F80014704702
:101C900000F00F0000F1E02080F8141D70470000F4
:101CA000FEF714FDFFF79EFDFFF702FDFFF776FD3F
:101CB00009480068016841F020010160074D4FF4B8
:101CC00080744FF47A7621462846FEF7E3FC3046CE
:101CD000FEF7F2FBF7E700001400002000100048B8
:101CE0004FF04070E1EE100A70470203040506074A
:101CF00008090A0B0C0D0E0F101001020304050653
:101D00000708090A0B0C0D0E0F1000000000000060
:101D10000000010203040607080900000000010298
:101D200003040000441D000800000020140000000F
:101D3000C4010008581D000814000020E40600003B
:101D4000E001000800000000010000001000000099
:081D50000000000000127A00FF
:040000050800018965
:00000001FF
