:020000040800F2
:10000000080700202902000827190008991600088F
:10001000251900081F040008031E00080000000046
:100020000000000000000000000000002B19000884
:100030002104000800000000291900082D190008FB
:10004000430200084302000843020008430200087C
:10005000430200084302000843020008430200086C
:10006000430200084302000843020008430200085C
:10007000430200084302000843020008430200084C
:10008000430200084302000843020008430200083C
:10009000430200084302000843020008430200082C
:1000A000430200084302000843020008430200081C
:1000B000430200084302000843020008430200080C
:1000C00043020008430200084302000843020008FC
:1000D00043020008430200084302000843020008EC
:1000E00043020008430200084302000843020008DC
:1000F00043020008430200084302000843020008CC
:1001000000000000000000000000000043020008A2
:1001100043020008430200084302000843020008AB
:10012000430200084302000843020008430200089B
:100130004302000843020008000000000000000025
:1001400043020008430200084302000800000000C8
:10015000000000000000000000000000000000009F
:1001600000000000000000004302000843020008F5
:100170004302000800000000000000000000000032
:10018000000000004302000800F002F800F03CF814
:100190000AA090E8000C82448344AAF10107DA45E2
:1001A00001D100F031F8AFF2090EBAE80F0013F0F8
:1001B000010F18BFFB1A43F001031847FC1C000095
:1001C0001C1D0000103A24BF78C878C1FAD8520725
:1001D00024BF30C830C144BF04680C6070470000C1
:1001E0000023002400250026103A28BF78C1FBD840
:1001F000520728BF30C148BF0B6070471FB501F0E0
:100200003DFE1FBD10B510BD00F0CFF81146FFF741
:10021000F5FF01F007FE00F0EDF803B4FFF7F2FF81
:1002200003BC00F0F5F80000094880470948004782
:10023000FEE7FEE7FEE7FEE7FEE7FEE7FEE7FEE796
:10024000FEE7FEE704480549054A064B70470000F3
:10025000AD190008890100080801002008070020E6
:10026000080300200803002053EA020C00F0698014
:100270002DE9F04B4FF00006002B1FBFB3FA83F5BA
:1002800003FA05F424FA05F65E4012BF1643B2FAEB
:1002900082F502FA05F4C5F120051EBF22FA05FC1D
:1002A00044EA0C04203556EA044C4FEA144418BFC3
:1002B000641C4FF000084FF00009904271EB030CF2
:1002C00039D3002919BFB1FA81F701FA07F6B0FA5C
:1002D00080F700FA07F6C7F120071EBF20FA07FCD7
:1002E00046EA0C062037B6FBF4FCA7EB0507103FE7
:1002F00007F01F0BCBF120060CFA0BFB2CFA06F6CD
:1003000044BFB3460026202FA4BF5E464FF0000B2B
:100310005BEA060C08BF4FF0010B19EB0B09ABFBB6
:10032000027C48EB0608C01B06FB02CC0BFB03CC8F
:1003300071EB0C01C1E70B46024641464846BDE859
:10034000F08B13B54FF000004FF00001AFF30080C9
:10035000BDE81C4070474FF0000200B513469446BC
:100360009646203922BFA0E80C50A0E80C50B1F10D
:100370002001BFF4F7AF090728BFA0E80C5048BF21
:100380000CC05DF804EB890028BF40F8042B08BFBF
:10039000704748BF20F8022B11F0804F18BF00F8BB
:1003A000012B7047704770477047754600F02CF876
:1003B000AE4605006946534620F00700854618B052
:1003C00020B5FFF73FFFBDE820404FF000064FF09B
:1003D00000074FF000084FF0000B21F00701AC467A
:1003E000ACE8C009ACE8C009ACE8C009ACE8C00999
:1003F0008D46704710B50446AFF300802046BDE837
:100400001040FFF70ABF000000487047A800002016
:1004100001491820ABBEFEE7260002007047FEE748
:10042000704772B6FEE700002DE9FC4FDFF894A19B
:10043000002301250AF1040B03244FF00F0C0BF1EC
:10044000040EB8E005FA03F632406FD04F68012F72
:1004500005D0022F03D0112F01D0122F17D1D0F8C1
:1004600008905F0004FA07F829EA08090097D1F814
:100470000C8008FA07F848EA0908C0F808804768BD
:10048000B7430E79C6F300169E403E434660C668E9
:100490004FEA430804FA08F7BE4301978F6807FA4A
:1004A00008F73743C7604E68022E01D0122E13D1D1
:1004B000DE0800EB86060096366A5F07FF0E0CFA30
:1004C00007F926EA0906D1F8109009FA07F949EA6E
:1004D0000609009EC6F820900668019FBE430F796A
:1004E00007F0030707FA08F7374307604E68F6007E
:1004F00060D5354EB76947F00107B761B66923F09B
:10050000030706F001060096304E3E44B146B66839
:100510009F074FEA17780CFA08F7BE43B0F1904FE7
:1005200005D02B4FB84204D1012712E042E000274A
:100530000FE0284FB84201D102270AE0264FB84207
:1005400001D1032705E0254FB84201D1042700E07F
:10055000052707FA08F73743C9F80870DAF800608A
:100560005746D1F8048096435FEAC83800D5164351
:100570003E60DBF800605F46D1F8048096435FEA96
:10058000883800D516433E60DEF800607746D1F823
:10059000048096435FEAC82800D516433E60094FA1
:1005A0000C373E68D1F8048096435FEA882800D56E
:1005B00016433E605B1C0A6832FA03F67FF442AFD2
:1005C000BDE8FC8F00040140001002400000014023
:1005D0000004004800080048000C004800100048D3
:1005E0000AB18161704781627047000001488068EC
:1005F0007047000000000020024881680278114422
:100600008160704700000020074810B5016841F084
:1006100010010160032000F061F8002000F006F8EE
:1006200000F024F8002010BD0020024070B50D4DF0
:1006300004464FF47A712878B1FBF0F00A49096852
:10064000B1FBF0F000F026FD48B9102C07D20022D3
:100650002146501E00F022F800206C6070BD012081
:1006600070BD0000000000200C0000200A4882B08D
:10067000816941F001018161816901F0010100910D
:10068000C16941F08051C161C06900F080500090A3
:10069000072002B000F022B800100240F0B40E4B68
:1006A0001B680C46C3F30223C3F10705042D00D9D0
:1006B0000425191D072901D2002300E0DB1E0126B5
:1006C00006FA05F1491E214099409E40761E1640CB
:1006D0003143F0BC01F096BB0CED00E0064900F0A0
:1006E000070208684FF6FF03184040EA0220034A59
:1006F00010430860704700000CED00E00000FA05B0
:100700002DE9F84F044600680026804DC0036ED5E1
:10071000E869C00008D4E86940F08050E861E86901
:10072000012600F08050009079480168C90512D474
:100730000168804641F480710160FFF757FF07466A
:1007400005E000BFFFF752FFC01B642835D8D8F87A
:100750000000C005F6D5286A10F4407053D0A18877
:1007600001F4407181424ED0286A4FF4803191FAF1
:10077000A1F2B2FA82F29700664A4FF001081744DC
:1007800020F44070C7F8008491FAA1F1B1FA81F128
:1007900002EB81010023C1F800342862C00732D087
:1007A000FFF724FF074641F2883A4FF0020907E0BD
:1007B000FFF71CFFC11B514502D90320BDE8F88F8C
:1007C00099FAA9F0B0FA80F040F040024946B8EB3F
:1007D000521F01D12A680CE091FAA1F2B2FA82F21A
:1007E00042F04002B1EB521F02D12A6A01E015E04B
:1007F0006A6A99FAA9F1B1FA81F101F01F0108FAC8
:1008000001F00242D4D0286A616820F440700843A5
:1008100028621EB1E86920F08050E8612078C007A6
:1008200005D0286BA16820F00300084328632078D6
:10083000800705D5286BE16820F440300843286321
:100840002078400705D5286B216920F44020084313
:1008500028632078800605D5286BE16920F0100018
:10086000084328632068800305D56868A16B20F4DD
:100870008000084368602078400605D5286B216A0F
:1008800020F02000084328632078000705D5286B56
:10089000616920F44010084328632078C00605D51C
:1008A000286BA16920F44000084328632088800554
:1008B00005D56868E16A20F4000008436860207884
:1008C000000605D5E86A616A20F4F8700843E8621A
:1008D0002088C00505D5E86AA16A20F4785008434D
:1008E000E8622088C00405D5286B216B20F4807055
:1008F000084328632088800405D5286B616B20F4A9
:10090000007008432863002058E7000000100240F0
:1009100000700040000042422DE9F0470F460500FC
:1009200069D04A4E306800F00700B84209D23068FA
:1009300020F0070038433060306800F00700B8420C
:1009400059D12878424C800705D56068A96820F005
:10095000F000084360602878C0073DD06968012036
:1009600001290DD0022923D05FF0020393FAA3F2EC
:10097000B2FA82F242F02002520904D0226803E067
:100980004FF40033F2E7626A93FAA3F3B3FA83F306
:1009900003F01F03984002422DD0606820F003004E
:1009A00008436060FFF722FE804641F288390CE080
:1009B0004FF00073DAE700BFFFF718FEA0EB080165
:1009C000494502D90320BDE8F0876068696800F0F6
:1009D0000C00B0EB810FEFD1306800F00700B84297
:1009E0000BD9306820F0070038433060306800F0E1
:1009F0000700B84201D00120E5E72878400705D577
:100A00006068E96820F4E0600843606028780007C7
:100A100006D56068296920F4605040EAC100606032
:100A200000F01EF86168F02292FAA2F201F0F001E3
:100A3000B2FA82F2D140074A515CC84006490860C8
:100A400006480068FFF7F2FD0020BCE700200240E6
:100A500000100240A61E00080C0000200400002028
:100A6000164A10B55168164801F00C03042B20D02B
:100A7000082B1ED14FF4701494FAA4F401F47013EF
:100A8000B4FA84F4E3400F4CD26AE45C0F2393FA87
:100A9000A3F302F00F02B3FA83F3DA40094B1033E9
:100AA000C9039A5C06D500231946FFF7DDFBA0FBBE
:100AB000040110BD0448A4FB000110BD0010024059
:100AC00000127A00861E000800093D002DE9F84F4B
:100AD000050071D02878FC4EC0074FF0010425D0E6
:100AE00070686704C0F38100012807D07068C0F304
:100AF000810002281BD17068C00318D597FAA7F0AF
:100B0000B0FA80F040F02000400901D0306800E0E9
:100B1000706A97FAA7F1B1FA81F101F01F0104FAA6
:100B200001F1084265D068680028D2D061E06868A9
:100B3000B0F5803F0BD010B1B0F5A02F17D03068C2
:100B400020F480303060306820F4802002E030688B
:100B500040F480303060F06AA96820F00F0008434C
:100B6000F062686820B3FFF741FD80460AE0306814
:100B700040F480203060EAE7FFF738FDA0EB080082
:100B8000642871D897FAA7F0B0FA80F040F02000FE
:100B9000400901D0306800E0706A97FAA7F1B1FA15
:100BA00081F101F01F0104FA01F10842E4D020E0D4
:100BB000FFF71CFD804607E0C2E000BFFFF716FD0F
:100BC000A0EB08006428DCD897FAA7F0B0FA80F010
:100BD00040F02000400901D0306800E0706A97FAC8
:100BE000A7F1B1FA81F101F01F0104FA01F1084205
:100BF000E4D12878DFF8D48280074FF0000A4FF064
:100C0000020730D570684FF0F80B10F00C0F07D0CA
:100C10007068C0F38100022827D17068C00324D413
:100C200097FAA7F0B0FA80F040F02000400901D018
:100C3000306800E0706A97FAA7F1B1FA81F101F02B
:100C40001F0104FA01F1084202D02869012877D176
:100C500030689BFAABF220F0F8016869B2FA82F2D0
:100C60009040014331605AE064E1286988B394FA06
:100C7000A4F0B0FA80F048F82040FFF7B7FC8146B6
:100C800006E000BFFFF7B2FCA0EB090002289AD8EB
:100C900097FAA7F0B0FA80F040F02000400901D0A8
:100CA000306800E0706A97FAA7F1B1FA81F101F0BB
:100CB0001F0104FA01F10842E4D030689BFAABF25C
:100CC0006969B2FA82F220F0F8009140084330607E
:100CD00025E0FFE794FAA4F0B0FA80F048F820A0ED
:100CE000FFF784FC814605E0FFF780FCA0EB0900DC
:100CF0000228CCD897FAA7F0B0FA80F040F0200094
:100D0000400901D0306800E0706A97FAA7F1B1FAA3
:100D100081F101F01F0104FA01F10842E4D12878C1
:100D200000076CD5A869A8B394FAA4F0B0FA80F0D3
:100D300008EB8000C0F88044FFF758FC814607E0CC
:100D4000A4E100BFFFF752FCA0EB090002289ED8E7
:100D500097FAA7F0B0FA80F040F06000B4EB501FB3
:100D600001D130680BE097FAA7F0B0FA80F040F0BC
:100D70006000B7EB501F01D1306A00E0706A97FA4B
:100D8000A7F1B1FA81F101F01F0104FA01F210425A
:100D9000D8D034E0FFE794FAA4F1B1FA81F108EB7E
:100DA0008101C1F880A4FFF721FC814606E000BF65
:100DB000FFF71CFCA0EB090002289AD897FAA7F0CD
:100DC000B0FA80F040F06000B4EB501F01D1306801
:100DD0000BE097FAA7F0B0FA80F040F06000B7EBB4
:100DE000501F01D1306A00E0706A97FAA7F1B1FA9A
:100DF00081F101F01F0104FA01F21042D8D12878E4
:100E0000400768D5F0694FF00009C00009D4F069C7
:100E100040F08050F061F0694FF0010900F080501F
:100E200000902B480168C90512D4016841F4807113
:100E30000160FFF7DBFB834606E000BFFFF7D6FB50
:100E4000A0EB0B00642875D821480068C005F5D5D3
:100E5000E86801280AD008B1052811D0306A20F0CE
:100E600001003062306A20F0040002E0306A40F095
:100E700001003062E86868B3FFF7B8FB83460DE015
:100E8000306A40F004003062F0E700BFFFF7AEFBCD
:100E9000A0EB0B0141F2883081424BD897FAA7F0C2
:100EA000B0FA80F040F04000B4EB501F01D1306840
:100EB00013E097FAA7F0B0FA80F040F04000B7EBEB
:100EC000501F09D1306A08E0001002400000424281
:100ED000007000400CE040E0706A97FAA7F1B1FAA8
:100EE00081F101F01F0104FA01F21042CED02DE091
:100EF000FFF77CFB834607E0FFF778FBA0EB0B01D5
:100F000041F28830814215D897FAA7F0B0FA80F004
:100F100040F04000B4EB501F01D130680CE097FA6C
:100F2000A7F0B0FA80F040F04000B7EB501F02D1BC
:100F3000306A01E083E0706A97FAA7F1B1FA81F1B3
:100F400001F01F0104FA01F21042D5D1B9F1000FEE
:100F500003D0F06920F08050F061E86980B37168D7
:100F6000C1F38101022977D04FF080714F00022830
:100F7000504609D091FAA1F1B1FA81F148F8210067
:100F8000FFF734FB05465DE0894691FAA1F1B1FA1D
:100F900081F1C24648F82100FFF728FB804605E0B2
:100FA000FFF724FBA0EB0800022848D897FAA7F027
:100FB000B0FA80F040F02000400902D0306801E033
:100FC00066E0706A97FAA7F1B1FA81F101F01F01AA
:100FD00004FA01F10842E3D1D5E908100843716829
:100FE00021F474110843706099FAA9F0B0FA80F006
:100FF0004AF82040FFF7FAFA054604E0FFF7F6FA50
:10100000401B02281BD897FAA7F0B0FA80F040F0F6
:101010002000400901D0306800E0706A97FAA7F11B
:10102000B1FA81F101F01F0104FA01F10842E5D0A3
:101030002EE000BFFFF7DAFA401B022802D9032096
:10104000BDE8F88F97FAA7F0B0FA80F040F02000E2
:10105000400902D0306801E00BE0706A97FAA7F10E
:10106000B1FA81F101F01F0104FA01F10842E1D166
:101070000EE00128E4D070682A6A00F480319142C1
:1010800004D1696A00F47010884201D00120D7E7CA
:101090000020D5E710B5401EB0F1807F01D30120BC
:1010A00010BD4FF0E02460610F21601700F0AAFE30
:1010B0000020A06107202061002010BD30B590F80D
:1010C0003C20012A3AD0012280F83C20CA688B6873
:1010D00022F440721A434B6822F480621A430B6870
:1010E00022F400621A430B6922F480521A434B69BE
:1010F00022F400521A438B6A22F480421A430B8B6B
:1011000022F4702242EA03420D4D03680024AB42F0
:1011100002D00C4DAB420CD18D8C22F4700242EA0D
:101120000552CD6922F080722A43096A22F00072CA
:101130000A435A6480F83C40002030BD022030BD94
:10114000002C014000340140F0B590F83C20012A09
:1011500036D0012480F83C40022280F83D2002680D
:1011600053689568174E184FB24201D0BA4204D165
:1011700023F4700C4B6843EA0C0323F0700C0B68EB
:1011800043EA0C0353600268B2420DD0B2F1804FC3
:101190000AD00E4B9A4207D00D4B9A4204D0BA4265
:1011A00002D00C4B9A4204D1896825F08003194380
:1011B000916080F83D40002180F83C100846F0BD69
:1011C0000220F0BD002C014000340140000400402A
:1011D000000800400040014010B5040003D094F81E
:1011E0003D0010B107E0012010BD002084F83C0054
:1011F000204600F023F8022084F83D00211D2068DD
:1012000000F0DCFB012084F8480084F83E0084F8FC
:101210003F0084F8400084F8410084F8420084F8DC
:10122000430084F8440084F8450084F8460084F8BC
:10123000470084F83D00002010BD000010B586B0C6
:10124000044614216846FFF786F8184A21681848B2
:10125000914209D1816941F400618161806900F4A2
:101260000060059006B010BD124A9142FAD1C169E2
:1012700041F00201C161C16901F0020105914169BA
:1012800041F4002141614069002100F400200590F3
:101290004FF4607000900220CDE90101CDE9031008
:1012A00069460548FFF7C0F8DCE70000002C014064
:1012B00000100240000400400008004870B50446D9
:1012C00090F83C00012817D0012584F83C500220FA
:1012D00084F83D00226890682E4B184020F47F402F
:1012E00090600868502830D00DDC20284DD005DCF7
:1012F00098B310283BD148E0022070BD302844D07C
:10130000402834D139E0602828D0702806D0B0F5C4
:10131000805F2CD0B0F5005F29D10AE0CB68D1E91D
:101320000121206800F0AFFB2068816841F077015F
:1013300009E0CB68D1E90121206800F0A4FB206816
:10134000816841F48041816011E0CA684968206881
:1013500000F034FD5021206807E016E0CA684968B3
:10136000206800F03CFD6021206800F096FB84F8C6
:101370003D50002084F83C0070BDCA684968206870
:1013800000F01CFD40212068EFE72268014610466E
:10139000EBE7000088FFFEFF10B586B0044614217D
:1013A0006846FEF7D8FF2368164C0021164A022033
:1013B000A34210D1536943F400135361526902F4FC
:1013C0000012059202020092CDE90101CDE903105D
:1013D00069460E4812E00E4CA34211D1536943F402
:1013E00000235361526902F40022059240220092C8
:1013F000CDE90101CDE9031069460648FFF714F86D
:1014000006B010BD002C0140001002400010004842
:10141000000400400008004870B5044690F83C0005
:101420000D4601280BD0012084F83C000C2A45D041
:1014300007DC5AB1042A1BD0082A78D12CE00220FC
:1014400070BD102A4ED0142A71D15DE0206800F0E2
:101450002DFB2068816941F0080181612068816964
:1014600021F004018161206881692A69114311E03A
:10147000206800F069FB2068816941F400618161A6
:101480002068816921F480618161206881692A690D
:1014900041EA022181614AE0206800F09DFB20685A
:1014A000C16941F00801C1612068C16921F00401EE
:1014B000C1612068C1692A69114311E0206800F008
:1014C000D3FB2068C16941F40061C1612068C16932
:1014D00021F48061C1612068C1692A6941EA022161
:1014E000C16124E0206800F0F9FB2068416D41F003
:1014F000080141652068416D21F0040141652068C3
:10150000416D2A69114311E0206800F01FFC20683A
:10151000416D41F4006141652068416D21F48061B5
:1015200041652068416D2A6941EA02214165002038
:1015300084F83C0070BD10B5040003D094F83D0061
:1015400010B107E0012010BD002084F83C002046C7
:1015500000F022F8022084F83D00211D206800F0F0
:101560002DFA012084F8480084F83E0084F83F00FA
:1015700084F8400084F8410084F8420084F8430075
:1015800084F8440084F8450084F8460084F8470055
:1015900084F83D00002010BD7047000030B50446BF
:1015A000022269B1042912D0082917D00C291CD0B5
:1015B000102921D094F84300012824D0012030BD07
:1015C00094F83E000128F9D184F83E201DE094F8FB
:1015D0003F000128F2D184F83F2016E094F8400043
:1015E0000128EBD184F840200FE094F84100012855
:1015F000E4D184F8412008E094F842000128DDD1CC
:1016000084F8422001E084F843200122206800F0A1
:101610002DFA194B20681949194A984209D0884275
:1016200007D0904205D0174DA84202D0164DA842CF
:1016300003D1456C45F400454564206898420CD0C0
:10164000B0F1804F09D0114B984206D0104B984210
:1016500003D0884201D0904207D181680D4A1140E1
:10166000062906D0B1F5803F03D0016841F00101A1
:101670000160002030BD0000002C0140003401401A
:101680000040014000440140004801400004004087
:101690000008004007000100FEE700002DE9F041CE
:1016A00086B014216846FEF756FE3F48416941F472
:1016B00000114161416901F400110591416941F452
:1016C00000214161416901F400210591416941F422
:1016D00080014161416901F480010591416941F452
:1016E00000314161416901F400310591416941F4E2
:1016F0008021416140692D4F00F480204FF608554C
:101700000590002229463846FEF76AFF37200090F0
:1017100027480024CDE9010469463846FEF784FED7
:1017200001260095CDE90164694638460394FEF729
:101730007BFECDE900644FF0904869464046029434
:10174000FEF772FEE0200227CDE900070325029490
:101750000520CDE9035069464046FEF765FE680264
:10176000CDE9000702940720CDE9035069464046C1
:10177000FEF75AFEE802CDE9000702940E20CDE9FB
:10178000035069464046FEF74FFEC02000901220ED
:10179000CDE901060420CDE9035069460548FEF76E
:1017A00043FE06B0BDE8F081001002400010004882
:1017B000000012100004004810B59AB000241794DD
:1017C000189415941694129413941C210BA8149435
:1017D000FEF7C1FD2C216846FEF7BDFD2A482949C8
:1017E000C0E900141021C0E9024180210461C0E970
:1017F0000541FFF7F1FC08B1FEF713FE4FF48050EE
:10180000159015A92048FFF759FD08B1FEF709FE0C
:101810001D48FFF790FE08B1FEF703FE12941394E3
:1018200012A919481494FFF78FFC08B1FEF7F9FDCF
:101830006020CDE90B040D940E940F9410940022B7
:101840000BA911481194FFF7E7FD08B1FEF7E9FD78
:1018500000944FF40050CDE90440019402940394A5
:1018600000030694CDE907400994694606480A94A6
:10187000FFF724FC08B1FEF7D4FD0348FFF78CFD09
:101880001AB010BD002C01401000002010B58EB021
:1018900000240794089409940A940B940C941C2136
:1018A00068460D94FEF757FD1D481C49C0E9001419
:1018B0000321C0E90241802104618161FFF78CFCB2
:1018C00008B1FEF7AEFD4FF48050079007A9144809
:1018D000FFF7F4FC08B1FEF7A4FD1148FFF72BFE5B
:1018E00008B1FEF79EFD0B940BA90D480D94FFF770
:1018F0002BFC08B1FEF795FD6020CDE900040294B1
:101900000022694606480494FFF786FD08B1FEF7F9
:1019100088FD0348FFF740FD0EB010BD00040040F5
:101920005C000020FEE7FEE770477047FEF764BEEC
:1019300030B59FB028216846FEF70DFD142119A887
:10194000FEF709FD3C210AA8FEF705FD01204FF432
:10195000A02100248DE81300049002250004CDE9A5
:1019600007504FF4E01009906846FFF7AFF808B150
:1019700072B6FEE70F20CDE919054FF48060CDE97E
:101980001B40022119A81D94FEF7C6FF08B172B6CC
:10199000FEE74FF480500A9016940AA8FEF7B0FEB6
:1019A000002801D072B6FEE71FB030BD02480168C2
:1019B00041F470010160704788ED00E02DE9F043CB
:1019C0000268234B234D244E244C4FF0804998420B
:1019D00007D0484505D0A84203D0B04201D0A0426C
:1019E00003D122F070074A683A431D4FDFF874C0F4
:1019F000DFF8748098420DD048450BD0A84209D03A
:101A0000B04207D0A04205D0B84203D0604501D013
:101A1000404503D122F44075CA682A434D6922F03B
:101A200080022A4302608A68C2620A68826298421F
:101A300007D0A04205D0B84203D0604501D0404550
:101A400001D10969016301214161BDE8F083000012
:101A5000002C014000040040000800400034014018
:101A600000400140004401400048014010B501F031
:101A70001F030121046A99408C430462016A9A4061
:101A80001143016210BD10B5846842EA032224F4B8
:101A90007F440A432243826010BD826822F07002B4
:101AA0000A4342F007018160704700002DE9F043CE
:101AB000026A22F001020262056A436882691C4CD4
:101AC00025F0020522400C6822F0030214438A68C4
:101AD000194E2A43174D194FDFF864C0DFF86490A0
:101AE000A84207D0B04205D0B84203D0604501D02B
:101AF000484506D122F00808CA6842EA080222F0E6
:101B00000402A84207D0B04205D0B84203D06045D5
:101B100001D0484505D14D6923F440731D438B69BD
:101B20002B4343608461496841630262BDE8F083EE
:101B30008FFFFEFF002C01400034014000400140B7
:101B40000044014000480140F0B5026A22F0100252
:101B50000262056A42688369194C1B4E23400C6877
:101B600023F4407343EA042425F020038D6843EAFC
:101B70000513144DA84201D0B04206D1CF6823F01E
:101B8000800343EA071323F04003A8420AD0B0427F
:101B900008D00E4DA84205D00D4DA84202D00D4DE3
:101BA000A84207D14D6922F4406242EA85028D695C
:101BB00042EA850242608461496881630362F0BD44
:101BC000FF8FFFFE002C0140003401400040014027
:101BD0000044014000480140F0B5026A22F48072DE
:101BE0000262056A4368C269194C1B4E22400C68A8
:101BF00022F00302144325F400728D6842EA0522A4
:101C0000144DA84201D0B04206D1CF6822F4006240
:101C100042EA072222F48062A8420AD0B04208D0E9
:101C20000E4DA84205D00E4DA84202D00D4DA8423F
:101C300007D14D6923F4405343EA05138D6943EA04
:101C400005134360C4614968C1630262F0BD0000CE
:101C50008FFFFEFF002C0140003401400040014096
:101C6000004401400048014030B5026A22F480522D
:101C70000262046A4268C369124D24F400542B4086
:101C80000D6823F4407343EA05238D6844EA053464
:101C90000D4DA8420BD00D4DA84208D00C4DA842C6
:101CA00005D00C4DA84202D00B4DA84204D14D697D
:101CB00022F4804242EA85124260C36149680164AD
:101CC000046230BDFF8FFFFE002C01400034014054
:101CD00000400140004401400048014030B5026A24
:101CE00022F480320262046A4268436D114D2B4037
:101CF0000D681D4324F400330C8943EA04430E4C61
:101D0000A0420BD00D4CA04208D00D4CA04205D0F3
:101D10000C4CA04202D00C4CA04204D14C6922F4DD
:101D2000803242EA04224260456549688165036267
:101D300030BD00008FFFFEFF002C01400034014049
:101D400000400140004401400048014030B5026AB3
:101D500022F480120262046A4268436D114D24F439
:101D600000142B400D6843EA05230D8944EA05540D
:101D70000D4DA8420BD00D4DA84208D00C4DA842E5
:101D800005D00C4DA84202D00B4DA84204D14D699C
:101D900022F4802242EA8522426043654968C16597
:101DA000046230BDFF8FFFFE002C01400034014073
:101DB00000400140004401400048014010B5036A62
:101DC000046A24F001040462846924F0F00444EA03
:101DD000021423F00A020A438461026210BD10B5A6
:101DE000036A23F0100303628369046A23F47043D7
:101DF00043EA023224F0A00343EA01118261016246
:101E000010BDFEE70907090E002804DB00F1E02001
:101E100080F80014704700F00F0000F1E02080F817
:101E2000141D70470024FEF7EFFBFFF781FDFFF75D
:101E300035FCFFF72BFDFFF7BFFC00210B48FFF738
:101E4000ADFB00210A48FFF7A9FB0A490220086000
:101E500009484FF4107104603A348C42FBDB01E016
:101E600004603A3C002CF8DDFAE700001000002086
:101E70005C00002034040040342C01404FF04070DE
:101E8000E1EE100A704702030405060708090A0B71
:101E90000C0D0E0F10100102030405060708090AB5
:101EA0000B0C0D0E0F1000000000000000000102DE
:101EB0000304060708090000D81E000800000020DF
:101EC00010000000C4010008E81E000810000020F7
:101ED000F8060000E001000801000000100000000A
:081EE0000000000000127A006E
:040000050800018965
:00000001FF
