:020000040800F2
:10000000900700203102000863220008671D0008E5
:10001000612200085B060008C12A000800000000F9
:10002000000000000000000000000000672200083F
:100030005D06000800000000652200086922000833
:100040004B0200084B0200084B0200084B0200085C
:100050004B0200084B0200084B0200084B0200084C
:100060004B0200084B0200084B0200084B0200083C
:100070004B0200084B0200084B0200084B0200082C
:100080004B0200084B0200084B0200084B0200081C
:100090004B0200084B0200084B0200084B0200080C
:1000A0004B0200084B0200084B0200084B020008FC
:1000B0004B0200084B0200084B0200084B020008EC
:1000C0004B0200084B0200084B0200084B020008DC
:1000D0004B0200084B0200084B0200084B020008CC
:1000E0004B0200084B0200084B0200084B020008BC
:1000F0004B0200084B0200084B0200084B020008AC
:100100000000000000000000000000004B0200089A
:100110004B0200084B0200084B0200084B0200088B
:100120004B0200084B0200084B0200084B0200087B
:100130004B0200084B020008000000000000000015
:100140004B0200084B0200084B02000800000000B0
:10015000000000000000000000000000000000009F
:1001600000000000000000004B0200084B020008E5
:100170004B0200080000000000000000000000002A
:10018000000000004B02000800F002F800F041F807
:100190000AA090E8000C82448344AAF10107DA45E2
:1001A00001D100F036F8AFF2090EBAE80F0013F0F3
:1001B000010F18BFFB1A43F001031847502A000033
:1001C000702A0000103A24BF78C878C1FAD85207C4
:1001D00024BF30C830C144BF04680C6070470000C1
:1001E0000023002400250026103A28BF78C1FBD840
:1001F000520728BF30C148BF0B607047642900F028
:10020000F780002070471FB502F0DEFC1FBD10B55F
:1002100010BD00F0E8F91146FFF7F5FF02F062FCAF
:1002200000F006FA03B4FFF7F2FF03BC00F00EFA89
:100230000948804709480047FEE7FEE7FEE7FEE77A
:10024000FEE7FEE7FEE7FEE7FEE7FEE704480549B6
:10025000054A064B70470000F52200088901000896
:1002600090010020900700209003002090030020C0
:1002700053EA020C00F069802DE9F04B4FF00006C4
:10028000002B1FBFB3FA83F503FA05F424FA05F631
:100290005E4012BF1643B2FA82F502FA05F4C5F1C8
:1002A00020051EBF22FA05FC44EA0C04203556EA5C
:1002B000044C4FEA144418BF641C4FF000084FF080
:1002C0000009904271EB030C39D3002919BFB1FA30
:1002D00081F701FA07F6B0FA80F700FA07F6C7F1DE
:1002E00020071EBF20FA07FC46EA0C062037B6FBA3
:1002F000F4FCA7EB0507103F07F01F0BCBF120061E
:100300000CFA0BFB2CFA06F644BFB3460026202F4E
:10031000A4BF5E464FF0000B5BEA060C08BF4FF02F
:10032000010B19EB0B09ABFB027C48EB0608C01B69
:1003300006FB02CC0BFB03CC71EB0C01C1E70B46B7
:10034000024641464846BDE8F08B13B54FF0000029
:100350004FF00001AFF30080BDE81C407047000083
:100360000FB41CB5074B06AA7B446946009005985C
:1003700000F021F90020694600F030F91CBC5DF85E
:1003800014FB0000710200002DE9F0410E46044606
:10039000002020622046E168884730B3252805D038
:1003A000D4E901219047206A401CF2E7E168204629
:1003B00000278847050018D0A5F14100192802D868
:1003C00020354FF400673246294620462760FFF764
:1003D00015FF40B1012804D0F61D26F007060836A7
:1003E000D8E7361DD6E72846DAE7206ABDE8F0816F
:1003F0002DE9F0410646002410687529314616A5FE
:1004000010D0AFF30080002802DA404213A507E0C5
:1004100031688A0701D512A502E0490704D511A564
:10042000012401E0AFF3008000210A2206F1240735
:1004300009E0B0FBF2FCB0FBF2F302FB1C00303031
:1004400078541846491C0028F3D123462A463046E2
:10045000BDE8F04100F051B8000000002D000000A0
:100460002B0000002000000010B5431C02E010F833
:10047000011B71B18107FAD14FF0013202C88C1A09
:100480008C4314EAC211F9D0C01A0A0603D0C01E68
:1004900010BDC01A10BD0A0401D0801E10BD090293
:1004A000FCD0401E10BD4FF0000200B5134694462C
:1004B0009646203922BFA0E80C50A0E80C50B1F1BC
:1004C0002001BFF4F7AF090728BFA0E80C5048BFD0
:1004D0000CC05DF804EB890028BF40F8042B08BF6E
:1004E000704748BF20F8022B11F0804F18BF00F86A
:1004F000012B70477047704770472DE9F0470D4654
:1005000099469246044600F124080168880604D5FD
:10051000E06921F01001216000E00120A84201DD26
:10052000471B00E00027A1697A1902EB0900081AAD
:10053000A0612078C00602D42046AFF300800026D8
:1005400008E0D4E901211AF806009047206A401C0F
:10055000761C20624E45F4DB2078C0060AD5204682
:10056000AFF3008006E0D4E9012130209047206AF3
:10057000401C2062381EA7F10107F4DC07E0D4E933
:10058000012118F805009047206A401C2062281EAF
:10059000A5F10105F3DC2046AFF3008020780006CA
:1005A00002D50220BDE8F0870120FBE701694A1C63
:1005B00002610878704700B58FB0CDE901310021A4
:1005C000059105497944CDE9031011466846FFF7C6
:1005D000DBFE0FB000BD0000E5FFFFFF0A6802F878
:1005E000010B0A607047754600F02CF8AE46050016
:1005F0006946534620F00700854618B020B5FFF73E
:1006000025FEBDE820404FF000064FF000074FF0F8
:1006100000084FF0000B21F00701AC46ACE8C00920
:10062000ACE8C009ACE8C009ACE8C0098D46704729
:1006300010B50446AFF300802046BDE81040FFF738
:10064000F1BD00000048704730010020014918202A
:10065000ABBEFEE7260002007047FEE7704772B6A9
:10066000FEE7000070B5044600F0F0F80546601C97
:1006700002D004480078044400F0E8F8401BA0428F
:10068000FAD370BD040000202DE9FC4FDFF894A1DF
:10069000002301250AF1040B03244FF00F0C0BF18A
:1006A000040EB8E005FA03F632406FD04F68012F10
:1006B00005D0022F03D0112F01D0122F17D1D0F85F
:1006C00008905F0004FA07F829EA08090097D1F8B2
:1006D0000C8008FA07F848EA0908C0F8088047685B
:1006E000B7430E79C6F300169E403E434660C66887
:1006F0004FEA430804FA08F7BE4301978F6807FAE8
:1007000008F73743C7604E68022E01D0122E13D16E
:10071000DE0800EB86060096366A5F07FF0E0CFACD
:1007200007F926EA0906D1F8109009FA07F949EA0B
:100730000609009EC6F820900668019FBE430F7907
:1007400007F0030707FA08F7374307604E68F6001B
:1007500060D5354EB76947F00107B761B66923F038
:10076000030706F001060096304E3E44B146B668D7
:100770009F074FEA17780CFA08F7BE43B0F1904F85
:1007800005D02B4FB84204D1012712E042E00027E8
:100790000FE0284FB84201D102270AE0264FB842A5
:1007A00001D1032705E0254FB84201D1042700E01D
:1007B000052707FA08F73743C9F80870DAF8006028
:1007C0005746D1F8048096435FEAC83800D51643EF
:1007D0003E60DBF800605F46D1F8048096435FEA34
:1007E000883800D516433E60DEF800607746D1F8C1
:1007F000048096435FEAC82800D516433E60094F3F
:100800000C373E68D1F8048096435FEA882800D50B
:1008100016433E605B1C0A6832FA03F67FF442AF6F
:10082000BDE8FC8F000401400010024000000140C0
:100830000004004800080048000C00480010004870
:100840000AB1816170478162704700000148806889
:10085000704700000400002090F84120202A24D195
:1008600090F84020012A20D0012280F84020242244
:1008700080F841200268136823F0010313600268C6
:10088000136823F480531360026813680B431360EA
:1008900001680A6842F001020A60202180F84110D4
:1008A000002180F84010084670470220704790F8F9
:1008B0004120202A22D190F84020012A1ED0012276
:1008C00080F84020242280F841200268136823F039
:1008D000010313600268136823F4706343EA012183
:1008E000116001680A6842F001020A60202180F864
:1008F0004110002180F840100846704702207047E0
:1009000070B5040004D094F84100002510B106E051
:10091000012070BD84F84050204600F071F9242079
:1009200084F841002068016821F0010101606068DD
:10093000216820F0706008612068816821F400411E
:100940008160E0680128A06807D040F40440216875
:100950008860E068022803D006E040F40040F6E733
:1009600021684FF40060486020684168114A1143D3
:1009700041602068C16821F40041C160D4E90401EC
:100980000843A16940EA01202168C860D4E9070151
:100990000843216808602068016841F00101016096
:1009A0006564202084F84100256384F842500020CB
:1009B00070BD0000008000022DE9F84F044690F859
:1009C0004100DDF828A01F4690468B4620287ED1A6
:1009D00094F8400001287AD0012084F84000FFF705
:1009E00035FF0646012200901923D103204601F06D
:1009F00025FAE0BB222084F84100102084F8420050
:100A000000256564C4F8248067856563618D31487D
:100A1000FF274FF080784FF00079FF2903D9278511
:100A20003A46009039E0618D218500903AE05946C0
:100A3000204601F0EDF913E001F02CFAB8B9206876
:100A4000406A616A0870606A401C6062208D401EC6
:100A500080B22085618D491E6185618D01B168B1CB
:100A6000608D3246002851462046E5D100E002E084
:100A700001F052FAD0B10120BDE8F88F53460022B0
:100A800080212046009601F0D9F90028F3D1608D2D
:100A9000FF2804D927853A4600954346C7E7608D6D
:100AA0002085009594F828204B46C0E72168202037
:100AB000C86121684A68084B1A404A6084F84100BE
:100AC00084F8425084F840500020D5E7FFE7022028
:100AD000D2E700000024008000E800FE2DE9F84F76
:100AE000044690F84100DDF828A01F4690468B464A
:100AF00020287ED194F8400001287AD0012084F883
:100B00004000FFF7A3FE0646012200901923D103FF
:100B1000204601F093F9E0BB212084F84100102029
:100B200084F8420000256564C4F824806785656305
:100B3000618D3148FF274FF080784FF00079FF2911
:100B400003D927853A46009039E0618D21850090D0
:100B50003AE05946204601F05BF913E001F002FA51
:100B6000B8B9606A216800788862606A401C606277
:100B7000608D401E6085208D401E80B22085618D75
:100B800001B168B1608D3246002851462046E5D15A
:100B900000E002E001F0C0F9D0B10120BDE8F88F1B
:100BA0005346002280212046009601F047F9002894
:100BB000F3D1608DFF2804D927853A460095434636
:100BC000C7E7608D2085009594F828204B46C0E744
:100BD00021682020C86121684A68084B1A404A6091
:100BE00084F8410084F8425084F840500020D5E752
:100BF000FFE70220D2E700000020008000E800FEAE
:100C000010B586B0044614216846FFF74CFC134922
:100C1000206888421FD1124C606940F480206061D6
:100C20006069694600F4802005904FF440700090A0
:100C300012200190012002900320039004200490D0
:100C40000848FFF721FDE06940F40010E061E06929
:100C500000F40010059006B010BD000000540040E4
:100C600000100240000400480248816802781144E4
:100C70008160704704000020074810B5016841F00A
:100C800010010160032000F061F8002000F006F878
:100C900000F024F8002010BD0020024070B50D4D7A
:100CA00004464FF47A712878B1FBF0F00A490968DC
:100CB000B1FBF0F000F056FD48B9102C07D200222D
:100CC0002146501E00F022F800206C6070BD01200B
:100CD00070BD000004000020100000200A4882B00F
:100CE000816941F001018161816901F00101009197
:100CF000C16941F08051C161C06900F0805000902D
:100D0000072002B000F022B800100240F0B40E4BF1
:100D10001B680C46C3F30223C3F10705042D00D959
:100D20000425191D072901D2002300E0DB1E01263E
:100D300006FA05F1491E214099409E40761E164054
:100D40003143F0BC01F0BDBE0CED00E0064900F0FF
:100D5000070208684FF6FF03184040EA0220034AE2
:100D600010430860704700000CED00E00000FA0539
:100D70002DE9F84F044600680026804DC0036ED56B
:100D8000E869C00008D4E86940F08050E861E8698B
:100D9000012600F08050009079480168C90512D4FE
:100DA0000168804641F480710160FFF74FFD0746FE
:100DB00005E000BFFFF74AFDC01B642835D8D8F80E
:100DC0000000C005F6D5286A10F4407053D0A18801
:100DD00001F4407181424ED0286A4FF4803191FA7B
:100DE000A1F2B2FA82F29700664A4FF00108174466
:100DF00020F44070C7F8008491FAA1F1B1FA81F1B2
:100E000002EB81010023C1F800342862C00732D010
:100E1000FFF71CFD074641F2883A4FF0020907E050
:100E2000FFF714FDC11B514502D90320BDE8F88F1F
:100E300099FAA9F0B0FA80F040F040024946B8EBC8
:100E4000521F01D12A680CE091FAA1F2B2FA82F2A3
:100E500042F04002B1EB521F02D12A6A01E015E0D4
:100E60006A6A99FAA9F1B1FA81F101F01F0108FA51
:100E700001F00242D4D0286A616820F4407008432F
:100E800028621EB1E86920F08050E8612078C00730
:100E900005D0286BA16820F0030008432863207860
:100EA000800705D5286BE16820F4403008432863AB
:100EB0002078400705D5286B216920F4402008439D
:100EC00028632078800605D5286BE16920F01000A2
:100ED000084328632068800305D56868A16B20F467
:100EE0008000084368602078400605D5286B216A99
:100EF00020F02000084328632078000705D5286BE0
:100F0000616920F44010084328632078C00605D5A5
:100F1000286BA16920F440000843286320888005DD
:100F200005D56868E16A20F400000843686020780D
:100F3000000605D5E86A616A20F4F8700843E862A3
:100F40002088C00505D5E86AA16A20F478500843D6
:100F5000E8622088C00405D5286B216B20F48070DE
:100F6000084328632088800405D5286B616B20F432
:100F7000007008432863002058E70000001002407A
:100F800000700040000042422DE9F0470F46050086
:100F900069D04A4E306800F00700B84209D2306884
:100FA00020F0070038433060306800F00700B84296
:100FB00059D12878424C800705D56068A96820F08F
:100FC000F000084360602878C0073DD069680120C0
:100FD00001290DD0022923D05FF0020393FAA3F276
:100FE000B2FA82F242F02002520904D0226803E0F1
:100FF0004FF40033F2E7626A93FAA3F3B3FA83F390
:1010000003F01F03984002422DD0606820F00300D7
:1010100008436060FFF71AFC804641F288390CE013
:101020004FF00073DAE700BFFFF710FCA0EB0801F8
:10103000494502D90320BDE8F0876068696800F07F
:101040000C00B0EB810FEFD1306800F00700B84220
:101050000BD9306820F0070038433060306800F06A
:101060000700B84201D00120E5E72878400705D500
:101070006068E96820F4E060084360602878000751
:1010800006D56068296920F4605040EAC1006060BC
:1010900000F04EF86168F02292FAA2F201F0F0013D
:1010A000B2FA82F2D140074A515CC8400649086052
:1010B00006480068FFF7F2FD0020BCE70020024070
:1010C00000100240F22B0008100000200800002051
:1010D00008480949006849684FF4E06292FAA2F2B0
:1010E00001F4E061B2FA82F2D140044A515CC84096
:1010F000704700001000002000100240022C000881
:1011000008480949006849684FF4605292FAA2F20F
:1011100001F46051B2FA82F2D140044A515CC840F5
:10112000704700001000002000100240022C000850
:10113000164A10B55168164801F00C03042B20D054
:10114000082B1ED14FF4701494FAA4F401F4701318
:10115000B4FA84F4E3400F4CD26AE45C0F2393FAB0
:10116000A3F302F00F02B3FA83F3DA40094B103312
:10117000C9039A5C06D500231946FFF779F8A0FB4E
:10118000040110BD0448A4FB000110BD0010024082
:1011900000127A00D22B000800093D002DE9F84F1B
:1011A000050071D02878FC4EC0074FF0010425D00F
:1011B00070686704C0F38100012807D07068C0F32D
:1011C000810002281BD17068C00318D597FAA7F0D8
:1011D000B0FA80F040F02000400901D0306800E013
:1011E000706A97FAA7F1B1FA81F101F01F0104FAD0
:1011F00001F1084265D068680028D2D061E06868D3
:10120000B0F5803F0BD010B1B0F5A02F17D03068EB
:1012100020F480303060306820F4802002E03068B4
:1012200040F480303060F06AA96820F00F00084375
:10123000F062686820B3FFF709FB80460AE0306877
:1012400040F480203060EAE7FFF700FBA0EB0800E5
:10125000642871D897FAA7F0B0FA80F040F0200027
:10126000400901D0306800E0706A97FAA7F1B1FA3E
:1012700081F101F01F0104FA01F10842E4D020E0FD
:10128000FFF7E4FA804607E0C2E000BFFFF7DEFAAE
:10129000A0EB08006428DCD897FAA7F0B0FA80F039
:1012A00040F02000400901D0306800E0706A97FAF1
:1012B000A7F1B1FA81F101F01F0104FA01F108422E
:1012C000E4D12878DFF8D48280074FF0000A4FF08D
:1012D000020730D570684FF0F80B10F00C0F07D0F4
:1012E0007068C0F38100022827D17068C00324D43D
:1012F00097FAA7F0B0FA80F040F02000400901D042
:10130000306800E0706A97FAA7F1B1FA81F101F054
:101310001F0104FA01F1084202D02869012877D19F
:1013200030689BFAABF220F0F8016869B2FA82F2F9
:101330009040014331605AE064E1286988B394FA2F
:10134000A4F0B0FA80F048F82040FFF77FFA814619
:1013500006E000BFFFF77AFAA0EB090002289AD84E
:1013600097FAA7F0B0FA80F040F02000400901D0D1
:10137000306800E0706A97FAA7F1B1FA81F101F0E4
:101380001F0104FA01F10842E4D030689BFAABF285
:101390006969B2FA82F220F0F800914008433060A7
:1013A00025E0FFE794FAA4F0B0FA80F048F820A016
:1013B000FFF74CFA814605E0FFF748FAA0EB090079
:1013C0000228CCD897FAA7F0B0FA80F040F02000BD
:1013D000400901D0306800E0706A97FAA7F1B1FACD
:1013E00081F101F01F0104FA01F10842E4D12878EB
:1013F00000076CD5A869A8B394FAA4F0B0FA80F0FD
:1014000008EB8000C0F88044FFF720FA814607E02F
:10141000A4E100BFFFF71AFAA0EB090002289ED84A
:1014200097FAA7F0B0FA80F040F06000B4EB501FDC
:1014300001D130680BE097FAA7F0B0FA80F040F0E5
:101440006000B7EB501F01D1306A00E0706A97FA74
:10145000A7F1B1FA81F101F01F0104FA01F2104283
:10146000D8D034E0FFE794FAA4F1B1FA81F108EBA7
:101470008101C1F880A4FFF7E9F9814606E000BFC9
:10148000FFF7E4F9A0EB090002289AD897FAA7F031
:10149000B0FA80F040F06000B4EB501F01D130682A
:1014A0000BE097FAA7F0B0FA80F040F06000B7EBDD
:1014B000501F01D1306A00E0706A97FAA7F1B1FAC3
:1014C00081F101F01F0104FA01F21042D8D128780D
:1014D000400768D5F0694FF00009C00009D4F069F1
:1014E00040F08050F061F0694FF0010900F0805049
:1014F00000902B480168C90512D4016841F480713D
:101500000160FFF7A3F9834606E000BFFFF79EF9ED
:10151000A0EB0B00642875D821480068C005F5D5FC
:10152000E86801280AD008B1052811D0306A20F0F7
:1015300001003062306A20F0040002E0306A40F0BE
:1015400001003062E86868B3FFF780F983460DE078
:10155000306A40F004003062F0E700BFFFF776F930
:10156000A0EB0B0141F2883081424BD897FAA7F0EB
:10157000B0FA80F040F04000B4EB501F01D1306869
:1015800013E097FAA7F0B0FA80F040F04000B7EB14
:10159000501F09D1306A08E00010024000004242AA
:1015A000007000400CE040E0706A97FAA7F1B1FAD1
:1015B00081F101F01F0104FA01F21042CED02DE0BA
:1015C000FFF744F9834607E0FFF740F9A0EB0B0172
:1015D00041F28830814215D897FAA7F0B0FA80F02E
:1015E00040F04000B4EB501F01D130680CE097FA96
:1015F000A7F0B0FA80F040F04000B7EB501F02D1E6
:10160000306A01E083E0706A97FAA7F1B1FA81F1DC
:1016100001F01F0104FA01F21042D5D1B9F1000F17
:1016200003D0F06920F08050F061E86980B3716800
:10163000C1F38101022977D04FF080714F00022859
:10164000504609D091FAA1F1B1FA81F148F8210090
:10165000FFF7FCF805465DE0894691FAA1F1B1FA81
:1016600081F1C24648F82100FFF7F0F8804605E016
:10167000FFF7ECF8A0EB0800022848D897FAA7F08B
:10168000B0FA80F040F02000400902D0306801E05C
:1016900066E0706A97FAA7F1B1FA81F101F01F01D3
:1016A00004FA01F10842E3D1D5E908100843716852
:1016B00021F474110843706099FAA9F0B0FA80F02F
:1016C0004AF82040FFF7C2F8054604E0FFF7BEF8ED
:1016D000401B02281BD897FAA7F0B0FA80F040F020
:1016E0002000400901D0306800E0706A97FAA7F145
:1016F000B1FA81F101F01F0104FA01F10842E5D0CD
:101700002EE000BFFFF7A2F8401B022802D90320F9
:10171000BDE8F88F97FAA7F0B0FA80F040F020000B
:10172000400902D0306801E00BE0706A97FAA7F137
:10173000B1FA81F101F01F0104FA01F10842E1D18F
:101740000EE00128E4D070682A6A00F480319142EA
:1017500004D1696A00F47010884201D00120D7E7F3
:101760000020D5E710B5401EB0F1807F01D30120E5
:1017700010BD4FF0E02460610F21601701F0A1F966
:101780000020A06107202061002010BD30B590F836
:101790003C20012A3AD0012280F83C20CA688B689C
:1017A00022F440721A434B6822F480621A430B6899
:1017B00022F400621A430B6922F480521A434B69E7
:1017C00022F400521A438B6A22F480421A430B8B94
:1017D00022F4702242EA03420D4D03680024AB421A
:1017E00002D00C4DAB420CD18D8C22F4700242EA37
:1017F0000552CD6922F080722A43096A22F00072F4
:101800000A435A6480F83C40002030BD022030BDBD
:10181000002C014000340140F0B590F83C20012A32
:1018200036D0012480F83C40022280F83D20026836
:1018300053689568174E184FB24201D0BA4204D18E
:1018400023F4700C4B6843EA0C0323F0700C0B6814
:1018500043EA0C0353600268B2420DD0B2F1804FEC
:101860000AD00E4B9A4207D00D4B9A4204D0BA428E
:1018700002D00C4B9A4204D1896825F080031943A9
:10188000916080F83D40002180F83C100846F0BD92
:101890000220F0BD002C0140003401400004004053
:1018A000000800400040014010B5040003D094F847
:1018B0003D0010B107E0012010BD002084F83C007D
:1018C000204600F023F8022084F83D00211D206806
:1018D00000F018FD012084F8480084F83E0084F8E8
:1018E0003F0084F8400084F8410084F8420084F806
:1018F000430084F8440084F8450084F8460084F8E6
:10190000470084F83D00002010BD000008B50068C5
:101910000649884208D10648816941F40061816125
:10192000806900F40060009008BD0000002C0140B8
:101930000010024070B5044690F83C00012817D012
:10194000012584F83C50022084F83D00226890680C
:101950002E4B184020F47F4090600868502830D00B
:101960000DDC20284DD005DC98B310283BD148E091
:10197000022070BD302844D0402834D139E060289E
:1019800028D0702806D0B0F5805F2CD0B0F5005F6D
:1019900029D10AE0CB68D1E90121206800F00AFDD5
:1019A0002068816841F0770109E0CB68D1E9012125
:1019B000206800F0FFFC2068816841F4804181606C
:1019C00011E0CA684968206800F08EFE5021206846
:1019D00007E016E0CA684968206800F096FE6021BA
:1019E000206800F0F1FC84F83D50002084F83C00B1
:1019F00070BDCA684968206800F076FE4021206802
:101A0000EFE7226801461046EBE7000088FFFEFF83
:101A100010B586B0044614216846FEF744FD0E4911
:101A20002068884215D10D48416941F40011416197
:101A30004069002100F4001005904FF40070009000
:101A40000220CDE90101CDE9031069460448FEF703
:101A50001BFE06B010BD0000002C0140001002402B
:101A60000010004870B5044690F83C000D4601286F
:101A70000BD0012084F83C000C2A45D007DC5AB179
:101A8000042A1BD0082A78D12CE0022070BD102A2D
:101A90004ED0142A71D15DE0206800F09DFC2068D2
:101AA000816941F0080181612068816921F00401A8
:101AB0008161206881692A69114311E0206800F082
:101AC000D9FC2068816941F40061816120688169E5
:101AD00021F480618161206881692A6941EA0221DB
:101AE00081614AE0206800F00DFD2068C16941F085
:101AF0000801C1612068C16921F00401C161206849
:101B0000C1692A69114311E0206800F043FD206893
:101B1000C16941F40061C1612068C16921F480613B
:101B2000C1612068C1692A6941EA0221C16124E0DA
:101B3000206800F069FD2068416D41F008014165B1
:101B40002068416D21F0040141652068416D2A69DA
:101B5000114311E0206800F08FFD2068416D41F4D1
:101B6000006141652068416D21F480614165206814
:101B7000416D2A6941EA02214165002084F83C0058
:101B800070BD10B5040003D094F83D0010B107E01B
:101B9000012010BD002084F83C00204600F022F80F
:101BA000022084F83D00211D206800F0ABFB0120DD
:101BB00084F8480084F83E0084F83F0084F8400030
:101BC00084F8410084F8420084F8430084F844001B
:101BD00084F8450084F8460084F8470084F83D0006
:101BE000002010BD704710B5040002D0A06F10B1E6
:101BF00007E0012010BD002084F87400204600F0AA
:101C000025F82420A0672068016821F00101016007
:101C1000204600F01FFE0128ECD0606A10B120467B
:101C200000F085FD2068416821F490414160206802
:101C3000816821F02A0181602068016841F001017A
:101C400001602046BDE8104000F0D5BD10B586B05B
:101C5000044614216846FEF726FC13492068884292
:101C600020D11248816941F480418161816901F488
:101C700080410591416941F4003141614069694603
:101C800000F4003005904FF4C060009002200190F5
:101C90000020029003200390072004904FF0904012
:101CA000FEF7F2FC06B010BD003801400010024003
:101CB0002DE9F8430446806F1F4616460D4620283E
:101CC0004FD1CDB1C6B194F87400012849D001209C
:101CD00084F874004FF00008C4F880802120A067C9
:101CE000FEF7B4FDA4F850608146A4F85260A068E5
:101CF000B0F5805F03D004E00120BDE8F8832069DF
:101D000028B12E465FF0000584F8748010E00026AC
:101D1000FAE78021204600F081FEB8B9C6B116F876
:101D2000010B21680885B4F85200401EA4F8520047
:101D3000B4F852004B464FF0000200970028E8D15B
:101D40004FF04001204600F069FE30B10320D4E797
:101D500035F8020BC0F30800E3E72020A06700205D
:101D6000CBE70220C9E7FEE701688A69D243920700
:101D700001D400228A6200688169C943C90703D07F
:101D8000816941F001018161704700002DE9F04156
:101D90000446006890460E468069C043C00633D4AE
:101DA0000025202720688069C043800615D5701C57
:101DB000F8D0FEF74BFDA0EB0800B04201D8002E92
:101DC000F0D154F8440F40F0200044F80409677043
:101DD000A57025700120BDE8F08121681020C86140
:101DE0002068C7612046FFF7BFFF54F8440B4168E5
:101DF000064A11404160206840F0040044F8200980
:101E00006777A5772577E5E70020E4E700E800FE9F
:101E1000F0B50568059C68684FF48066064FC1F30D
:101E2000090106EA545641EA02413E431943B043D0
:101E3000214308436860F0BDFF63FF032DE9F041D3
:101E40001D4617460E460446DDF8188008E0681C5B
:101E500006D0FEF7FBFCA0EB0800A8420BD855B15A
:101E60002068806936EA000012D00020B842EED027
:101E70000020BDE8F08154F8440F40F0200044F801
:101E80000409202060700020A07020700120F0E77D
:101E90000120EBE72DE9F041002690460F4604466D
:101EA000202525E0424639462046FFF76FFF78BBE4
:101EB00020688069C043800613D420688169C943C3
:101EC000490701D4218DC1B9C56154F8440B41685B
:101ED000104A1140416044F820696577A67726775B
:101EE00016E0FEF7B3FCA0EB0800B84208D83FB1FB
:101EF00020688069C0434007D4D40020BDE8F08149
:101F000054F8440F40F0200044F80409657026702E
:101F10000120F3E700E800FE70B516460D460446C2
:101F20000DE0324629462046FFF730FF08B1012078
:101F300070BDFEF78BFC801BA84207D835B1206826
:101F40008069C0438006ECD4002070BD54F8440F73
:101F500040F0200044F80409202060700020A070A8
:101F60002070E4E770B516460D4604460FE0324691
:101F700029462046FFF70AFF08B1012070BD681C02
:101F800005D0FEF763FC801BA84207D835B1206856
:101F90008069C0438007EAD4002070BD54F8440F24
:101FA00040F0200044F80409202060700020A07058
:101FB0002070E2E7F0B587B014216846FEF773FAA7
:101FC0004748416941F400114161416901F4001140
:101FD0000591416941F400214161416901F4002109
:101FE0000591416941F480014161416901F4800139
:101FF0000591416941F400314161416901F40031C9
:102000000591416941F480114161416901F48011F8
:102010000591416941F4802141614069314E00F4EC
:1020200080204FF608550590002229463046FEF7DD
:1020300007FC372000902C480024CDE901046946B4
:102040003046FEF721FB00950125CDE90154694694
:1020500030460394FEF718FBCDE900544FF090474B
:10206000694638460294FEF70FFBE0200225CDE9D1
:102070000005032602940520CDE903606946384631
:10208000FEF702FBE8020090CDE9015469461748CB
:10209000CDE90345FEF7F8FA4FF470700090CDE9F2
:1020A000015469461248CDE90345FEF7EDFAE8010F
:1020B0000090CDE901540A20CDE903406946384635
:1020C000FEF7E2FAF002CDE9000502940E20CDE918
:1020D000036069463846FEF7D7FA07B0F0BD000046
:1020E000001002400010004800001210000C0048D0
:1020F00000080048134810B51149016012494160B9
:1021000000210122C0E90212016141618161C161C6
:102110000162FEF7F5FB08B1FEF7A1FA00210948BC
:10212000FEF79AFB08B1FEF79AFA00210548FEF780
:10213000BEFB002803D0BDE81040FEF790BA10BDEA
:1021400000540040140000200E09002010B59AB081
:1021500000241794189415941694129413941C2127
:102160000BA81494FEF79FF92C216846FEF79BF903
:102170002B482A49C0E900144FF41071C0E902410C
:1021800080210461C0E90541FFF78EFB08B1FEF72D
:1021900066FA4FF48050159015A92148FFF7CAFB45
:1021A00008B1FEF75CFA1E48FFF7EBFC08B1FEF73A
:1021B00056FA1294139412A919481494FFF72CFBA1
:1021C00008B1FEF74CFA6020CDE90B040D940E9493
:1021D0000F94109400220BA911481194FFF742FCB0
:1021E00008B1FEF73CFA00944FF40050CDE90440EA
:1021F00001940294039400030694CDE907400994E6
:10220000694607480A94FFF7C1FA08B1FEF727FAB2
:102210000348FFF7FDFB1AB010BD0000002C014081
:10222000600000200D4810B50B4901604FF4E1310A
:102230004160002181600C22C160C0E9041281610B
:10224000C16101624162FFF7CEFC002803D0BDE806
:102250001040FEF704BA10BD00380140AC00002069
:10226000FEE7FEE770477047FEF7FEBC30B59FB053
:1022700028210FA8FEF717F9142119A8FEF713F962
:102280003C216846FEF70FF903200F904FF4A02081
:102290000024CDE910040120139010201490022591
:1022A0000003CDE916504FF4E01018900FA8FEF788
:1022B00075FF08B172B6FEE70F20CDE919054FF49E
:1022C0008060CDE91B40022119A81D94FEF75CFE39
:1022D00008B172B6FEE741F2210002940794009023
:1022E0000C946846FEF744FD002801D072B6FEE764
:1022F0001FB030BD0248016841F4700101607047B1
:1023000088ED00E02DE9F0430268234B234D244E75
:10231000244C4FF08049984207D0484505D0A84248
:1023200003D0B04201D0A04203D122F070074A6826
:102330003A431D4FDFF874C0DFF8748098420DD027
:1023400048450BD0A84209D0B04207D0A04205D0E2
:10235000B84203D0604501D0404503D122F4407516
:10236000CA682A434D6922F080022A4302608A68C3
:10237000C2620A688262984207D0A04205D0B84281
:1023800003D0604501D0404501D1096901630121B5
:102390004161BDE8F0830000002C014000040040D2
:1023A000000800400034014000400140004401406A
:1023B0000048014010B5846842EA032224F47F44B7
:1023C0000A432243826010BD826822F070020A43F1
:1023D00042F00701816070472DE9F043026A22F064
:1023E00001020262056A436882691C4C25F00205FD
:1023F00022400C6822F0030214438A68194E2A43D3
:10240000174D194FDFF864C0DFF86490A84207D079
:10241000B04205D0B84203D0604501D0484506D14E
:1024200022F00808CA6842EA080222F00402A84220
:1024300007D0B04205D0B84203D0604501D048452E
:1024400005D14D6923F440731D438B692B434360D1
:102450008461496841630262BDE8F0838FFFFEFF3B
:10246000002C014000340140004001400044014084
:1024700000480140F0B5026A22F010020262056ACB
:1024800042688369194C1B4E23400C6823F4407347
:1024900043EA042425F020038D6843EA0513144D14
:1024A000A84201D0B04206D1CF6823F0800343EAAE
:1024B000071323F04003A8420AD0B04208D00E4DC3
:1024C000A84205D00D4DA84202D00D4DA84207D11B
:1024D0004D6922F4406242EA85028D6942EA850232
:1024E00042608461496881630362F0BDFF8FFFFE33
:1024F000002C0140003401400040014000440140F4
:1025000000480140F0B5026A22F480720262056A56
:102510004368C269194C1B4E22400C6822F003022A
:10252000144325F400728D6842EA0522144DA84236
:1025300001D0B04206D1CF6822F4006242EA0722FD
:1025400022F48062A8420AD0B04208D00E4DA842C0
:1025500005D00E4DA84202D00D4DA84207D14D69BD
:1025600023F4405343EA05138D6943EA051343609E
:10257000C4614968C1630262F0BD00008FFFFEFFC5
:10258000002C014000340140004001400044014063
:102590000048014030B5026A22F480520262046AA7
:1025A0004268C369124D24F400542B400D6823F493
:1025B000407343EA05238D6844EA05340D4DA84273
:1025C0000BD00D4DA84208D00C4DA84205D00C4DA3
:1025D000A84202D00B4DA84204D14D6922F480429A
:1025E00042EA85124260C36149680164046230BDF9
:1025F000FF8FFFFE002C01400034014000400140ED
:10260000004401400048014030B5026A22F48032A3
:102610000262046A4268436D114D2B400D681D43F0
:1026200024F400330C8943EA04430E4CA0420BD03F
:102630000D4CA04208D00D4CA04205D00C4CA0423D
:1026400002D00C4CA04204D14C6922F4803242EA00
:1026500004224260456549688165036230BD00001F
:102660008FFFFEFF002C014000340140004001407C
:10267000004401400048014030B5026A22F4801253
:102680000262046A4268436D114D24F400142B4029
:102690000D6843EA05230D8944EA05540D4DA8420F
:1026A0000BD00D4DA84208D00C4DA84205D00C4DC2
:1026B000A84202D00B4DA84204D14D6922F48022D9
:1026C00042EA8522426043654968C165046230BDC3
:1026D000FF8FFFFE002C014000340140004001400C
:1026E000004401400048014010B5036A046A24F028
:1026F00001040462846924F0F00444EA021423F023
:102700000A020A438461026210BD10B5036A23F015
:10271000100303628369046A23F4704343EA0232BC
:1027200024F0A00343EA01118261016210BD90F818
:102730002410C90706D001684A68836A22F400326F
:102740001A434A6090F82410890706D501684A6840
:10275000C36A22F480321A434A6090F82410490771
:1027600006D501684A68036B22F480221A434A6046
:1027700090F82410090706D501684A68436B22F4D3
:1027800000421A434A6090F82410C90606D5016831
:102790008A68836B22F480521A438A6090F824106E
:1027A000890606D501688A68C36B22F400521A4371
:1027B0008A6090F82410490611D501684A68036CB4
:1027C00022F480121A434A60016CB1F5801F06D1D1
:1027D00001684A68436C22F4C0021A434A6090F8C8
:1027E0002410090606D501684A68806C22F400228C
:1027F00002434A607047F8B500260446C0F880607E
:10280000FEF724F80546206800686FF07E47000751
:1028100008D52B4600224FF400112046009700F007
:10282000FDF860B92068006840070AD52B460022F1
:102830004FF480012046009700F0F0F808B1032023
:10284000F8BD2020A067E067266684F87460002049
:10285000F8BD000070B5044680682169E26908434C
:1028600061690025114322680843116849F20C632D
:1028700099430143116020684168E26821F44051A6
:1028800011434160216AA06901432068826822F4F3
:1028900030620A4382605A4A20685A4990420CD1F9
:1028A000086B10F0030006D001285FD002285FD02B
:1028B000032845D158E0012143E0534A90420DD10D
:1028C000086B10F440304DD0B0F5803F4ED0B0F5DD
:1028D000003F4DD0B0F5403F32D145E04B4A9042E9
:1028E0000DD1086B10F440203CD0B0F5802F3DD0C6
:1028F000B0F5002F3CD0B0F5402F21D134E0444A50
:1029000090420DD1086B10F440102BD0B0F5801F11
:102910002CD0B0F5001F2BD0B0F5401F10D123E014
:102920003C4A90420CD1086B10F440001AD0B0F52C
:10293000800F1BD0B0F5000F1AD0B0F5400F13D0A8
:102940001021E3694FF40040334A4FF6EF7683429B
:102950002ED109294AD2DFE801F00D10134915499B
:10296000494918000021ECE70221EAE70421E8E7E1
:102970000821E6E7FEF7ACFB06E0FEF7C1FB03E04B
:10298000104602E0FEF7D4FB88B34100606801EB1B
:102990005001B1FBF0F081B2A1F11000B04225D896
:1029A0004FF6F07201EA0200C1F3420108431FE052
:1029B00009291BD2DFE801F005080B1A0D1A1A1AB3
:1029C0001000FEF785FB06E0FEF79AFB03E01046D9
:1029D00002E0FEF7ADFB50B1616800EB5100B0FBC7
:1029E000F1F080B2A0F11001B14201D9012501E05E
:1029F0002168C86000206066A066284670BD00009F
:102A000000380140001002400044004000480040EF
:102A1000004C00400050004000127A002DE9F047C1
:102A20009A4617460E4604464FF000094FF020081C
:102A3000089D39E0681C37D0FDF708FFA0EB0A00BD
:102A4000A84222D80DB32068016849072CD5C06977
:102A5000C043000528D421684FF400600862206854
:102A6000016821F4D07101602068816821F00101C2
:102A70008160C4F87880C4F87C80C4F8808000BF8E
:102A800084F874900320BDE8F0872068016821F481
:102A9000D07101602068816821F001018160C4F873
:102AA0007880C4F87C80EBE72068C06936EA0000D3
:102AB00004D00020B842BDD00020E4E70120F9E7AF
:102AC000FEE70907090E002804DB00F1E02080F88A
:102AD0000014704700F00F0000F1E02080F8141D92
:102AE000704700008AB0FEF7C7F8FFF7BFFBFFF79B
:102AF00061FAFFF72BFBFFF7FDFAFFF793FB2DA021
:102B00000068059075208DF8180000208DF81C00D5
:102B100043218DF82010019002908DF80000451E91
:102B2000254C0095012306AA21782448FDF7D6FFFD
:102B300010B101208DF800000095012307AA21782B
:102B40001E48FDF739FF10B102208DF800004FF448
:102B500096760095012308AA21781848FDF7BEFF54
:102B600010B103208DF800000095062301AA2178FA
:102B70001248FDF721FF10B104208DF80000BDF8C8
:102B800004000FA140BA02B203A8FDF7E9FB03A8B5
:102B9000FDF76AFC82B22B4603A90A48FFF788F8C2
:102BA0002B46022205A90748FFF782F83046FDF7B9
:102BB00059FDCEE70D0A000000000020140000209F
:102BC00025640000AC0000204FF04070E1EE100AD8
:102BD000704702030405060708090A0B0C0D0E0FC7
:102BE00010100102030405060708090A0B0C0D0E5C
:102BF0000F1000000000000000000102030406079F
:102C00000809000000000102030400002C2C000849
:102C10000000002014000000C4010008402C00083F
:102C2000140000207C070000E0010008D000000034
:102C300001000000100000000000000000127A00F7
:040000050800018965
:00000001FF
