:020000040800F2
:100000000008002049020008C73D00081738000812
:10001000C53D0008611500082D46000800000000DD
:10002000000000000000000000000000CB3D0008C0
:100030006315000800000000C93D0008CD3D000820
:1000400063020008630200086302000863020008FC
:1000500063020008630200086302000863020008EC
:1000600063020008630200086302000863020008DC
:1000700063020008630200086302000863020008CC
:1000800063020008630200086302000863020008BC
:100090006302000863020008630200086515000897
:1000A000630200086302000863020008630200089C
:1000B00063020008630200086302000819380008A0
:1000C000630200086302000863020008630200087C
:1000D000630200086302000863020008630200086C
:1000E000630200086302000863020008630200085C
:1000F000630200086302000863020008630200084C
:100100000000000000000000000000006302000882
:10011000630200086302000863020008630200082B
:10012000630200086302000863020008630200081B
:1001300063020008630200080000000000000000E5
:100140006302000863020008630200080000000068
:10015000000000000000000000000000000000009F
:1001600000000000000000006302000863020008B5
:100170006302000800000000000000000000000012
:10018000000000006302000800F002F800F04CF8E4
:100190000AA090E8000C82448344AAF10107DA45E2
:1001A00001D100F041F8AFF2090EBAE80F0013F0E8
:1001B000010F18BFFB1A43F001031847384A00002B
:1001C000584A0000103A24BF78C878C1FAD85207BC
:1001D00024BF30C830C144BF04680C6070470000C1
:1001E0000023002400250026103A28BF78C1FBD840
:1001F000520728BF30C148BF0B607047662904F022
:100200009084642900F00081002070471FB504F03D
:100210007EFC00F005FC04000020002104F0C0FA80
:10022000E0601FBD10B510BD00F0FAFC1146FFF7ED
:10023000EDFF04F071FA00F018FD03B4FFF7F2FFD0
:1002400003BC00F05BFD00000948804709480047F7
:10025000FEE7FEE7FEE7FEE7FEE7FEE7FEE7FEE776
:10026000FEE7FEE704480549054A064B70470000D3
:10027000613E0008890100080002002000080020FB
:10028000000400200004002053EA020C00F0698002
:100290002DE9F04B4FF00006002B1FBFB3FA83F59A
:1002A00003FA05F424FA05F65E4012BF1643B2FACB
:1002B00082F502FA05F4C5F120051EBF22FA05FCFD
:1002C00044EA0C04203556EA044C4FEA144418BFA3
:1002D000641C4FF000084FF00009904271EB030CD2
:1002E00039D3002919BFB1FA81F701FA07F6B0FA3C
:1002F00080F700FA07F6C7F120071EBF20FA07FCB7
:1003000046EA0C062037B6FBF4FCA7EB0507103FC6
:1003100007F01F0BCBF120060CFA0BFB2CFA06F6AC
:1003200044BFB3460026202FA4BF5E464FF0000B0B
:100330005BEA060C08BF4FF0010B19EB0B09ABFB96
:10034000027C48EB0608C01B06FB02CC0BFB03CC6F
:1003500071EB0C01C1E70B46024641464846BDE839
:10036000F08B13B54FF000004FF00001AFF30080A9
:10037000BDE81C40704700000FB41CB5074B06AA2F
:100380007B4469460090059800F031FB00206946E7
:1003900000F040FB1CBC5DF814FB0000910600005F
:1003A0002DE9F0410E460446002020622046E16817
:1003B000884730B3252805D0D4E901219047206A29
:1003C000401CF2E7E168204600278847050018D066
:1003D000A5F14100192802D820354FF400673246B4
:1003E000294620462760FFF709FF40B1012804D0C5
:1003F000F61D26F007060836D8E7361DD6E728464C
:10040000DAE7206ABDE8F0812DE9F04106460024D4
:1004100010687529314616A510D0AFF3008000286A
:1004200002DA404213A507E031688A0701D512A518
:1004300002E0490704D511A5012401E0AFF30080D3
:1004400000210A2206F1240709E0B0FBF2FCB0FB10
:10045000F2F302FB1C00303078541846491C002887
:10046000F3D123462A463046BDE8F04100F051B8AA
:10047000000000002D0000002B0000002000000004
:1004800010B5431C02E010F8011B71B18107FAD1CD
:100490004FF0013202C88C1A8C4314EAC211F9D011
:1004A000C01A0A0603D0C01E10BDC01A10BD0A042F
:1004B00001D0801E10BD0902FCD0401E10BD4FF0BF
:1004C000000200B5134694469646203922BFA0E8A4
:1004D0000C50A0E80C50B1F12001BFF4F7AF0907B0
:1004E00028BFA0E80C5048BF0CC05DF804EB8900A1
:1004F00028BF40F8042B08BF704748BF20F8022BE4
:1005000011F0804F18BF00F8012B704770477047FB
:1005100070472DE9F0470D4699469246044600F192
:1005200024080168880604D5E06921F010012160E3
:1005300000E00120A84201DD471B00E00027A1697F
:100540007A1902EB0900081AA0612078C00602D4CB
:100550002046AFF30080002608E0D4E901211AF814
:1005600006009047206A401C761C20624E45F4DB52
:100570002078C0060AD52046AFF3008006E0D4E913
:10058000012130209047206A401C2062381EA7F1CC
:100590000107F4DC07E0D4E9012118F805009047D1
:1005A000206A401C2062281EA5F10105F3DC2046CC
:1005B000AFF300802078000602D50220BDE8F08766
:1005C0000120FBE770472DE9FF4F0C461E464FF018
:1005D000FF378BB0D2E90001DDF860800A908A46CF
:1005E000C1F30A5505B93D46002108464FF0000009
:1005F000BAF1000F00F4400005DA00EB80004FF480
:10060000400101EA50004FEA9059B9F1010F00DDB5
:10061000B9460A9850EA4A000ED044F61050A5F2A6
:10062000FF3545432F14B8F1000F1ED07542291E27
:100630001EDDC9F100021CE0B8F1010F4FF000000F
:1006400001D0302103E0F24305E02154401CB042C8
:10065000FBDB30460022002121540B99C1F80880B1
:10066000C1E900200FB0BDE8F08FBD1B6D1CDEE7B7
:100670004A4600DA694206A800F05CFA06AB93E845
:10068000070003AB83E8070050460A9900F03DFBE2
:100690008DE80700A0F500501F3800900398002D4A
:1006A0000ADD42F21F014A460844002303A90390D1
:1006B000684600F0A6FD09E0A0F500504A461F3844
:1006C000002303A90390684600F0B0FD8DE8070001
:1006D0000004000C03D04FF0FF30410800E010464A
:1006E000B8F1000F03D00022009215461EE0751EDF
:1006F00005D400F099F9303262556D1EF9D5B34634
:100700000122084302D000227F1C04E02078302818
:1007100001D100227F1E002A099784D01DE0112DEF
:1007200007DA00F081F9303262556D1C50EA01029F
:10073000F5D1084302D00098C8B10EE00021681E30
:1007400005E0235C625C63542254401E491C8142D4
:10075000F7DBAB46A81B401E0990002004F80B00F5
:100760000B98099AC0F80880C0E9002B7AE7112697
:100770004FF0000857E72DE9F04F88460446D21D98
:1007800022F0070191B0D1E90001CDE90A0103F09F
:100790004EFF02460B98C00F01D02D2007E02068C5
:1007A000810701D52B2002E0202101EAC000032AA5
:1007B000099001D0072A05DB03464146204600F098
:1007C00079F90BE12078800601D5E06900E0062088
:1007D000B8F1650F814606D0B8F1660F18D0B8F1B0
:1007E000670F70D131E00020B9F1110F009001DBEB
:1007F000112301E009F101030AAA01A90CA8FFF7DE
:10080000E2FEDDE90C70002609F10105834647E0B0
:1008100001204B4600904FF000470AAA01A90CA8FE
:10082000FFF7D1FEDDE90DB00C995D46002610B949
:1008300009F101000D18B9EB050003D4C0F1FF3632
:1008400009F10105A5EB09002BE0B9F1010F01DA6F
:100850004FF001090020B9F1110F0090484601DD69
:10086000112300E003460AAA01A90CA8FFF7ABFE7A
:10087000DDE90C704D4600268346207800070AD437
:10088000AB4500DA5D4601A8012D04DD411911F8E0
:10089000011C302907D04F4502DA17F1040F04DAA2
:1008A000012082460FE06D1EEEE7002F02DCED1BFB
:1008B0003E4403E0781CA84200DD7D1CB81B00F11B
:1008C000010A4FF000472078000703D4AA4501DB56
:1008D0004FF0FF3A0021B7F1004F0DF143088DF8BA
:1008E000431024D002202B23002F01DA7F422D2336
:1008F0000A21021EA0F1010000DC5FB197FBF1FCB0
:1009000097FBF1F201FB1C7C17460CF1300C08F848
:1009100001CDEEE7A8F1010003702188090501D59A
:10092000452100E06521A0F1010800F8011C0998AB
:100930000FA9A1EB0807FF1D00B10120411901EB30
:10094000EA70A1693844081A401EA0612078C006E8
:1009500002D42046AFF30080099828B1D4E90121E0
:100960009047206A401C20622078C00622D520468D
:10097000AFF300801EE0002E04DBB34502DD01A8CA
:10098000805D00E03020D4E901219047206A401CBE
:100990002062761CAAF101005FEA000A0AD100F089
:1009A0003FF8C0680168405CD4E901219047206AA3
:1009B000401C2062281EA5F10105DCDC07E0D4E91B
:1009C000012118F8010B9047206A401C2062381E54
:1009D000A7F10107F3DC2046AFF30080032011B03C
:1009E00041E6000001694A1C02610878704700B5C1
:1009F0008FB0CDE901310021059105497944CDE958
:100A0000031011466846FFF7CBFC0FB000BD000095
:100A1000E5FFFFFF0A6802F8010B0A60704700005B
:100A200000487047C001002030B5B0F10A024FEA1B
:100A3000900E71F100034EEA817EB0EB0E0061EB87
:100A400091014FEA101E4EEA017E10EB0E0041EBC1
:100A500011114FEA102E4EEA016E10EB0E0041EB21
:100A600011214FEA104E4EEA014E10EB0E0041EB01
:100A70001141401841F100014FEAD00040EA4170B5
:100A80004FEAD10110EB80054FEA810444EA9074EB
:100A900044EB01046D1944EB0404521BA3414FF0D5
:100AA000000348BF0A3200D530BD401C41F10001AF
:100AB00030BD00002DE9F0411F46044603260168C1
:100AC000072A01F4006004DB08B116A505E016A5AD
:100AD00003E008B115A500E015A521F01000206085
:100AE000A069C01EA0610FB1401EA0612046AFF3F7
:100AF00000804FB1D4E9012138469047206A401C5C
:100B00002062C01C206206E0206AFAE7D4E90121D5
:100B100015F8010B9047761EF8D22046AFF30080FF
:100B2000BDE8F0814E414E006E616E00494E4600B8
:100B3000696E66002DE9F047814616468AB0354851
:100B400078440DC88DE80D0032487844801C03AC11
:100B50000DC884E80D0041F69B300844372190FB16
:100B6000F1F290FBF1F5A5F1800501FB12041B3CAD
:100B700002D56442012000E00020DFF898A0804602
:100B80000027FA44AAF1BE0A0EE0E0070AD0324676
:100B9000684607EB470101230AEB810100F046FBA1
:100BA0008DE8070064107F1C002CEED1194F7F44A4
:100BB000AE3F19E0E80715D007EB04100DF1180A55
:100BC00090E80E008AE80E00C068F04201D1981942
:100BD00008903246012306A903A800F027FB03ABC7
:100BE00083E807006D10641C002DE3D14FF0010372
:100BF00032466946B8F1000F03A802D000F001FBAD
:100C000001E000F013FBC9E90001C9F808200AB0AF
:100C1000BDE8F0879840000000487047A001002020
:100C20007546FFF7F9FFAE4605006946534620F0CA
:100C30000700854618B020B5FFF714FBBDE820403B
:100C40004FF000064FF000074FF000084FF0000B88
:100C500021F00701AC46ACE8C009ACE8C009ACE83B
:100C6000C009ACE8C0098D46704710B50446AFF323
:100C700000802046BDE81040FFF7DFBA4FF0013C8E
:100C800050F8042B51F8043B9A4221D1A2EB0C03FB
:100C9000934313EACC1317D150F8042B51F8043BBB
:100CA0009A4215D1A2EB0C03934313EACC130BD158
:100CB00050F8042B51F8043B9A4209D1A2EB0C03E3
:100CC000934313EACC13DBD04FF00000704700BF12
:100CD000D01A01BAB1FA81F101F0180122FA01F03B
:100CE000CB40C1F12001DBB2C0B2C01A2CFA01F333
:100CF000D11A914311EAC311E6D170470149182076
:100D0000ABBEFEE72600020070475FEA400C08BF5A
:100D100091F0000F4FEA8C234FEAC12243EA515170
:100D20004FEA1C5018BF00F5F0404FEA300018BFE2
:100D300041F000415FEA6C5C00F02980BCF1FF3FAC
:100D400008BF40F080407047130C06BF12044FF0FC
:100D5000100C4FF0000C130E04BF12020CF1080C23
:100D6000130F04BF12010CF1040C930F04BF920087
:100D70000CF1020CD30F04BF52000CF1010C114610
:100D80004FF00002A0F11F00A0EB0C00704711F023
:100D9000004F08BF704731F000413FF4D5AF0B0C56
:100DA00006BF09044FF0100C4FF0000C0B0E04BFEF
:100DB00009020CF1080C0B0F04BF09010CF1040C23
:100DC0008B0F04BF89000CF1020CCB0F04BF49004C
:100DD0000CF1010CCCF12003A0EB0C0022FA03F380
:100DE00002FA0CF241EA030100F10100704720F021
:100DF0007F4C80EA030023F07F47ACEB070303F549
:100E00007C5300F0004003F1FF032DE980494FEAD5
:100E1000154B09B44FEA144325EA0B4E24EA034864
:100E20000FF2042606EB132749083E785FEA3202E8
:100E300003FB0667C7F5000707FB06F64FEA5437C2
:100E40004FEAD64606F1020607FB066CCCF1005CC1
:100E50004FEA1C472CEA074C07FB06F40CFB06F58F
:100E600004EB15464FEA961634BF00204FF00040C1
:100E70004FEAD13706FB07FC4FEA1C4C0CFB0BF783
:100E8000D21B03FB0CF761EB07010CFB0EF7B0EB79
:100E9000074072EB17420CFB08F734BFA2EB074286
:100EA000B2EB074261EB17414FEA0C444FEA91075E
:100EB00006FB07FC4FEA1C4C0CFB0BF7B0EBC740E2
:100EC00072EB573203FB0CF734BFA2EBC742B2EB15
:100ED000C74261EB57310CFB0EF7B0EBC70072EB6A
:100EE00057720CFB08F734BFA2EBC702B2EBC70284
:100EF00061EB5771039F4FEA816141EA921104EB64
:100F0000CC044FEAD1374FEA826206FB07FC42EA83
:100F100090124FEA80604FEA1C4C0CFB0BF7D21B7F
:100F200003FB0CF761EB07010CFB0EF7B0EB07407E
:100F300072EB17420CFB08F734BFA2EB0742B2EB8F
:100F4000074261EB17414FEA8C554FEA910704EBDA
:100F50009C2406FB07FC4FEA1C4C0CFB0BF7B0EB88
:100F6000C74072EB573203FB0CF734BFA2EBC7420A
:100F7000B2EBC74261EB57310CFB0EF7B0EBC70089
:100F800072EB57720CFB08F734BFA2EBC702B2EB4F
:100F9000C70261EB577115EB4C254FEA816141EABD
:100FA00092114FEA82624FEAD13742EA901206FB71
:100FB00007FC44F100044FEA80604FEA1C4C0CFB34
:100FC0000BF7D21B03FB0CF761EB07010CFB0EF7D1
:100FD000B0EB074072EB17420CFB08F734BFA2EBF3
:100FE0000742B2EB074261EB174115EB1C154FEAC4
:100FF000813141EA92414FEA823242EA90424FEA1D
:1010000080304FEA0C7644F1000448EA03434EEA8C
:101010000B484FF0000EB2EB080C71EB030724BF36
:10102000624639464EEB0E0E4FF0000B001852414F
:1010300049414BEB0B0BB2EB080C71EB03077BF157
:10104000000B24BF624639464EEB0E0E4FF0000BEC
:101050000018524149414BEB0B0BB2EB080C71EB02
:1010600003077BF1000B24BF624639464EEB0E0EA0
:1010700051EA020718BF46F0010616EB0E7655F14D
:10108000000254F1000103D5BDE88901BDE80088E4
:10109000BDE88901BDE80048B619524141EB0101A4
:1010A000A3F10103704780807F7E7D7C7B7A797815
:1010B000777676757473727171706F6E6E6D6C6C1D
:1010C0006B6A6A69686867666665646463636261BF
:1010D0006160605F5F5E5E5D5D5C5C5B5B5A5A5940
:1010E00059585857575656555555545453535252AC
:1010F0005251515050504F4F4F4E4E4D4D4D4C4C04
:101100004C4B4B4B4A4A4A4949494848484747474C
:101110004746464645454544444444434343434289
:10112000424242414141002B9C4630D477002BD0B3
:101130001CB54FEA370703B44FF010004FF0100111
:10114000BAF1000F06D0BCF1000FDCBF40F0080080
:1011500040F008014FF000000FBCBDE810400BF15B
:10116000010BBBF1010F08BF5FEA170722BF12F1A5
:10117000010211F101014FF0004143F1000300F0C1
:10118000004043EA00007047F9D35708D0E746EA29
:10119000064613F1400F4FEA16461FDD13F1200FEC
:1011A000DFBF16430A46002120335B42BED0C3F1A5
:1011B000200746EA064602FA07F74FEA164646EACD
:1011C0000706C3F1200722FA03F201FA07F721FA12
:1011D00003F14FF0000342EA0702A7E746EA0206DE
:1011E00046EA06464FEA164646EA0106BCBF46EA0C
:1011F0000646360C4FF000034FF000024FF000019E
:1012000094E72DE9804C9A46934670B491E83800F3
:1012100007C831EA400C48BF34EA430C03D5FFF756
:10122000E6FDFFF780FFF0BCBDE8008C2DE9804CA7
:101230009A46934670B491E8380007C810F0804F82
:1012400008BF13F0804F03D100F005F8FFF76BFFE4
:10125000F0BCBDE8008C20F07F4780EA030023F05B
:101260007F4C07EB0C03A3F57C5300F00040A3F187
:10127000FE0392F0000F00F0B38095F0000F00F035
:1012800077802DE901494FEA11404FEA144621EADF
:10129000004800FB06FC24EA064708FB06F607FBAD
:1012A00008F800FB07F718EB06484CEB164C4FEA22
:1012B000124B18EB07484FEA15464CEB174022EA51
:1012C0000B4E0BFB06FC25EA06470EFB06F607FB5A
:1012D0000EFE0BFB07F71EEB064E4CEB164C4FF0C9
:1012E00000061EEB074E4CEB174B18EB0B0840F1BA
:1012F000000018EB0E0B58EB000840F100008F1AAD
:101300004FF000013CBFC943661B14BFB5EB040C92
:1013100000213CBFC943F61B4FEA17444EEA8E0E2C
:1013200027EA04454FEA1C4704FB07622CEA074CF6
:1013300005FB07F70CFB05F604FB0CFC16EB074658
:1013400042EB174216EB0C4642EB1C421BEB060627
:1013500058EB0202414146EA9E0601D5BDE80189EB
:10136000B619524141EB0101A3F10103BDE8018926
:101370004FEA14454FEA114724EA054621EA074C93
:1013800005FB07F406FB07F70CFB06F105FB0CFC5D
:1013900011EB074144EB17444FEA124711EB0C41A4
:1013A00044EB1C4422EA074C05FB07F206FB07F757
:1013B0000CFB06F605FB0CFC16EB074642EB17424E
:1013C00016EB0C4642EB1C456A1854F1000148BF6D
:1013D0007047B619524141EB0101A3F10103704777
:1013E00095F0000F37D04FEA11424FEA144721EA37
:1013F000024624EA074C02FB07F106FB07F70CFB49
:1014000006F402FB0CFC14EB074441EB17414FEAD6
:10141000154714EB0C4441EB1C4125EA074C02FB39
:1014200007F506FB07F70CFB06F602FB0CFC16EBB8
:10143000074645EB174516EB0C4645EB1C421219C7
:1014400051F1000148BF7047B619524141EB01010B
:10145000A3F1010370474FEA14454FEA114724EA0C
:10146000054621EA074C05FB07F106FB07F70CFBD5
:1014700006F24FF0000605FB0CFC12EB074241EBB5
:10148000174112EB0C4251EB1C4148BF70479218B8
:1014900041EB0101A3F101037047000070B5044660
:1014A0000068816801F00301012926D10168C9079C
:1014B00023D0816801F00D01012910D1816841F02C
:1014C0000201816021680320086000F0F9FE0546F2
:1014D0000FE000BF00F0F4FE401B022809D9206C89
:1014E00040F010002064606C40F001006064012056
:1014F00070BD20688068C007ECD1002070BD00007E
:1015000070B504460068816801F00301012902D129
:101510000168C90720D18168104A11420DD1816844
:1015200041F00101816000F0CBFE05460FE000BFF5
:1015300000F0C6FE401B022809D9206C40F01000C4
:101540002064606C40F001006064012070BD206880
:101550000068C043C007EBD1002070BD3F00008091
:10156000FEE7704738B54FF0FF350123334AD021ED
:101570003348009500F0F4FF304A0123521CD0217B
:101580002F48009500F05AFF2C4C641EA078C0072D
:101590004ED001232246D0212948009500F0E0FFDB
:1015A000062304F11002D0212548009500F046FFE3
:1015B00004F110006FF01401008840BA01FA80F0C5
:1015C00000B200EE100AA080B8EEC01A9FED1D0A0E
:1015D000C1EE000AFDEEE00AF8EEE00A20EE800A15
:1015E00010EE100A03F022FA9FED171B53EC112B9B
:1015F00003F01EF99FED161B53EC112B03F018F9A5
:1016000003F0E4F800EE100A84ED020AD4ED030AB8
:1016100030EE800A84ED030A10EE100A03F006FA99
:1016200041EC100B0CA153EC102B0C48FEF7A4FE60
:10163000BDE83840802000F055BD000001000020CA
:10164000780000200000C8420000000000409F3FDA
:101650007B14AE47E17A943F256600009401002098
:1016600072B6FEE72DE9F041044690F83C0088464A
:1016700001280AD0012584F83C502046FFF70EFFD0
:1016800006004FF0000703D033E00220BDE8F081F0
:1016900025642068816821F080418160B8F1010FE4
:1016A00004D12068816841F08041816020688168B0
:1016B00041F00041816000F003FE05460FE000BFED
:1016C00000F0FEFD401B0A2809D9206C20F0020022
:1016D00040F01000206484F83C700120D6E72068B8
:1016E00080680028ECDB206C20F0020040F0010054
:1016F000206484F83C703046C8E70000F0B5002351
:1017000002684FF0A04C3E4C94B01F46624501D198
:1017100000940DE0A24202D1CDF800C008E0394D9E
:10172000394EAA4201D1009602E0B24214D100958E
:1017300090F83C50012D12D0012580F83C5095685E
:101740006D0753D4009DAD686D074FD4624501D03D
:10175000A24206D12D4A05E0012014B0F0BD0220BE
:10176000FBE72B4A0D6840F61F7425B3956890F887
:10177000306025F4604545EA46354E68354395604E
:101780000568AE6806F00306012E02D12D68ED074C
:1017900031D1009DAD6805F00305012D03D1009DF9
:1017A0002D68ED0727D10D6889680D439168A14325
:1017B0000D4395601FE0916821F4604191600168DC
:1017C0008D6805F00305012D02D10968C90712D102
:1017D0000099896801F00301012903D10099096882
:1017E000C90708D19168A143916004E0016C41F000
:1017F00020010164012380F83C701846ADE7000029
:10180000000100500004005000050050000300508B
:1018100000070050F0B594B00024009490F83C20EC
:101820002546012A19D0012780F83C7003689A6880
:1018300052077CD44A681F26052A11D2D3F830C03B
:1018400002EB4202520096402CEA060C0E689640CB
:101850004CEA060CC3F830C035E0022014B0F0BDED
:101860000A2A0FD2D3F834C0521F02EB42025200B0
:1018700096402CEA060C0E6896404CEA060CC3F81B
:1018800034C020E00F2A0FD2D3F838C00A3A02EB56
:101890004202520096402CEA060C0E6896404CEA32
:1018A000060CC3F838C00EE0D3F83CC00F3A02EB88
:1018B0004202520096402CEA060C0E6896404CEA12
:1018C000060CC3F83CC00268936813F00C0F4FF08D
:1018D000070374D1D1F800E0BEF10A0F10D3966966
:1018E000AEF10A0E0EEB4E0C03FA0CFE26EA0E06C3
:1018F000D1F808E00EFA0CFE46EA0E0696610FE0FB
:10190000D2F814C00EEB4E0603FA06FE2CEA0E0CBB
:10191000D1F808E00EFA06FE4CEA0E0CC2F814C02C
:1019200002684E69D2F80CC0CCF3C10C00E0FDE0B7
:101930004FEA4C0C06FA0CF6D1F810E0DFF848C27A
:10194000BEF1010F42D0BEF1020F4DD0BEF1030F28
:1019500058D0BEF1040F63D0166E91F800C006F0A7
:10196000F846B6EB8C6F03D1166E26F0004616666D
:101970000268566E91F800C006F0F846B6EB8C6F20
:1019800003D1566E26F0004656660268966E91F8B0
:1019900000C006F0F846B6EB8C6F03D1966E26F0C9
:1019A000004696660268D66E91F800C006F0F846CA
:1019B000B6EB8C6F03D1D66E26F00046D666026871
:1019C000966806F00306012E3AD136E0D2F860E0C0
:1019D0000EEA0C0E91F800C046EA8C664EEA060E3E
:1019E0004EF000461666EAE7D2F864E00EEA0C0E06
:1019F00091F800C046EA8C664EEA060E4EF00046AC
:101A00005666DCE7D2F868E00EEA0C0E91F800C0EA
:101A100046EA8C664EEA060E4EF000469666CEE723
:101A2000D2F86CE00EEA0C0E91F800C046EA8C6623
:101A30004EEA060E4EF00046C0E71668F6077AD169
:101A4000CE68012E06D052F8B03F0E78B740BB43A7
:101A5000136021E052F8B06F91F800C007FA0CF75C
:101A60003E4316600A680A2A0BD30668B769093A2A
:101A700002EB420293409F438B6893401F43B76140
:101A80000AE007687E69521C02EB420293409E43C3
:101A90008B6893401E437E6103684FF0A0473B4E26
:101AA000BB4201D0B34201D1394A00E0394A09684A
:101AB000102904D0112907D012290AD03BE0D2F80E
:101AC00008C04FEA0C2C08E0D2F808C04FEACC1C42
:101AD00003E0D2F808C04FEA4C2CBCF1000F2ADB1F
:101AE000BB420DD0B34201D100970CE02A4EDFF883
:101AF000ACC0B34202D1CDF800C004E0634501D1CF
:101B0000009600E000959E6806F00306012E02D1C3
:101B10001E68F6070AD1009E8EB1B66806F003066D
:101B2000012E0CD1009E3668F60708D0016C41F0FA
:101B300020010164012480F83C5020468EE61029E3
:101B400008D011291AD01229F5D1916841F48001E9
:101B50009160F0E7BB42EED1916841F400019160E1
:101B60000F49104A0968B1FBF2F101EB810149000C
:101B700000E0491E00910029FBD1DCE7BB42DAD12D
:101B8000916841F08071E3E700F0FF8300010050AD
:101B900000030050000700500004005000050050F2
:101BA0002400002040420F000068006C70470000D5
:101BB000F0B54FF0000695B0040037463546009664
:101BC00005D0206CC00648D4206C18B133E0012049
:101BD00015B0F0BD6564E564A56484F83C5020460A
:101BE00000F00CF920688068C00024D42046FFF77C
:101BF00055FC0646206CC0061DD4E6B9206C20F4C6
:101C0000885040F0020020642068816821F0405133
:101C100081602068816841F0805181606E486F4921
:101C20000068B0FBF1F000EB8000400000E0401ED7
:101C300000900028FBD120688168C90002D5806827
:101C400080000AD5206C20F0020040F010002064D3
:101C5000606C40F0010060640126206CC00676D400
:101C6000002E74D120688168490770D4216C21F45A
:101C7000807141F0020121644FF0A04E584B704535
:101C800001D0984201D1574A00E0574ADFF85CC1C1
:101C90005749704501D100930EE0984202D1CDF82A
:101CA00000E009E0884202D1CDF800C004E06045C0
:101CB00001D1009100E00095836803F00303012B3C
:101CC00002D10068C00710D1009840B1806800F0D0
:101CD0000300012803D100980068C00705D190686F
:101CE000636820F4403018439060D4E90220104328
:101CF000626B012A02D04FF4805300E00023627E21
:101D000043EA4233184394F820303843012B0AD178
:101D1000F2B1226C22F0020242F020022264626CD4
:101D200042F001026264A26A012A21D023688B4238
:101D300001D0634518D14FF430774FF4E071BA42C7
:101D400013D04FF480739A420AD139460DE039E03E
:101D5000A28C284B03EB4242024342F48030E2E77C
:101D60008A4201D1194600E011460143E06A084366
:101D700021688A6812F00C0F0BD1CA6844F2020382
:101D80009A43CA60217E94F83020890341EA4201D7
:101D900008432268D168184B19400143D16020697B
:101DA00001282068016B21F00F0102D1E269521E67
:101DB000114301636564206C20F0020040F00100D3
:101DC000206406E0206C20F0020040F01000206447
:101DD00001263046FCE600002400002040420F00AF
:101DE00000010050000300500007005000050050A3
:101DF000000400500000FEFF07C0F0FF10B586B0E1
:101E0000044614216846FEF75AFB2068B0F1A04F43
:101E10001BD10F48416941F080514161416901F096
:101E200080510591416941F4003141614069694641
:101E300000F4003005900220009003200190002063
:101E400002904FF0904000F059F906B010BD00002C
:101E5000001002402DE9F0470D46044641693F4A13
:101E600000684FF000084FF0A043082905D09842C1
:101E700001D0904203D13A4902E0082614E03949E2
:101E80008E68F6060CD0896801F4404159B1206C87
:101E900040F02000206484F83C800120BDE8F087F9
:101EA000C168C907F2E70C26984201D0904202D1DE
:101EB000D3F8081302E02B490831096811F01F0F0D
:101EC00004D0984202D02849884201D1C76803E073
:101ED000904200D11946CF6800F0F2F9814610E037
:101EE000681C0ED02DB100F0EBF9A0EB0900A84260
:101EF00007D9206C40F00400206484F83C80032063
:101F0000CCE7206800683042EAD0206C40F40070D2
:101F100020642068C16811F4406F1AD1B90418D444
:101F20000168090715D581684907216C0AD421F495
:101F300080712164216CC9040BD4216C41F0010132
:101F4000216406E041F020012164616C41F001014F
:101F50006164790400D4066000209FE7000100500E
:101F60000003005000070050000400502DE9F0412C
:101F7000044600688068400770D494F83C0001284B
:101F80000CD0012084F83C002046FFF7B9FA03008A
:101F90004FF0000605D084F83C6086E00220BDE8E2
:101FA000F081206C40F60161884340F48070206429
:101FB00020684FF0A0413E4A3E4D884201D09042F9
:101FC00002D1D1F8087300E02F6817F01F0F3A4FC5
:101FD00003D0884201D0B8420BD1D4F840C02CF4D1
:101FE000801CC4F840C0D0F80CC05FEA8C1C14D42C
:101FF0001BE0D4F840C04CF4801CC4F840C09042B0
:1020000002D1D1F80CC005E0DFF8ACC00CF10C0C2B
:10201000DCF800C01CF0007F07D0D4F840C02CF4DE
:10202000005C4CF4805CC4F840C0D4F840C05FEA67
:10203000CC4C06D5D4F844C02CF0060CC4F844C0EF
:1020400000E0666484F83C601C26066020688842D4
:1020500001D0904203D1D1F8084301E024E02C687C
:1020600014F01F0F1BD0884201D0904202D1D1F84A
:10207000084300E02C6804F01F04052C0FD08842B0
:1020800001D0904202D1D1F8082300E02A6802F082
:102090001F02092A03D0884201D0B84205D18168C5
:1020A00041F00401816000E00223184677E7000058
:1020B00000010050080700500004005070B50446AD
:1020C00000F0FEF80546601C02D004480078044485
:1020D00000F0F6F8401BA042FAD370BD18000020B3
:1020E00070470000044910B50A68024202D0086037
:1020F000FFF7F6FF10BD0000140401402DE9FC4F6E
:10210000DFF894A1002301250AF1040B03244FF00A
:102110000F0C0BF1040EB8E005FA03F632406FD055
:102120004F68012F05D0022F03D0112F01D0122F9D
:1021300017D1D0F808905F0004FA07F829EA0809D7
:102140000097D1F80C8008FA07F848EA0908C0F8A7
:1021500008804768B7430E79C6F300169E403E4399
:102160004660C6684FEA430804FA08F7BE43019781
:102170008F6807FA08F73743C7604E68022E01D010
:10218000122E13D1DE0800EB86060096366A5F0732
:10219000FF0E0CFA07F926EA0906D1F8109009FAA1
:1021A00007F949EA0609009EC6F820900668019FD3
:1021B000BE430F7907F0030707FA08F737430760B4
:1021C0004E68F60060D5354EB76947F00107B76134
:1021D000B66923F0030706F001060096304E3E4430
:1021E000B146B6689F074FEA17780CFA08F7BE4366
:1021F000B0F1904F05D02B4FB84204D1012712E027
:1022000042E000270FE0284FB84201D102270AE040
:10221000264FB84201D1032705E0254FB84201D12E
:10222000042700E0052707FA08F73743C9F80870C4
:10223000DAF800605746D1F8048096435FEAC83860
:1022400000D516433E60DBF800605F46D1F804809D
:1022500096435FEA883800D516433E60DEF800609A
:102260007746D1F8048096435FEAC82800D5164324
:102270003E60094F0C373E68D1F8048096435FEA10
:10228000882800D516433E605B1C0A6832FA03F6C4
:102290007FF442AFBDE8FC8F000401400010024013
:1022A000000001400004004800080048000C0048FD
:1022B000001000480AB181617047816270470000D8
:1022C00001488068704700001800002090F8412005
:1022D000202A24D190F84020012A20D0012280F821
:1022E0004020242280F841200268136823F0010373
:1022F00013600268136823F4805313600268136844
:102300000B43136001680A6842F001020A60202151
:1023100080F84110002180F84010084670470220E4
:10232000704790F84120202A22D190F84020012ABD
:102330001ED0012280F84020242280F8412002682B
:10234000136823F0010313600268136823F47063B9
:1023500043EA0121116001680A6842F001020A6043
:10236000202180F84110002180F840100846704775
:1023700002207047026891691268436B002B00D0FD
:102380001847704770B5040004D094F84100002548
:1023900010B106E0012070BD84F84050204600F0E6
:1023A00071F9242084F841002068016821F00101BE
:1023B00001606068216820F07060086120688168B1
:1023C00021F400418160E0680128A06807D040F452
:1023D000044021688860E068022803D006E040F4E9
:1023E0000040F6E721684FF40060486020684168CB
:1023F000114A114341602068C16821F40041C16065
:10240000D4E904010843A16940EA01202168C860B9
:10241000D4E907010843216808602068016841F099
:10242000010101606564202084F84100256384F87F
:102430004250002070BD0000008000022DE9F84FDE
:10244000044690F84100DDF828A01F4690468B46D0
:1024500020287ED194F8400001287AD0012084F809
:102460004000FFF72DFF0646012200901923D103FB
:10247000204601F041FAE0BB222084F84100102000
:1024800084F8420000256564C4F82480678565638C
:10249000618D3148FF274FF080784FF00079FF2998
:1024A00003D927853A46009039E0618D2185009057
:1024B0003AE05946204601F009FA13E001F048FAE3
:1024C000B8B92068406A616A0870606A401C60623E
:1024D000208D401E80B22085618D491E6185618DF1
:1024E00001B168B1608D3246002851462046E5D1E1
:1024F00000E002E001F06EFAD0B10120BDE8F88FF3
:102500005346002280212046009601F0F5F900286C
:10251000F3D1608DFF2804D927853A4600954346BC
:10252000C7E7608D2085009594F828204B46C0E7CA
:1025300021682020C86121684A68084B1A404A6017
:1025400084F8410084F8425084F840500020D5E7D8
:10255000FFE70220D2E700000024008000E800FE30
:102560002DE9F84F044690F84100DDF828A01F46F9
:1025700090468B4620287ED194F8400001287AD0DE
:10258000012084F84000FFF79BFE064601220090E0
:102590001923D103204601F0AFF9E0BB212084F8D4
:1025A0004100102084F8420000256564C4F82480AE
:1025B00067856563618D3148FF274FF080784FF064
:1025C0000079FF2903D927853A46009039E0618DCB
:1025D000218500903AE05946204601F077F913E052
:1025E00001F01EFAB8B9606A216800788862606AF2
:1025F000401C6062608D401E6085208D401E80B250
:102600002085618D01B168B1608D32460028514648
:102610002046E5D100E002E001F0DCF9D0B1012074
:10262000BDE8F88F5346002280212046009601F035
:1026300063F90028F3D1608DFF2804D927853A4635
:1026400000954346C7E7608D2085009594F82820C3
:102650004B46C0E721682020C86121684A68084BC2
:102660001A404A6084F8410084F8425084F840508F
:102670000020D5E7FFE70220D2E70000002000801D
:1026800000E800FE10B586B0044614216846FDF748
:1026900016FF17492068884227D1164C606940F41C
:1026A000802060616069694600F4802005904FF4E5
:1026B00040700090122001900120029003200390AE
:1026C000042004900C48FFF719FDE06940F4001065
:1026D000E061E069002200F40010059011461F201F
:1026E00000F06CF81F2000F05BF806B010BD000091
:1026F0000054004000100240000400480248816875
:10270000027811448160704718000020074810B516
:10271000016841F010010160032000F06FF8002013
:1027200000F006F800F024F8002010BD0020024060
:1027300070B50D4D04464FF47A712878B1FBF0F076
:102740000A490968B1FBF0F000F064FD48B9102CAB
:1027500007D200222146501E00F030F800206C60A5
:1027600070BD012070BD0000180000202400002072
:102770000A4882B0816941F001018161816901F0FB
:1027800001010091C16941F08051C161C06900F04F
:1027900080500090072002B000F030B800100240D6
:1027A000002809DB00F01F02012191404009800050
:1027B00000F1E020C0F8001170470000F0B40E4BAB
:1027C0001B680C46C3F30223C3F10705042D00D98F
:1027D0000425191D072901D2002300E0DB1E012674
:1027E00006FA05F1491E214099409E40761E16408A
:1027F0003143F0BC01F033BF0CED00E0064900F0BE
:10280000070208684FF6FF03184040EA0220034A17
:1028100010430860704700000CED00E00000FA056E
:102820002DE9F84F044600680026804DC0036ED5A0
:10283000E869C00008D4E86940F08050E861E869C0
:10284000012600F08050009079480168C90512D433
:102850000168804641F480710160FFF731FD074651
:1028600005E000BFFFF72CFDC01B642835D8D8F861
:102870000000C005F6D5286A10F4407053D0A18836
:1028800001F4407181424ED0286A4FF4803191FAB0
:10289000A1F2B2FA82F29700664A4FF0010817449B
:1028A00020F44070C7F8008491FAA1F1B1FA81F1E7
:1028B00002EB81010023C1F800342862C00732D046
:1028C000FFF7FEFC074641F2883A4FF0020907E0A5
:1028D000FFF7F6FCC11B514502D90320BDE8F88F74
:1028E00099FAA9F0B0FA80F040F040024946B8EBFE
:1028F000521F01D12A680CE091FAA1F2B2FA82F2D9
:1029000042F04002B1EB521F02D12A6A01E015E009
:102910006A6A99FAA9F1B1FA81F101F01F0108FA86
:1029200001F00242D4D0286A616820F44070084364
:1029300028621EB1E86920F08050E8612078C00765
:1029400005D0286BA16820F0030008432863207895
:10295000800705D5286BE16820F4403008432863E0
:102960002078400705D5286B216920F440200843D2
:1029700028632078800605D5286BE16920F01000D7
:10298000084328632068800305D56868A16B20F49C
:102990008000084368602078400605D5286B216ACE
:1029A00020F02000084328632078000705D5286B15
:1029B000616920F44010084328632078C00605D5DB
:1029C000286BA16920F44000084328632088800513
:1029D00005D56868E16A20F4000008436860207843
:1029E000000605D5E86A616A20F4F8700843E862D9
:1029F0002088C00505D5E86AA16A20F4785008430C
:102A0000E8622088C00405D5286B216B20F4807013
:102A1000084328632088800405D5286B616B20F467
:102A2000007008432863002058E7000000100240AF
:102A300000700040000042422DE9F0470F460500BB
:102A400069D04A4E306800F00700B84209D23068B9
:102A500020F0070038433060306800F00700B842CB
:102A600059D12878424C800705D56068A96820F0C4
:102A7000F000084360602878C0073DD069680120F5
:102A800001290DD0022923D05FF0020393FAA3F2AB
:102A9000B2FA82F242F02002520904D0226803E026
:102AA0004FF40033F2E7626A93FAA3F3B3FA83F3C5
:102AB00003F01F03984002422DD0606820F003000D
:102AC00008436060FFF7FCFB804641F288390CE068
:102AD0004FF00073DAE700BFFFF7F2FBA0EB08014D
:102AE000494502D90320BDE8F0876068696800F0B5
:102AF0000C00B0EB810FEFD1306800F00700B84256
:102B00000BD9306820F0070038433060306800F09F
:102B10000700B84201D00120E5E72878400705D535
:102B20006068E96820F4E060084360602878000786
:102B300006D56068296920F4605040EAC1006060F1
:102B400000F04EF86168F02292FAA2F201F0F00172
:102B5000B2FA82F2D140074A515CC8400649086087
:102B600006480068FFF7E4FD0020BCE700200240B3
:102B700000100240464B0008240000201C000020EA
:102B800008480949006849684FF4E06292FAA2F2E5
:102B900001F4E061B2FA82F2D140044A515CC840CB
:102BA000704700002400002000100240564B00082F
:102BB00008480949006849684FF4605292FAA2F245
:102BC00001F46051B2FA82F2D140044A515CC8402B
:102BD000704700002400002000100240564B0008FF
:102BE000164A10B55168164801F00C03042B20D08A
:102BF000082B1ED14FF4701494FAA4F401F470134E
:102C0000B4FA84F4E3400F4CD26AE45C0F2393FAE5
:102C1000A3F302F00F02B3FA83F3DA40094B103347
:102C2000C9039A5C06D500231946FDF72DFBA0FBCE
:102C3000040110BD0448A4FB000110BD00100240B7
:102C400000127A00264B000800093D002DE9F84FDC
:102C5000050071D02878FC4EC0074FF0010425D044
:102C600070686704C0F38100012807D07068C0F362
:102C7000810002281BD17068C00318D597FAA7F00D
:102C8000B0FA80F040F02000400901D0306800E048
:102C9000706A97FAA7F1B1FA81F101F01F0104FA05
:102CA00001F1084265D068680028D2D061E0686808
:102CB000B0F5803F0BD010B1B0F5A02F17D0306821
:102CC00020F480303060306820F4802002E03068EA
:102CD00040F480303060F06AA96820F00F000843AB
:102CE000F062686820B3FFF7EBFA80460AE03068CC
:102CF00040F480203060EAE7FFF7E2FAA0EB08003A
:102D0000642871D897FAA7F0B0FA80F040F020005C
:102D1000400901D0306800E0706A97FAA7F1B1FA73
:102D200081F101F01F0104FA01F10842E4D020E032
:102D3000FFF7C6FA804607E0C2E000BFFFF7C0FA1F
:102D4000A0EB08006428DCD897FAA7F0B0FA80F06E
:102D500040F02000400901D0306800E0706A97FA26
:102D6000A7F1B1FA81F101F01F0104FA01F1084263
:102D7000E4D12878DFF8D48280074FF0000A4FF0C2
:102D8000020730D570684FF0F80B10F00C0F07D029
:102D90007068C0F38100022827D17068C00324D472
:102DA00097FAA7F0B0FA80F040F02000400901D077
:102DB000306800E0706A97FAA7F1B1FA81F101F08A
:102DC0001F0104FA01F1084202D02869012877D1D5
:102DD00030689BFAABF220F0F8016869B2FA82F22F
:102DE0009040014331605AE064E1286988B394FA65
:102DF000A4F0B0FA80F048F82040FFF761FA81466D
:102E000006E000BFFFF75CFAA0EB090002289AD8A1
:102E100097FAA7F0B0FA80F040F02000400901D006
:102E2000306800E0706A97FAA7F1B1FA81F101F019
:102E30001F0104FA01F10842E4D030689BFAABF2BA
:102E40006969B2FA82F220F0F800914008433060DC
:102E500025E0FFE794FAA4F0B0FA80F048F820A04B
:102E6000FFF72EFA814605E0FFF72AFAA0EB0900EA
:102E70000228CCD897FAA7F0B0FA80F040F02000F2
:102E8000400901D0306800E0706A97FAA7F1B1FA02
:102E900081F101F01F0104FA01F10842E4D1287820
:102EA00000076CD5A869A8B394FAA4F0B0FA80F032
:102EB00008EB8000C0F88044FFF702FA814607E083
:102EC000A4E100BFFFF7FCF9A0EB090002289ED89F
:102ED00097FAA7F0B0FA80F040F06000B4EB501F12
:102EE00001D130680BE097FAA7F0B0FA80F040F01B
:102EF0006000B7EB501F01D1306A00E0706A97FAAA
:102F0000A7F1B1FA81F101F01F0104FA01F21042B8
:102F1000D8D034E0FFE794FAA4F1B1FA81F108EBDC
:102F20008101C1F880A4FFF7CBF9814606E000BF1C
:102F3000FFF7C6F9A0EB090002289AD897FAA7F084
:102F4000B0FA80F040F06000B4EB501F01D130685F
:102F50000BE097FAA7F0B0FA80F040F06000B7EB12
:102F6000501F01D1306A00E0706A97FAA7F1B1FAF8
:102F700081F101F01F0104FA01F21042D8D1287842
:102F8000400768D5F0694FF00009C00009D4F06926
:102F900040F08050F061F0694FF0010900F080507E
:102FA00000902B480168C90512D4016841F4807172
:102FB0000160FFF785F9834606E000BFFFF780F95F
:102FC000A0EB0B00642875D821480068C005F5D532
:102FD000E86801280AD008B1052811D0306A20F02D
:102FE00001003062306A20F0040002E0306A40F0F4
:102FF00001003062E86868B3FFF762F983460DE0CC
:10300000306A40F004003062F0E700BFFFF758F983
:10301000A0EB0B0141F2883081424BD897FAA7F020
:10302000B0FA80F040F04000B4EB501F01D130689E
:1030300013E097FAA7F0B0FA80F040F04000B7EB49
:10304000501F09D1306A08E00010024000004242DF
:10305000007000400CE040E0706A97FAA7F1B1FA06
:1030600081F101F01F0104FA01F21042CED02DE0EF
:10307000FFF726F9834607E0FFF722F9A0EB0B01E3
:1030800041F28830814215D897FAA7F0B0FA80F063
:1030900040F04000B4EB501F01D130680CE097FACB
:1030A000A7F0B0FA80F040F04000B7EB501F02D11B
:1030B000306A01E083E0706A97FAA7F1B1FA81F112
:1030C00001F01F0104FA01F21042D5D1B9F1000F4D
:1030D00003D0F06920F08050F061E86980B3716836
:1030E000C1F38101022977D04FF080714F0002288F
:1030F000504609D091FAA1F1B1FA81F148F82100C6
:10310000FFF7DEF805465DE0894691FAA1F1B1FAD4
:1031100081F1C24648F82100FFF7D2F8804605E069
:10312000FFF7CEF8A0EB0800022848D897FAA7F0DE
:10313000B0FA80F040F02000400902D0306801E091
:1031400066E0706A97FAA7F1B1FA81F101F01F0108
:1031500004FA01F10842E3D1D5E908100843716887
:1031600021F474110843706099FAA9F0B0FA80F064
:103170004AF82040FFF7A4F8054604E0FFF7A0F85E
:10318000401B02281BD897FAA7F0B0FA80F040F055
:103190002000400901D0306800E0706A97FAA7F17A
:1031A000B1FA81F101F01F0104FA01F10842E5D002
:1031B0002EE000BFFFF784F8401B022802D903204D
:1031C000BDE8F88F97FAA7F0B0FA80F040F0200041
:1031D000400902D0306801E00BE0706A97FAA7F16D
:1031E000B1FA81F101F01F0104FA01F10842E1D1C5
:1031F0000EE00128E4D070682A6A00F48031914220
:1032000004D1696A00F47010884201D00120D7E728
:103210000020D5E710B5401EB0F1807F01D301201A
:1032200010BD4FF0E02460610F21601701F017FA24
:103230000020A06107202061002010BD30B590F86B
:103240003C20012A3AD0012280F83C20CA688B68D1
:1032500022F440721A434B6822F480621A430B68CE
:1032600022F400621A430B6922F480521A434B691C
:1032700022F400521A438B6A22F480421A430B8BC9
:1032800022F4702242EA03420D4D03680024AB424F
:1032900002D00C4DAB420CD18D8C22F4700242EA6C
:1032A0000552CD6922F080722A43096A22F0007229
:1032B0000A435A6480F83C40002030BD022030BDF3
:1032C000002C014000340140F0B590F83C20012A68
:1032D00036D0012480F83C40022280F83D2002686C
:1032E00053689568174E184FB24201D0BA4204D1C4
:1032F00023F4700C4B6843EA0C0323F0700C0B684A
:1033000043EA0C0353600268B2420DD0B2F1804F21
:103310000AD00E4B9A4207D00D4B9A4204D0BA42C3
:1033200002D00C4B9A4204D1896825F080031943DE
:10333000916080F83D40002180F83C100846F0BDC7
:103340000220F0BD002C0140003401400004004088
:10335000000800400040014010B5040003D094F87C
:103360003D0010B107E0012010BD002084F83C00B2
:10337000204600F023F8022084F83D00211D20683B
:1033800000F076FD012084F8480084F83E0084F8BF
:103390003F0084F8400084F8410084F8420084F83B
:1033A000430084F8440084F8450084F8460084F81B
:1033B000470084F83D00002010BD000008B50068FB
:1033C0000649884208D10648816941F4006181615B
:1033D000806900F40060009008BD0000002C0140EE
:1033E0000010024070B5044690F83C00012817D048
:1033F000012584F83C50022084F83D002268906842
:103400002E4B184020F47F4090600868502830D040
:103410000DDC20284DD005DC98B310283BD148E0C6
:10342000022070BD302844D0402834D139E06028D3
:1034300028D0702806D0B0F5805F2CD0B0F5005FA2
:1034400029D10AE0CB68D1E90121206800F068FDAC
:103450002068816841F0770109E0CB68D1E901215A
:10346000206800F05DFD2068816841F48041816042
:1034700011E0CA684968206800F0ECFE502120681D
:1034800007E016E0CA684968206800F0F4FE602191
:10349000206800F04FFD84F83D50002084F83C0087
:1034A00070BDCA684968206800F0D4FE40212068D9
:1034B000EFE7226801461046EBE7000088FFFEFFB9
:1034C00010B586B0044614216846FCF7F8FF0E4993
:1034D0002068884215D10D48416941F400114161CD
:1034E0004069002100F4001005904FF40070009036
:1034F0000220CDE90101CDE9031069460448FEF739
:10350000FDFD06B010BD0000002C0140001002407F
:103510000010004870B5044690F83C000D460128A4
:103520000BD0012084F83C000C2A45D007DC5AB1AE
:10353000042A1BD0082A78D12CE0022070BD102A62
:103540004ED0142A71D15DE0206800F0FBFC2068A9
:10355000816941F0080181612068816921F00401DD
:103560008161206881692A69114311E0206800F0B7
:1035700037FD2068816941F40061816120688169BB
:1035800021F480618161206881692A6941EA022110
:1035900081614AE0206800F06BFD2068C16941F05C
:1035A0000801C1612068C16921F00401C16120687E
:1035B000C1692A69114311E0206800F0A1FD20686B
:1035C000C16941F40061C1612068C16921F4806171
:1035D000C1612068C1692A6941EA0221C16124E010
:1035E000206800F0C7FD2068416D41F00801416589
:1035F0002068416D21F0040141652068416D2A6910
:10360000114311E0206800F0EDFD2068416D41F4A8
:10361000006141652068416D21F480614165206849
:10362000416D2A6941EA02214165002084F83C008D
:1036300070BD10B5040003D094F83D0010B107E050
:10364000012010BD002084F83C00204600F022F844
:10365000022084F83D00211D206800F009FC0120B3
:1036600084F8480084F83E0084F83F0084F8400065
:1036700084F8410084F8420084F8430084F8440050
:1036800084F8450084F8460084F8470084F83D003B
:10369000002010BD704710B5040002D0A06F10B11B
:1036A00007E0012010BD002084F87400204600F0DF
:1036B00025F82420A0672068016821F0010101603D
:1036C000204600F07DFE0128ECD0606A10B1204653
:1036D00000F0E3FD2068416821F4904141602068DA
:1036E000816821F02A0181602068016841F00101B0
:1036F00001602046BDE8104000F033BE10B586B032
:10370000044614216846FCF7DAFE13492068884213
:1037100020D11248816941F480418161816901F4BD
:1037200080410591416941F4003141614069694638
:1037300000F4003005904FF4C0600090022001902A
:103740000020029003200390072004904FF0904047
:10375000FEF7D4FC06B010BD003801400010024056
:103760002DE9F8430446806F1F4616460D46202873
:103770004FD1CDB1C6B194F87400012849D00120D1
:1037800084F874004FF00008C4F880802120A067FE
:10379000FEF796FDA4F850608146A4F85260A06838
:1037A000B0F5805F03D004E00120BDE8F883206914
:1037B00028B12E465FF0000584F8748010E00026E2
:1037C000FAE78021204600F0DFFEB8B9C6B116F84E
:1037D000010B21680885B4F85200401EA4F852007D
:1037E000B4F852004B464FF0000200970028E8D191
:1037F0004FF04001204600F0C7FE30B10320D4E76F
:1038000035F8020BC0F30800E3E72020A067002092
:10381000CBE70220C9E7FEE70148FEF7ABBD000099
:103820007800002001688A69D243920701D40022FF
:103830008A6200688169C943C90703D0816941F080
:1038400001018161704700002DE9F04104460068E4
:1038500090460E468069C043C00633D40025202719
:1038600020688069C043800615D5701CF8D0FEF72B
:1038700027FDA0EB0800B04201D8002EF0D154F88B
:10388000440F40F0200044F804096770A5702570CB
:103890000120BDE8F08121681020C8612068C7615F
:1038A0002046FFF7BFFF54F8440B4168064A114019
:1038B0004160206840F0040044F820096777A5774C
:1038C0002577E5E70020E4E700E800FEF0B50568AD
:1038D000059C68684FF48066064FC1F3090106EA4B
:1038E000545641EA02413E431943B0432143084341
:1038F0006860F0BDFF63FF032DE9F0411D461746E8
:103900000E460446DDF8188008E0681C06D0FEF775
:10391000D7FCA0EB0800A8420BD855B120688069FD
:1039200036EA000012D00020B842EED00020BDE8F8
:10393000F08154F8440F40F0200044F8040920209E
:1039400060700020A07020700120F0E70120EBE7FC
:103950002DE9F041002690460F460446202525E03B
:10396000424639462046FFF76FFF78BB20688069E2
:10397000C043800613D420688169C943490701D434
:10398000218DC1B9C56154F8440B4168104A1140FA
:10399000416044F820696577A677267716E0FEF740
:1039A0008FFCA0EB0800B84208D83FB120688069BE
:1039B000C0434007D4D40020BDE8F08154F8440F40
:1039C00040F0200044F80409657026700120F3E7F8
:1039D00000E800FE70B516460D4604460DE032467E
:1039E00029462046FFF730FF08B1012070BDFEF7E1
:1039F00067FC801BA84207D835B120688069C043A6
:103A00008006ECD4002070BD54F8440F40F0200034
:103A100044F80409202060700020A0702070E4E7C2
:103A200070B516460D4604460FE03246294620463C
:103A3000FFF70AFF08B1012070BD681C05D0FEF732
:103A40003FFC801BA84207D835B120688069C0437D
:103A50008007EAD4002070BD54F8440F40F02000E5
:103A600044F80409202060700020A0702070E2E774
:103A700030B589B00024069407941821684608944C
:103A8000FCF71DFD19484FF0A0410125C0E90014C5
:103A900084600461447680F82040C0E90A54C5611E
:103AA000C46080F830400421416104764463FEF72D
:103AB0007FF808B1FDF7D4FD06A90C480694FDF780
:103AC0001DFE08B1FDF7CCFD022000900394CDE966
:103AD00001540494694605480594FDF79BFE0028AF
:103AE00001D0FDF7BDFD09B030BD00002800002069
:103AF0002DE9F04186B014216846FCF7E0FC5048FF
:103B0000416941F400114161416901F400110591DD
:103B1000416941F400214161416901F400210591AD
:103B2000416941F480014161416901F480010591DD
:103B3000416941F400314161416901F4003105916D
:103B4000416941F480114161416901F4801105919D
:103B5000416941F48021416140693A4F00F480207D
:103B60004FF608550590002229463846FEF7A2FB7D
:103B70003720009034480024CDE9010469463846D6
:103B8000FEF7BCFA00950125CDE901546946384697
:103B90000394FEF7B3FACDE900544FF0904869461C
:103BA00040460294FEF7AAFAE0200225CDE900057E
:103BB000032602940520CDE9036069464046FEF7DE
:103BC0009DFA802000902148CDE9010569463846DC
:103BD000FEF794FAE8020090CDE9015469461C48CA
:103BE000CDE90345FEF78AFA4FF470700090CDE9F5
:103BF000015469461748CDE90345FEF77FFAE8010D
:103C00000090CDE901540A20CDE9034069464046C1
:103C1000FEF774FAF002CDE9000502940E20CDE91A
:103C2000036069464046FEF769FA01220021172029
:103C3000FEF7C4FD1720FEF7B3FD06B0BDE8F08126
:103C40000010024000100048000012100000111087
:103C5000000C004800080048134810B511490160E5
:103C60001249416000210122C0E902120161416153
:103C70008161C1610162FEF785FB08B1FDF7F0FCCF
:103C800000210948FEF722FB08B1FDF7E9FC0021FD
:103C90000548FEF746FB002803D0BDE81040FDF7BD
:103CA000DFBC10BD00540040780000200E09002049
:103CB00010B59AB000241794189415941694129481
:103CC00013941C210BA81494FCF7F9FB2C216846D3
:103CD000FCF7F5FB2B482A49C0E900144FF410719A
:103CE000C0E9024180210461C0E90541FFF734FBCE
:103CF00008B1FDF7B5FC4FF48050159015A9214887
:103D0000FFF770FB08B1FDF7ABFC1E48FFF791FC15
:103D100008B1FDF7A5FC1294139412A91948149444
:103D2000FFF7D2FA08B1FDF79BFC6020CDE90B0448
:103D30000D940E940F94109400220BA91148119425
:103D4000FFF7E8FB08B1FDF78BFC00944FF400503F
:103D5000CDE9044001940294039400030694CDE954
:103D600007400994694607480A94FFF767FA08B1C3
:103D7000FDF776FC0348FFF7A3FB1AB010BD000067
:103D8000002C0140C40000200D4810B50B49016013
:103D90004FF4E1314160002181600C22C160C0E933
:103DA00004128161C16101624162FFF774FC002865
:103DB00003D0BDE81040FDF753BC10BD00380140F2
:103DC00010010020FEE7FEE770477047FEF796BC43
:103DD00030B59FB028210FA8FCF771FB142119A85A
:103DE000FCF76DFB3C216846FCF769FB03200F9054
:103DF0004FF4A0200024CDE91004012013901020DE
:103E0000149002250003CDE916504FF4E0101890ED
:103E10000FA8FEF71BFF08B172B6FEE70F20CDE931
:103E200019054FF48060CDE91B40022119A81D94AB
:103E3000FEF702FE08B172B6FEE741F2A100009063
:103E400002944FF48070079409900C946846FEF732
:103E5000E7FC002801D072B6FEE71FB030BD0000BD
:103E60000248016841F470010160704788ED00E08C
:103E70002DE9F0430268234B234D244E244C4FF090
:103E80008049984207D0484505D0A84203D0B042A7
:103E900001D0A04203D122F070074A683A431D4F77
:103EA000DFF874C0DFF8748098420DD048450BD01D
:103EB000A84209D0B04207D0A04205D0B84203D0F2
:103EC000604501D0404503D122F44075CA682A43B9
:103ED0004D6922F080022A4302608A68C2620A6841
:103EE0008262984207D0A04205D0B84203D0604514
:103EF00001D0404501D10969016301214161BDE85B
:103F0000F0830000002C0140000400400008004045
:103F1000003401400040014000440140004801409D
:103F200010B5846842EA032224F47F440A43224302
:103F3000826010BD826822F070020A4342F00701DD
:103F4000816070472DE9F043026A22F001020262AB
:103F5000056A436882691C4C25F0020522400C6802
:103F600022F0030214438A68194E2A43174D194F51
:103F7000DFF864C0DFF86490A84207D0B04205D0F3
:103F8000B84203D0604501D0484506D122F0080868
:103F9000CA6842EA080222F00402A84207D0B042EE
:103FA00005D0B84203D0604501D0484505D14D69E0
:103FB00023F440731D438B692B434360846149683C
:103FC00041630262BDE8F0838FFFFEFF002C0140D9
:103FD00000340140004001400044014000480140DD
:103FE000F0B5026A22F010020262056A4268836933
:103FF000194C1B4E23400C6823F4407343EA0424FD
:1040000025F020038D6843EA0513144DA84201D022
:10401000B04206D1CF6823F0800343EA071323F0B0
:104020004003A8420AD0B04208D00E4DA84205D0A5
:104030000D4DA84202D00D4DA84207D14D6922F482
:10404000406242EA85028D6942EA850242608461EB
:10405000496881630362F0BDFF8FFFFE002C0140C1
:10406000003401400040014000440140004801404C
:10407000F0B5026A22F480720262056A4368C2697E
:10408000194C1B4E22400C6822F00302144325F405
:1040900000728D6842EA0522144DA84201D0B04258
:1040A00006D1CF6822F4006242EA072222F480623D
:1040B000A8420AD0B04208D00E4DA84205D00E4DFD
:1040C000A84202D00D4DA84207D14D6923F44053B8
:1040D00043EA05138D6943EA05134360C4614968E7
:1040E000C1630262F0BD00008FFFFEFF002C0140A3
:1040F00000340140004001400044014000480140BC
:1041000030B5026A22F480520262046A4268C369CE
:10411000124D24F400542B400D6823F4407343EAFD
:1041200005238D6844EA05340D4DA8420BD00D4D92
:10413000A84208D00C4DA84205D00C4DA84202D090
:104140000B4DA84204D14D6922F4804242EA851207
:104150004260C36149680164046230BDFF8FFFFEA5
:10416000002C014000340140004001400044014067
:104170000048014030B5026A22F480320262046ACB
:104180004268436D114D2B400D681D4324F40033EC
:104190000C8943EA04430E4CA0420BD00D4CA042C4
:1041A00008D00D4CA04205D00C4CA04202D00C4CC3
:1041B000A04204D14C6922F4803242EA04224260D7
:1041C000456549688165036230BD00008FFFFEFFD1
:1041D000002C0140003401400040014000440140F7
:1041E0000048014030B5026A22F480120262046A7B
:1041F0004268436D114D24F400142B400D6843EACE
:1042000005230D8944EA05540D4DA8420BD00D4DF0
:10421000A84208D00C4DA84205D00C4DA84202D0AF
:104220000B4DA84204D14D6922F4802242EA852236
:10423000426043654968C165046230BDFF8FFFFE7F
:10424000002C014000340140004001400044014086
:104250000048014010B5036A046A24F001040462B6
:10426000846924F0F00444EA021423F00A020A43A9
:104270008461026210BD10B5036A23F0100303626B
:104280008369046A23F4704343EA023224F0A003F2
:1042900043EA01118261016210BD90F82410C90740
:1042A00006D001684A68836A22F400321A434A60E1
:1042B00090F82410890706D501684A68C36A22F479
:1042C00080321A434A6090F82410490706D50168E5
:1042D0004A68036B22F480221A434A6090F8241043
:1042E000090706D501684A68436B22F400421A4365
:1042F0004A6090F82410C90606D501688A68836B65
:1043000022F480521A438A6090F82410890606D558
:1043100001688A68C36B22F400521A438A6090F8DD
:104320002410490611D501684A68036C22F48012F2
:104330001A434A60016CB1F5801F06D101684A68D2
:10434000436C22F4C0021A434A6090F82410090614
:1043500006D501684A68806C22F4002202434A6054
:104360007047F8B500260446C0F88060FDF7A8FF46
:104370000546206800686FF07E47000708D52B4689
:1043800000224FF400112046009700F0FDF860B9BC
:104390002068006840070AD52B4600224FF48001B0
:1043A0002046009700F0F0F808B10320F8BD202067
:1043B000A067E067266684F874600020F8BD0000FE
:1043C00070B5044680682169E26908436169002587
:1043D000114322680843116849F20C639943014371
:1043E000116020684168E26821F440511143416046
:1043F000216AA06901432068826822F430620A437E
:1044000082605A4A20685A4990420CD1086B10F0D9
:10441000030006D001285FD002285FD0032845D1D1
:1044200058E0012143E0534A90420DD1086B10F44B
:1044300040304DD0B0F5803F4ED0B0F5003F4DD06C
:10444000B0F5403F32D145E04B4A90420DD1086B68
:1044500010F440203CD0B0F5802F3DD0B0F5002FB7
:104460003CD0B0F5402F21D134E0444A90420DD1E8
:10447000086B10F440102BD0B0F5801F2CD0B0F595
:10448000001F2BD0B0F5401F10D123E03C4A9042D2
:104490000CD1086B10F440001AD0B0F5800F1BD07F
:1044A000B0F5000F1AD0B0F5400F13D01021E3691A
:1044B0004FF40040334A4FF6EF7683422ED109295C
:1044C0004AD2DFE801F00D10134915494949180097
:1044D0000021ECE70221EAE70421E8E70821E6E70A
:1044E000FEF74EFB06E0FEF763FB03E0104602E03A
:1044F000FEF776FB88B34100606801EB5001B1FB29
:10450000F0F081B2A1F11000B04225D84FF6F07260
:1045100001EA0200C1F3420108431FE009291BD24E
:10452000DFE801F005080B1A0D1A1A1A1000FEF741
:1045300027FB06E0FEF73CFB03E0104602E0FEF737
:104540004FFB50B1616800EB5100B0FBF1F080B25D
:10455000A0F11001B14201D9012501E02168C86034
:1045600000206066A066284670BD0000003801404B
:10457000001002400044004000480040004C004051
:104580000050004000127A002DE9F0479A46174685
:104590000E4604464FF000094FF02008089D39E010
:1045A000681C37D0FDF78CFEA0EB0A00A84222D889
:1045B0000DB32068016849072CD5C069C0430005C8
:1045C00028D421684FF4006008622068016821F453
:1045D000D07101602068816821F001018160C4F818
:1045E0007880C4F87C80C4F8808000BF84F8749020
:1045F0000320BDE8F0872068016821F4D0710160D4
:104600002068816821F001018160C4F87880C4F8D5
:104610007C80EBE72068C06936EA000004D0002007
:10462000B842BDD00020E4E70120F9E7FEE703B47B
:1046300001984100009850EAC12018BF04204A0D9B
:1046400018BF40F0010040F2FF72B2EB515F08BFAB
:1046500040F00200012808BF052002B0704709079A
:10466000090E002804DB00F1E02080F800147047F8
:1046700000F00F0000F1E02080F8141D70470000EA
:104680003EB513A04FF0FF340068019011A0042341
:104690000068029001AAD02100940F48FDF760FF46
:1046A00028B123461A220DA11348FFF759F8032316
:1046B00002AAD02108480094FDF752FF002805D037
:1046C00023461A220DA10C48FFF74AF83EBD000010
:1046D0001900061037110100780000206932635F6D
:1046E0006572726F723A206779726F5F696E697472
:1046F0002829202831290000100100206932635F39
:104700006572726F723A206779726F5F696E697451
:1047100028292028322900001FB5FDF7F7FFFFF7F1
:1047200057FBFFF7E5F9FFF7C3FAFFF795FAFFF735
:104730002BFBFFF79DF916A000680390FFF7A0FF81
:1047400001211448FCF78EFF4FF0FF341148FDF7AC
:104750000DFC21460F48FDF77DFB0E48FDF724FABE
:1047600002460DA16846FBF707FE6846FBF788FE88
:1047700082B2234669460948FEF7F2FF2346022229
:1047800003A90648FEF7ECFF6420FDF797FCDDE780
:104790000D0A000028000020256400001001002000
:1047A00010B500290AD00878002807D005487844B9
:1047B000FCF764FA002801D0002010BD02487844BC
:1047C00010BD0000660400005E04000021F00042FD
:1047D000A2F16052B2F5801F01F0004328BFD2F170
:1047E0007F6C0BD95FEA001C43EAC20242EB5070B7
:1047F00018BF704728BF20F001007047B2F5801F36
:10480000BCBF184670474FEA410C1CF5001F02D28E
:10481000084600F081B970B500F0B4F800000089D6
:10482000FFF7F6BF4FF00040A0F580007047000092
:10483000DFF848C170B51CEA111E1EBF1CEA131533
:104840009EEA0C0F95EA0C0F00F06F8081EA0304DA
:1048500023EA4C134EEAD47E21EA4C1141F4801134
:1048600043F48013AE44A1FB024CA0FB0365AEF100
:104870007F7E361955EB0C05A1FB034C4CF1000370
:10488000A0FB021C16EB0C06654153F10003094224
:1048900018BF46F0010613F4007F0BD14FEA033135
:1048A0004FEA0530340341EA155140EA16506FF0E3
:1048B00003020AE04FEAC3214FEAC520F40241EAAD
:1048C000555140EA56506FF0020202EB2E4201EBC6
:1048D000025585EACE710AD05FEA440C18BF24F075
:1048E000004450F1000041F1000120EAD47040F290
:1048F000FE7C624500D270BDA84214BF4FF08044D8
:104900004FF04044002E08BF0024BEF1806FA8BFC6
:10491000A1F1C041BDE8704080F282804FF00000FC
:1049200001F1C04101F0004170479EEA0C0F0CEA12
:10493000131518BF95EA0C0F06D04FF0000081EA5E
:10494000030E0EF0004170BD00F01CF88900013E1E
:1049500000F007B800F009B84FEA430C5FEA5C5C6E
:1049600008D081EA030100F05BB84FEA410C5FEA2E
:104970005C5CF6D14FF00000014970470000FF0772
:104980000000F87F0EF1020E2EF0030E5EF8046BAD
:10499000364205D4012A43EB030515F5001F12D852
:1049A000012841EB010C1CF5001F0CD80ED14FEA79
:1049B000D17C15F5001F0CEB4C0C0CF1020C08BF60
:1049C0004CEBD37C04E04FF0080C01E04FEAD37CC1
:1049D0000CEB4C0526FA05F606F00706B6F1040CBA
:1049E00006D20EEB860CBDE870404CF0010C60471F
:1049F000DFE80CF0090B02024FF000414FF000001D
:104A0000A1F5002170BD19461046012851EB0104A3
:104A100018BFD4F5001484BF002001F0004170BD20
:104A20000808A0F500114FEA3101704743004FEA32
:104A3000D30C4FEA3C0C43401FBF40070CF16051C0
:104A400013F0FE4F70471CF0006F03D100200CF0F4
:104A5000004170470CF0004343EA507010B540EA43
:104A6000CC0000F00EF800BF000000924FEA0001F9
:104A7000FFF7D6BF4FF000414FF00000A1F5002135
:104A800070470EF1020E2EF0030E5EF8044B244226
:104A900004D44FEA4102B2F17F4F11D84FEA4003EC
:104AA000B3F17F4F0CD80ED14FEAD07CB2F17F4FDB
:104AB0000CEB4C0C0CF1020C08BF4CEBD17C04E06D
:104AC0004FF0080C01E04FEAD17C0CEB4C0324FAC8
:104AD00003F404F00704B4F1040C06D20EEB840CCA
:104AE000BDE810404CF0010C6047DFE80CF007080F
:104AF00002024FF00040A0F5800010BD08464200C1
:104B000018BFD2F1807288BF00F0004010BD4FF096
:104B10004070E1EE100A7047FF2141EAD050C00515
:104B20007047FBF728BE02030405060708090A0BB5
:104B30000C0D0E0F10100102030405060708090AE8
:104B40000B0C0D0E0F100000000000000000010211
:104B50000304060708090000000001020304000026
:104B600002400000000000A000000000054000001E
:104B7000000000C8000000000C4000000000409C45
:104B800000000000194000000020BCBE0000000032
:104B900034400000BFC91B8E00000004B540000077
:104BA000504BCFD06607E2CF010000006C410000FF
:104BB0003E8251AADFEEA73401000000D942000076
:104BC000DCB5A0E23A301F97FFFFFFFFB4450000BD
:104BD000FD25A0C8E9A3C14FFFFFFFFFFF3F000075
:104BE0000000008000000000FF3F00000000008087
:104BF00000000000304C00080000002028000000E9
:104C0000C4010008584C000828000020D807000004
:104C1000E00100081C00000043000000F8FFFFFF57
:104C20000C0000000E0000000F0000002E0000002D
:104C30004300000000000000000000000000000031
:104C40000000000000000000010000001000000053
:084C50000000000000127A00D0
:040000050800018965
:00000001FF
