:020000040800F2
:1000000020070020290200086715000805140008D1
:10001000651500081F04000809160008000000000C
:100020000000000000000000000000006B15000848
:100030002104000800000000691500086D15000883
:10004000430200084302000843020008430200087C
:10005000430200084302000843020008430200086C
:10006000430200084302000843020008430200085C
:10007000430200084302000843020008430200084C
:10008000430200084302000843020008430200083C
:10009000430200084302000843020008430200082C
:1000A000430200084302000843020008430200081C
:1000B000430200084302000843020008430200080C
:1000C00043020008430200084302000843020008FC
:1000D00043020008430200084302000843020008EC
:1000E00043020008430200084302000843020008DC
:1000F00043020008430200084302000843020008CC
:1001000000000000000000000000000043020008A2
:1001100043020008430200084302000843020008AB
:10012000430200084302000843020008430200089B
:100130004302000843020008000000000000000025
:1001400043020008430200084302000800000000C8
:10015000000000000000000000000000000000009F
:1001600000000000000000004302000843020008F5
:100170004302000800000000000000000000000032
:10018000000000004302000800F002F800F03CF814
:100190000AA090E8000C82448344AAF10107DA45E2
:1001A00001D100F031F8AFF2090EBAE80F0013F0F8
:1001B000010F18BFFB1A43F0010318475815000040
:1001C00078150000103A24BF78C878C1FAD85207D1
:1001D00024BF30C830C144BF04680C6070470000C1
:1001E0000023002400250026103A28BF78C1FBD840
:1001F000520728BF30C148BF0B6070471FB501F0E0
:100200006BFA1FBD10B510BD00F0CFF81146FFF717
:10021000F5FF01F00BFA00F0EDF803B4FFF7F2FF81
:1002200003BC00F0F5F80000094880470948004782
:10023000FEE7FEE7FEE7FEE7FEE7FEE7FEE7FEE796
:10024000FEE7FEE704480549054A064B70470000F3
:10025000F91500088901000820010020200700206E
:10026000200300202003002053EA020C00F06980E4
:100270002DE9F04B4FF00006002B1FBFB3FA83F5BA
:1002800003FA05F424FA05F65E4012BF1643B2FAEB
:1002900082F502FA05F4C5F120051EBF22FA05FC1D
:1002A00044EA0C04203556EA044C4FEA144418BFC3
:1002B000641C4FF000084FF00009904271EB030CF2
:1002C00039D3002919BFB1FA81F701FA07F6B0FA5C
:1002D00080F700FA07F6C7F120071EBF20FA07FCD7
:1002E00046EA0C062037B6FBF4FCA7EB0507103FE7
:1002F00007F01F0BCBF120060CFA0BFB2CFA06F6CD
:1003000044BFB3460026202FA4BF5E464FF0000B2B
:100310005BEA060C08BF4FF0010B19EB0B09ABFBB6
:10032000027C48EB0608C01B06FB02CC0BFB03CC8F
:1003300071EB0C01C1E70B46024641464846BDE859
:10034000F08B13B54FF000004FF00001AFF30080C9
:10035000BDE81C4070474FF0000200B513469446BC
:100360009646203922BFA0E80C50A0E80C50B1F10D
:100370002001BFF4F7AF090728BFA0E80C5048BF21
:100380000CC05DF804EB890028BF40F8042B08BFBF
:10039000704748BF20F8022B11F0804F18BF00F8BB
:1003A000012B7047704770477047754600F02CF876
:1003B000AE4605006946534620F00700854618B052
:1003C00020B5FFF73FFFBDE820404FF000064FF09B
:1003D00000074FF000084FF0000B21F00701AC467A
:1003E000ACE8C009ACE8C009ACE8C009ACE8C00999
:1003F0008D46704710B50446AFF300802046BDE837
:100400001040FFF70ABF000000487047C0000020FE
:1004100001491820ABBEFEE7260002007047FEE748
:10042000704772B6FEE7000070B5044600F0F8F8B9
:100430000546601C02D004480078044400F0F0F83F
:10044000401BA042FAD370BD000000202DE9FC4FF4
:10045000DFF894A1002301250AF1040B03244FF0D7
:100460000F0C0BF1040EB8E005FA03F632406FD022
:100470004F68012F05D0022F03D0112F01D0122F6A
:1004800017D1D0F808905F0004FA07F829EA0809A4
:100490000097D1F80C8008FA07F848EA0908C0F874
:1004A00008804768B7430E79C6F300169E403E4366
:1004B0004660C6684FEA430804FA08F7BE4301974E
:1004C0008F6807FA08F73743C7604E68022E01D0DD
:1004D000122E13D1DE0800EB86060096366A5F07FF
:1004E000FF0E0CFA07F926EA0906D1F8109009FA6E
:1004F00007F949EA0609009EC6F820900668019FA0
:10050000BE430F7907F0030707FA08F73743076080
:100510004E68F60060D5354EB76947F00107B76100
:10052000B66923F0030706F001060096304E3E44FC
:10053000B146B6689F074FEA17780CFA08F7BE4332
:10054000B0F1904F05D02B4FB84204D1012712E0F3
:1005500042E000270FE0284FB84201D102270AE00D
:10056000264FB84201D1032705E0254FB84201D1FB
:10057000042700E0052707FA08F73743C9F8087091
:10058000DAF800605746D1F8048096435FEAC8382D
:1005900000D516433E60DBF800605F46D1F804806A
:1005A00096435FEA883800D516433E60DEF8006067
:1005B0007746D1F8048096435FEAC82800D51643F1
:1005C0003E60094F0C373E68D1F8048096435FEADD
:1005D000882800D516433E605B1C0A6832FA03F691
:1005E0007FF442AFBDE8FC8F0004014000100240E0
:1005F000000001400004004800080048000C0048CA
:1006000000100048426921EA02030A4043EA02411D
:10061000816170470AB18161704781627047000053
:1006200001488068704700000000002090F84120D9
:10063000202A24D190F84020012A20D0012280F8DD
:100640004020242280F841200268136823F001032F
:1006500013600268136823F4805313600268136800
:100660000B43136001680A6842F001020A6020210E
:1006700080F84110002180F84010084670470220A1
:10068000704790F84120202A22D190F84020012A7A
:100690001ED0012280F84020242280F841200268E8
:1006A000136823F0010313600268136823F4706376
:1006B00043EA0121116001680A6842F001020A6000
:1006C000202180F84110002180F840100846704732
:1006D0000220704770B5040004D094F84100002552
:1006E00010B106E0012070BD84F84050204600F0B3
:1006F0004DF8242084F841002068016821F00101B0
:1007000001606068216820F070600861206881687D
:1007100021F400418160E0680128A06807D040F41E
:10072000044021688860E068022803D006E040F4B5
:100730000040F6E721684FF4006048602068416897
:10074000114A114341602068C16821F40041C16031
:10075000D4E904010843A16940EA01202168C86086
:10076000D4E907010843216808602068016841F066
:10077000010101606564202084F84100256384F84C
:100780004250002070BD00000080000210B586B00D
:10079000044614216846FFF7DEFD124920688842AE
:1007A0001ED1114C606940F4802060616069694627
:1007B00000F480200590C0200090122001900120BC
:1007C000029003200390042004900848FFF73EFEA7
:1007D000E06940F40010E061E06900F40010059069
:1007E00006B010BD00540040001002400004004854
:1007F000024881680278114481607047000000203F
:10080000074810B5016841F010010160032000F0B5
:1008100061F8002000F006F800F024F8002010BD78
:100820000020024070B50D4D04464FF47A712878CF
:10083000B1FBF0F00A490968B1FBF0F000F0CEFD21
:1008400048B9102C07D200222146501E00F022F891
:1008500000206C6070BD012070BD00000000002011
:100860000C0000200A4882B0816941F001018161D9
:10087000816901F001010091C16941F08051C161BC
:10088000C06900F080500090072002B000F022B84C
:1008900000100240F0B40E4B1B680C46C3F3022359
:1008A000C3F10705042D00D90425191D072901D21C
:1008B000002300E0DB1E012606FA05F1491E214057
:1008C00099409E40761E16403143F0BC00F09DBE1C
:1008D0000CED00E0064900F0070208684FF6FF0340
:1008E000184040EA0220034A1043086070470000A5
:1008F0000CED00E00000FA052DE9F84F0446006811
:100900000026804DC0036ED5E869C00008D4E869B0
:1009100040F08050E861E869012600F080500090C6
:1009200079480168C90512D40168804641F4807194
:100930000160FFF775FE074605E000BFFFF770FE98
:10094000C01B642835D8D8F80000C005F6D5286A41
:1009500010F4407053D0A18801F4407181424ED010
:10096000286A4FF4803191FAA1F2B2FA82F297002C
:10097000664A4FF00108174420F44070C7F800841D
:1009800091FAA1F1B1FA81F102EB81010023C1F8E2
:1009900000342862C00732D0FFF742FE074641F21A
:1009A000883A4FF0020907E0FFF73AFEC11B5145B4
:1009B00002D90320BDE8F88F99FAA9F0B0FA80F0C7
:1009C00040F040024946B8EB521F01D12A680CE0C2
:1009D00091FAA1F2B2FA82F242F04002B1EB521F58
:1009E00002D12A6A01E015E06A6A99FAA9F1B1FA1E
:1009F00081F101F01F0108FA01F00242D4D0286A07
:100A0000616820F44070084328621EB1E86920F054
:100A10008050E8612078C00705D0286BA16820F0DD
:100A20000300084328632078800705D5286BE16818
:100A300020F44030084328632078400705D5286B10
:100A4000216920F44020084328632078800605D5DA
:100A5000286BE16920F010000843286320688003B8
:100A600005D56868A16B20F4800008436860207891
:100A7000400605D5286B216A20F020000843286332
:100A80002078000705D5286B616920F440100843E1
:100A900028632078C00605D5286BA16920F44000A2
:100AA000084328632088800505D56868E16A20F43A
:100AB0000000084368602078000605D5E86A616A8E
:100AC00020F4F8700843E8622088C00505D5E86A7C
:100AD000A16A20F478500843E8622088C00405D554
:100AE000286B216B20F480700843286320888004E1
:100AF00005D5286B616B20F4007008432863002043
:100B000058E7000000100240007000400000424220
:100B10002DE9F0470F46050069D04A4E306800F0D5
:100B20000700B84209D2306820F00700384330602F
:100B3000306800F00700B84259D12878424C80074D
:100B400005D56068A96820F0F00008436060287847
:100B5000C0073DD06968012001290DD0022923D0AA
:100B60005FF0020393FAA3F2B2FA82F242F020029B
:100B7000520904D0226803E04FF40033F2E7626ABE
:100B800093FAA3F3B3FA83F303F01F0398400242EE
:100B90002DD0606820F0030008436060FFF740FD3F
:100BA000804641F288390CE04FF00073DAE700BF6D
:100BB000FFF736FDA0EB0801494502D90320BDE847
:100BC000F0876068696800F00C00B0EB810FEFD12E
:100BD000306800F00700B8420BD9306820F00700F9
:100BE00038433060306800F00700B84201D001207F
:100BF000E5E72878400705D56068E96820F4E060FB
:100C0000084360602878000706D56068296920F4E9
:100C1000605040EAC100606000F01EF86168F02298
:100C200092FAA2F201F0F001B2FA82F2D140074A40
:100C3000515CC8400649086006480068FFF7F2FDAD
:100C40000020BCE70020024000100240021700080C
:100C50000C00002004000020164A10B55168164808
:100C600001F00C03042B20D0082B1ED14FF470147C
:100C700094FAA4F401F47013B4FA84F4E3400F4C32
:100C8000D26AE45C0F2393FAA3F302F00F02B3FAE3
:100C900083F3DA40094B1033C9039A5C06D500236D
:100CA0001946FFF7E1FAA0FB040110BD0448A4FBBC
:100CB000000110BD0010024000127A00E216000888
:100CC00000093D002DE9F84F050071D02878FC4E51
:100CD000C0074FF0010425D070686704C0F381009D
:100CE000012807D07068C0F3810002281BD170680A
:100CF000C00318D597FAA7F0B0FA80F040F02000B2
:100D0000400901D0306800E0706A97FAA7F1B1FAA3
:100D100081F101F01F0104FA01F1084265D0686811
:100D20000028D2D061E06868B0F5803F0BD010B1E8
:100D3000B0F5A02F17D0306820F4803030603068D4
:100D400020F4802002E0306840F480303060F06AA7
:100D5000A96820F00F000843F062686820B3FFF72D
:100D60005FFC80460AE0306840F480203060EAE7AB
:100D7000FFF756FCA0EB0800642871D897FAA7F09B
:100D8000B0FA80F040F02000400901D0306800E067
:100D9000706A97FAA7F1B1FA81F101F01F0104FA24
:100DA00001F10842E4D020E0FFF73AFC804607E07A
:100DB000C2E000BFFFF734FCA0EB08006428DCD8D9
:100DC00097FAA7F0B0FA80F040F02000400901D077
:100DD000306800E0706A97FAA7F1B1FA81F101F08A
:100DE0001F0104FA01F10842E4D12878DFF8D48227
:100DF00080074FF0000A4FF0020730D570684FF0BF
:100E0000F80B10F00C0F07D07068C0F381000228B7
:100E100027D17068C00324D497FAA7F0B0FA80F005
:100E200040F02000400901D0306800E0706A97FA75
:100E3000A7F1B1FA81F101F01F0104FA01F10842B2
:100E400002D02869012877D130689BFAABF220F0F4
:100E5000F8016869B2FA82F29040014331605AE0C9
:100E600064E1286988B394FAA4F0B0FA80F048F8F5
:100E70002040FFF7D5FB814606E000BFFFF7D0FB1F
:100E8000A0EB090002289AD897FAA7F0B0FA80F0F0
:100E900040F02000400901D0306800E0706A97FA05
:100EA000A7F1B1FA81F101F01F0104FA01F1084242
:100EB000E4D030689BFAABF26969B2FA82F220F0B2
:100EC000F80091400843306025E0FFE794FAA4F071
:100ED000B0FA80F048F820A0FFF7A2FB814605E0B9
:100EE000FFF79EFBA0EB09000228CCD897FAA7F0E9
:100EF000B0FA80F040F02000400901D0306800E0F6
:100F0000706A97FAA7F1B1FA81F101F01F0104FAB2
:100F100001F10842E4D1287800076CD5A869A8B38C
:100F200094FAA4F0B0FA80F008EB8000C0F8804496
:100F3000FFF776FB814607E0A4E100BFFFF770FBF7
:100F4000A0EB090002289ED897FAA7F0B0FA80F02B
:100F500040F06000B4EB501F01D130680BE097FA0D
:100F6000A7F0B0FA80F040F06000B7EB501F01D15D
:100F7000306A00E0706A97FAA7F1B1FA81F101F0E6
:100F80001F0104FA01F21042D8D034E0FFE794FACE
:100F9000A4F1B1FA81F108EB8101C1F880A4FFF757
:100FA0003FFB814606E000BFFFF73AFBA0EB0900DC
:100FB00002289AD897FAA7F0B0FA80F040F06000C3
:100FC000B4EB501F01D130680BE097FAA7F0B0FAEC
:100FD00080F040F06000B7EB501F01D1306A00E0B4
:100FE000706A97FAA7F1B1FA81F101F01F0104FAD2
:100FF00001F21042D8D12878400768D5F0694FF047
:101000000009C00009D4F06940F08050F061F06937
:101010004FF0010900F0805000902B480168C9058D
:1010200012D4016841F480710160FFF7F9FA834638
:1010300006E000BFFFF7F4FAA0EB0B00642875D8B8
:1010400021480068C005F5D5E86801280AD008B134
:10105000052811D0306A20F001003062306A20F09B
:10106000040002E0306A40F001003062E86868B3D2
:10107000FFF7D6FA83460DE0306A40F00400306294
:10108000F0E700BFFFF7CCFAA0EB0B0141F288308C
:1010900081424BD897FAA7F0B0FA80F040F04000B8
:1010A000B4EB501F01D1306813E097FAA7F0B0FA03
:1010B00080F040F04000B7EB501F09D1306A08E0E3
:1010C0000010024000004242007000400CE040E08E
:1010D000706A97FAA7F1B1FA81F101F01F0104FAE1
:1010E00001F21042CED02DE0FFF79AFA834607E0D6
:1010F000FFF796FAA0EB0B0141F28830814215D838
:1011000097FAA7F0B0FA80F040F04000B4EB501F1F
:1011100001D130680CE097FAA7F0B0FA80F040F007
:101120004000B7EB501F02D1306A01E083E0706AE3
:1011300097FAA7F1B1FA81F101F01F0104FA01F267
:101140001042D5D1B9F1000F03D0F06920F08050E2
:10115000F061E86980B37168C1F38101022977D039
:101160004FF080714F000228504609D091FAA1F14A
:10117000B1FA81F148F82100FFF752FA05465DE027
:10118000894691FAA1F1B1FA81F1C24648F82100ED
:10119000FFF746FA804605E0FFF742FAA0EB0800A9
:1011A000022848D897FAA7F0B0FA80F040F0200063
:1011B000400902D0306801E066E0706A97FAA7F152
:1011C000B1FA81F101F01F0104FA01F10842E3D103
:1011D000D5E908100843716821F474110843706060
:1011E00099FAA9F0B0FA80F04AF82040FFF718FA0F
:1011F000054604E0FFF714FA401B02281BD897FAB3
:10120000A7F0B0FA80F040F02000400901D030682B
:1012100000E0706A97FAA7F1B1FA81F101F01F01BD
:1012200004FA01F10842E5D02EE000BFFFF7F8F91B
:10123000401B022802D90320BDE8F88F97FAA7F0D7
:10124000B0FA80F040F02000400902D0306801E0A0
:101250000BE0706A97FAA7F1B1FA81F101F01F0172
:1012600004FA01F10842E1D10EE00128E4D07068EF
:101270002A6A00F48031914204D1696A00F4701046
:10128000884201D00120D7E70020D5E770B50400DF
:1012900009D0606A002540B125616561A56294F8B6
:1012A0005D0040B10CE0012070BD6068B0F5827F48
:1012B000F4D0E561F2E784F85C50204600F05CF879
:1012C000022084F85D002068016821F0400101607F
:1012D000E1684FF4E062914201D9002001E04FF44F
:1012E0008050B1F5706F02D0914200D0A562A18804
:1012F000228901F4827102F404421143227C02F03B
:1013000002021143227D02F001021143228B02F4FA
:1013100000721143227F02F03802114394F820201A
:1013200002F080021143228D02F400521143226820
:101330001160A169042202EA114194F8242000F40A
:10134000805002F01002114394F8342002F0080299
:101350001143A28902F47062114301432068416085
:101360002068C16921F40061C1612566012084F80B
:101370005D00002070BD000010B586B00446142149
:101380006846FEF7E8FF1349206888421FD11248DB
:10139000816941F480518161816901F48051059135
:1013A000416941F4003141614069694600F400300F
:1013B0000590E02000900220019000200290032080
:1013C0000390052004904FF09040FFF73FF806B0DF
:1013D00010BD0000003001400010024010B5401E5A
:1013E000B0F1807F01D3012010BD4FF0E024606197
:1013F0000F21601700F009F90020A061072020618B
:10140000002010BDFEE7000070B586B014216846CC
:10141000FEF7A1FF2648416941F40011416141698D
:1014200001F400110591416941F4002141614169D4
:1014300001F400210591416941F480014161416954
:1014400001F480010591416941F400314161416934
:1014500001F400310591416941F480214161406905
:10146000144E00F480204FF608750590002229469E
:101470003046FFF7CFF8372000900F480024CDE921
:10148000010469463046FEF7E1FF00950125CDE9EC
:101490000154694630460394FEF7D8FFCDE9005465
:1014A00069464FF090400294FEF7D0FF06B070BD41
:1014B000001002400010004800001210134810B540
:1014C000114901601249416000210122C0E9021264
:1014D000016141618161C1610162FFF7FBF808B1FF
:1014E000FEF79FFF00210948FFF7A0F808B1FEF7BB
:1014F00098FF00210548FFF7C4F8002803D0BDE895
:101500001040FEF78EBF10BD0054004010000020B8
:101510000E090020124810B5104901604FF4827185
:10152000416000214FF44072C0E902124FF4007292
:101530000161C0E905120822C0E9072107234162C1
:10154000C0E90A13C0E90C12FFF7A0FE002803D07F
:10155000BDE81040FEF765BF10BD0000003001403F
:101560005C000020FEE7FEE770477047FFF740B9D8
:1015700030B59FB028216846FEF7EDFE142119A86A
:10158000FEF7E9FE3C210AA8FEF7E5FE03200090E5
:101590004FF4A0200024CDE9010401200490102084
:1015A000059002250003CDE907504FF4E0100990A3
:1015B0006846FFF787FB08B172B6FEE70F20CDE95A
:1015C00019054FF48060CDE91B40022119A81D9434
:1015D000FFF79EFA08B172B6FEE706480A9011942A
:1015E00018940AA8FFF788F9002801D072B6FEE720
:1015F0001FB030BD200002000248016841F47001B4
:101600000160704788ED00E0FEE70907090E002839
:1016100004DB00F1E02080F80014704700F00F00B8
:1016200000F1E02080F8141D70470000FFF7E8F893
:10163000FFF79EFFFFF7E8FEFFF740FFFFF76AFFA7
:101640004FF48076234C4FF47A7577004FF480681E
:101650004FF400694FF4805A4FF4005B3146204646
:10166000FEF7D0FF2846FEF7DFFE39462046FEF79C
:10167000C9FF2846FEF7D8FE41462046FEF7C2FFC6
:101680002846FEF7D1FE49462046FEF7BBFF284616
:10169000FEF7CAFE51462046FEF7B4FF2846FEF785
:1016A000C3FE59462046FEF7ADFF2846FEF7BCFEB6
:1016B0004FF480412046FEF7A5FF2846FEF7B4FE12
:1016C0004FF400412046FEF79DFF2846FEF7ACFE92
:1016D000C4E70000001000484FF04070E1EE100A2F
:1016E000704702030405060708090A0B0C0D0E0FCC
:1016F00010100102030405060708090A0B0C0D0E61
:101700000F100000000000000000010203040607A3
:101710000809000034170008000000201000000035
:10172000C401000844170008100000201007000042
:10173000E0010008010000001000000000000000AF
:0417400000127A0019
:040000050800018965
:00000001FF
